:020000040800F2
:10000000B0F300208D0300089503000849030008A1
:10001000990300089B0300089D03000800000000EE
:100020000000000000000000000000009F03000826
:10003000A103000800000000A30300086D340008BD
:10004000A7030008A7030008A7030008F931000868
:10005000A7030008A7030008DD260008A127000861
:10006000C5270008E92700080D280008A703000895
:10007000A7030008A7030008A7030008A7030008B8
:10008000A7030008A7030008A7030008000000005A
:1000900000000000000000000000000031280008FF
:1000A000A70300084D350008A7030008A7030008B0
:1000B00099350008C5350008F5350008A703000884
:1000C000A7030008A7030008A7030008A703000868
:1000D000A7030008114000081D40000800000000B0
:1000E00001270008F92E0008A703000800000000FF
:1000F000000000000000000000000000A70300084E
:1001000000000000A703000825360008A703000828
:1001100000000000000000000000000000000000DF
:10012000A7030008A7030008A7030008A703000807
:10013000A70300080000000000000000000000000D
:10014000000000000000000000000000A7030008FD
:10015000A7030008A7030008A7030008A7030008D7
:10016000A7030008A703000800000000000000002B
:10017000000000000000000000000000000000007F
:1001800000000000A70300080000000000000000BD
:10019000A7030008A703000800F002F800F0BDF86C
:1001A0000AA090E8000C82448344AAF10107DA45D2
:1001B00001D100F0B2F8AFF2090EBAE80F0013F067
:1001C000010F18BFFB1A43F00103184724E805008C
:1001D00044E805000A444FF0000C10F8013B13F00E
:1001E000070408BF10F8014B1D1108BF10F8015B90
:1001F000641E05D010F8016B641E01F8016BF9D183
:1002000013F0080F1EBF10F8014BAD1C0C1B09D1D9
:100210006D1E58BF01F801CBFAD505E014F8016B4B
:1002200001F8016B6D1EF9D59142D6D370470000DD
:100230000023002400250026103A28BF78C1FBD8EF
:10024000520728BF30C148BF0B6070476E2900F0CD
:100250000886702900F07F8266291BF04580652999
:100260001BF0428067291BF03F806129AFF30080BB
:1002700003681B0A28BF41F08001692900F0F08162
:10028000642900F0ED81752900F0EA816F2901F001
:10029000EE80782900F04B82E92901F08980E42979
:1002A00001F08680F52901F08380EF2901F0EB80D1
:1002B000F82900F04A820368DB0928BF41F0800179
:1002C000632901F0C581732901F0CA81E32901F096
:1002D000D581F32901F0DA81002070471FB51AF0AB
:1002E000FEFF9DE8030000F0E7FC00F018FB00F0C3
:1002F000BFFC0400002000211AF012FA401C6060CC
:10030000002000211AF022FAE06000F09BFC1FBDE3
:1003100010B5002001F0C2F810BD01F0B0FA11468E
:10032000FFF7DCFF19F098FA01F0D2FA03B4FFF7F7
:10033000EFFF03BC01F09CFAEFF308807047EFF386
:100340000980704768467047704669460CF04CFF5C
:100350001AF010F9FEE700000B49D1F800C04A6816
:100360005CF8043B1068184442F8040B8C4528BF25
:10037000A1F1DC0C8A4228BFA1F1DC02C1F800C067
:100380004A6020F00040704744E30020094880475D
:1003900009480047FEE7FEE7FEE7FEE7FEE7FEE767
:1003A000FEE7FEE7FEE7FEE704480549054A064B7F
:1003B00070470000F134000899010008B0E3002004
:1003C000B0F30020B0EB0020B0EB002010B500F03F
:1003D0004FFC001D10BD00BF49A3010070B50646CB
:1003E00000F042FC056806F10B0020F00704B4425F
:1003F0009CBF002070BD2B466A68BAB11068A0424D
:1004000010D304F1080188423CBF5068586007D3FC
:100410005168101941601168091B0160586014602F
:10042000101D70BD13465268002AE7D121462846A8
:1004300000F02EFC0028DED170BD70B50446051F0B
:1004400000F012FC0068002C14BF446870BD002C42
:1004500018BFAC423CBF20466468F8D301680A1854
:10046000AA4218BF456003D12A68054611440160BD
:1004700028684119A1421CBF6C6070BD6168696049
:1004800021680844286070BD53EA020C00F06980BE
:100490002DE9F04B4FF00006002B1FBFB3FA83F598
:1004A00003FA05F424FA05F65E4012BF1643B2FAC9
:1004B00082F502FA05F4C5F120051EBF22FA05FCFB
:1004C00044EA0C04203556EA044C4FEA144418BFA1
:1004D000641C4FF000084FF00009904271EB030CD0
:1004E00039D3002919BFB1FA81F701FA07F6B0FA3A
:1004F00080F700FA07F6C7F120071EBF20FA07FCB5
:1005000046EA0C062037B6FBF4FCA7EB0507103FC4
:1005100007F01F0BCBF120060CFA0BFB2CFA06F6AA
:1005200044BFB3460026202FA4BF5E464FF0000B09
:100530005BEA060C08BF4FF0010B19EB0B09ABFB94
:10054000027C48EB0608C01B06FB02CC0BFB03CC6D
:1005500071EB0C01C1E70B46024641464846BDE837
:10056000F08B13B54FF000004FF00001AFF30080A7
:10057000BDE81C40704700007CB51D4616460C00C7
:10058000009001D02044401E074B7B442A46694618
:100590000190304600F08DFE05461CB100206946F2
:1005A00000F09AFE28467CBD550D00000FB41CB526
:1005B000084B06AA7B4469460090059800F079FE36
:1005C00004460020694600F087FE20461CBC5DF80A
:1005D00014FB0000210D00000FB47CB50C0009AA2B
:1005E000009001D02044401E084B7B446946019096
:1005F000089800F05EFE05461CB10020694600F038
:100600006BFE28467CBC5DF814FB0000F50C000076
:1006100070B5044685690068C10601D5302600E042
:100620002026C00707D070BDD4E90121304690478D
:10063000206A401C20626D1EF6D570BD70B5044660
:1006400085690078C00707D170BDD4E90121202059
:100650009047206A401C20626D1EF6D570BD0000D8
:100660002DE9F0410646002410687529314616A58B
:1006700010D000F062FB002802DA404213A507E028
:1006800031688A0701D512A502E0490704D511A5F2
:10069000012401E000F05AFB00210A2206F12407A0
:1006A00009E0B0FBF2FCB0FBF2F302FB1C003030BF
:1006B00078541846491C0028F3D123462A46304670
:1006C000BDE8F04100F074BB000000002D00000008
:1006D0002B00000020000000F0B40D460188090541
:1006E00002D5214C7C4402E01F4C7C440E34002196
:1006F00000F1240608E002F00F071209E75D42EA64
:1007000003721B097754491C52EA0307F3D102789C
:100710000023120704D5702D06D009B1022311342D
:100720002246F0BC00F044BB01231034F8E770B55A
:1007300004460D462146106800F008FB0246294693
:100740002046BDE870400023C6E7D21D22F0070313
:10075000D3E90023C0E70368126843F02003036075
:100760000823C3610023B7E75CD805002DE9F05FDB
:10077000894604464FF0000ADFF874B1FB44C0F824
:1007800020A02046E1688847002874D0252806D09C
:10079000D4E901219047206A401C2062F1E700263D
:1007A0005F462046E16888472028054607DB312D53
:1007B00005D2781910F8200C08B10643F1E7B0070C
:1007C00001D526F00406C4F81CA00027C4F818A020
:1007D0002A2D09D028460BF00CFC38B304EB87080F
:1007E000303DC8F8185019E059F8041B204604EBB6
:1007F00087029161E1688847012F054618D1E069B9
:10080000002820DA26F020061DE0D8F8180000EBBA
:10081000800005EB40003038C8F818002046E16839
:10082000884705460BF0E5FB0028EED1012F0AD0E2
:100830002E2D08D12046E16888477F1C0546022FEF
:1008400046F02006C4DBA069002803DA404246F0E7
:100850000106A061F00701D026F010066C2D0BD028
:10086000682D09D04C2D39D06A2D35D0742D35D056
:100870007A2D33D016E038E0E1682F4620468847CD
:10088000B842054609D16C2F26D04FF48060E1684C
:10089000064320468847054604E06C2F1AD04FF4E3
:1008A000807006430DB3A5F14100192802D8203508
:1008B00046F400664A462946204626604E46FFF723
:1008C000C5FC80B101280BD0F61D26F0070000F111
:1008D000080956E74020E4E78020D8E70020D6E763
:1008E00006F104094DE7284652E7206ABDE8F09F6B
:1008F000ECD705000B4910B5A1F17C020A4CC2E906
:100900003712372106E000EB104342F82130074B45
:1009100000FB03400B1EA1F10101F4DC10BD01201E
:10092000E8E70000E4E20020E119D666CD0D010001
:100930002DE9F041074615460E461020FFF74EFD03
:1009400004000AD06760C4E9026500F095F9016807
:10095000216004600020BDE8F0810120FBE740EA4F
:100960000103024630B59B0710D14FF0013400E07F
:1009700008C208C91D1B9D4315EAC41FF8D013F017
:10098000FF0102F8011B0DD01B0AF8E711F8013B2B
:10099000002B02F8013B05D011F8013B002B02F8B7
:1009A000013BF3D130BD10B5431C02E010F8011B30
:1009B00071B18107FAD14FF0013202C88C1A8C4311
:1009C00014EAC211F9D0C01A0A0603D0C01E10BD25
:1009D000C01A10BD0A0401D0801E10BD0902FCD04F
:1009E000401E10BD032A40F2308010F0030C00F0CE
:1009F000158011F8013BBCF1020F624498BF11F859
:100A000001CB00F8013B38BF11F8013BA2F1040211
:100A100098BF00F801CB38BF00F8013B11F0030389
:100A200000F02580083AC0F0088051F8043B083AED
:100A300051F804CBA0E80810F5E7121D5CBF51F88F
:100A4000043B40F8043BAFF30080D20724BF11F809
:100A5000013B11F801CB48BF11F8012B24BF00F86E
:100A6000013B00F801CB48BF00F8012B704710B5DF
:100A7000203AC0F00B80B1E81850203AA0E8185096
:100A8000B1E81850A0E81850BFF4F5AF5FEA027C57
:100A900024BFB1E81850A0E8185044BF18C918C0C6
:100AA000BDE810405FEA827C24BF51F8043B40F867
:100AB000043B08BF7047D20728BF31F8023B48BF4C
:100AC00011F8012B28BF20F8023B48BF00F8012B8A
:100AD00070474FF000020429C0F0128010F0030CA0
:100AE00000F01B80CCF1040CBCF1020F18BF00F821
:100AF000012BA8BF20F8022BA1EB0C0100F00DB8D0
:100B00005FEAC17C24BF00F8012B00F8012B48BF2D
:100B100000F8012B70474FF0000200B513469446D1
:100B20009646203922BFA0E80C50A0E80C50B1F145
:100B30002001BFF4F7AF090728BFA0E80C5048BF59
:100B40000CC05DF804EB890028BF40F8042B08BFF7
:100B5000704748BF20F8022B11F0804F18BF00F8F3
:100B6000012B704710B5044610F0030F08BF11F0B9
:100B7000030F40F015804FF0013E121FC0F20E80AF
:100B800051F8043BA3EB0E0C2CEA030C1CEACE1C20
:100B900008BF40F8043BF0D0A1F1040102F10402C7
:100BA000521E08DB11F8013B002B00F8013BF7D186
:100BB0001146FFF78EFF204610BD00004FF0013CAC
:100BC00050F8042B51F8043B9A4221D1A2EB0C03BC
:100BD000934313EACC1317D150F8042B51F8043B7C
:100BE0009A4215D1A2EB0C03934313EACC130BD119
:100BF00050F8042B51F8043B9A4209D1A2EB0C03A4
:100C0000934313EACC13DBD04FF00000704700BFD2
:100C1000D01A01BAB1FA81F101F0180122FA01F0FB
:100C2000CB40C1F12001DBB2C0B2C01A2CFA01F3F3
:100C3000D11A914311EAC311E6D17047704770474A
:100C40007047000070B5064C7C44064D7D4403E0BF
:100C5000206820448047241DAC42F9D170BD0000BB
:100C6000F0DE050014DF05000048704754E3002063
:100C7000004870476CE300200048704784E3002080
:100C8000004870474CE3002070477047704770473A
:100C900038B504460A4600206946AFF300800028B4
:100CA00008BF38BD02460099204600F027FC01200D
:100CB00038BD012000F085BDF8B5AFF300800546D2
:100CC00000200C46102000BF0646A819A0420DD9EE
:100CD000324669460020AFF30080070008BF00F0ED
:100CE00070FD0098A04218BF0546C419FFF7BCFF6D
:100CF00005600746F01D20F007004619284600F061
:100D00000AF8B44208BFF8BDA21B31463868BDE8F6
:100D1000F84000F0F3BB00210160C0E9011070470A
:100D20001020704710B5FFF7ABFF006810BD10B57D
:100D30000446FFF7A5FF046010BD09684A0501D508
:100D400040B27047C905FCD500B2704709684A0532
:100D500001D5C0B27047C905FCD580B2704770B5E7
:100D60000C460546012A05D02878800600D5EA6998
:100D7000002302E0012305E05B1C934202D2E05C09
:100D80000028F9D1A869E618C01AA861286A184491
:100D900028622846FFF73CFC04E0D5E9012114F85D
:100DA000010B9047B442F8D32846FFF747FC70BDCB
:100DB0002DE9F0470D4699469246044600F1240875
:100DC0000168880604D5E06921F01001216000E087
:100DD0000120A84201DD471B00E00027A1697A1924
:100DE00002EB0900081AA0612078C00602D4204650
:100DF000FFF70EFC002608E0D4E901211AF80600EE
:100E00009047206A401C761C20624E45F4DB207817
:100E1000C0060AD52046FFF7FBFB06E0D4E9012116
:100E200030209047206A401C2062381EA7F101073D
:100E3000F4DC07E0D4E9012118F805009047206AA6
:100E4000401C2062281EA5F10105F3DC2046FFF7B7
:100E5000F5FB2078000602D50220BDE8F0870120CE
:100E6000FBE711680268006A530501D508700AE0C3
:100E7000D30501D5088006E0130603D5C217C1E9E2
:100E8000000200E008600120704770472DE9FF4F25
:100E90000C461E464FF0FF378BB0D2E90001DDF85B
:100EA00060800A908A46C1F30A5505B93D46002183
:100EB00008464FF00000BAF1000F00F4400005DAD8
:100EC00000EB80004FF4400101EA50004FEA9059D6
:100ED000B9F1010F00DDB9460A9850EA4A000ED078
:100EE00044F61050A5F2FF3545432F14B8F1000F1A
:100EF0001ED07542291E1EDDC9F100021CE0B8F1AA
:100F0000010F4FF0000001D0302103E0F24305E073
:100F10002154401CB042FBDB30460022002121540A
:100F20000B99C1F80880C1E900200FB0BDE8F08F2F
:100F3000BD1B6D1CDEE74A4600DA694206A800F0D8
:100F4000A9FB06AB93E8070003AB83E80700504614
:100F50000A9900F057FD8DE80700A0F500501F38F2
:100F600000900398002D0ADD42F21F014A46084412
:100F7000002303A90390684600F0C0FF09E0A0F534
:100F800000504A461F38002303A90390684600F02A
:100F9000CAFF8DE807000004000C03D04FF0FF30BB
:100FA000410800E01046B8F1000F03D00022009283
:100FB00015461EE0751E05D400F0BAFA30326255AF
:100FC0006D1EF9D5B3460122084302D000227F1CD2
:100FD00004E02078302801D100227F1E002A0997E2
:100FE00084D01DE0112D07DA00F0A2FA30326255EC
:100FF0006D1C50EA0102F5D1084302D00098C8B137
:101000000EE00021681E05E0235C625C63542254FC
:10101000401E491C8142F7DBAB46A81B401E0990CD
:10102000002004F80B000B98099AC0F80880C0E96A
:10103000002B7AE711264FF0000857E72DE9F04F13
:1010400088460446D21D22F0070191B0D1E9000183
:10105000CDE90A0109F0D4FF02460B98C00F01D078
:101060002D2007E02068810701D52B2002E02021F8
:1010700001EAC000032A099001D0072A05DB0346D4
:101080004146204600F09AFA0BE12078800601D50F
:10109000E06900E00620B8F1650F814606D0B8F19E
:1010A000660F18D0B8F1670F70D131E00020B9F1A8
:1010B000110F009001DB112301E009F101030AAADD
:1010C00001A90CA8FFF7E2FEDDE90C70002609F18A
:1010D0000105834647E001204B4600904FF0004752
:1010E0000AAA01A90CA8FFF7D1FEDDE90DB00C9901
:1010F0005D46002610B909F101000D18B9EB050095
:1011000003D4C0F1FF3609F10105A5EB09002BE07E
:10111000B9F1010F01DA4FF001090020B9F1110F07
:101120000090484601DD112300E003460AAA01A908
:101130000CA8FFF7ABFEDDE90C704D460026834698
:10114000207800070AD4AB4500DA5D4601A8012DDE
:1011500004DD411911F8011C302907D04F4502DA8E
:1011600017F1040F04DA012082460FE06D1EEEE74E
:10117000002F02DCED1B3E4403E0781CA84200DD9A
:101180007D1CB81B00F1010A4FF0004720780007D2
:1011900003D4AA4501DB4FF0FF3A0021B7F1004F1D
:1011A0000DF143088DF8431024D002202B23002F8B
:1011B00001DA7F422D230A21021EA0F1010000DC8A
:1011C0005FB197FBF1FC97FBF1F201FB1C7C17462A
:1011D0000CF1300C08F801CDEEE7A8F10100037026
:1011E0002188090501D5452100E06521A0F101080C
:1011F00000F8011C09980FA9A1EB0807FF1D00B119
:101200000120411901EBEA70A1693844081A401E17
:10121000A0612078C00602D42046FFF7F9F90998AA
:1012200028B1D4E901219047206A401C206220782F
:10123000C00622D52046FFF7EBF91EE0002E04DBA6
:10124000B34502DD01A8805D00E03020D4E9012132
:101250009047206A401C2062761CAAF101005FEAD8
:10126000000A0AD1FFF704FDC0680168405CD4E9B8
:1012700001219047206A401C2062281EA5F101052B
:10128000DCDC07E0D4E9012118F8010B9047206A63
:10129000401C2062381EA7F10107F3DC2046FFF74F
:1012A000CDF9032011B041E601694A1C02610878BA
:1012B000704700B58FB0CDE9013100210591054996
:1012C0007944CDE9031011466846FFF74FFA0FB095
:1012D00000BD0000E5FFFFFF0A6802F8010B0A608D
:1012E0007047D1E900239A4202D2531C0B60107060
:1012F000704700002DE9FF5F15468A460446DFF877
:10130000AC80F8440027D8E900103E46CDE9001033
:1013100010E03AF816106A4602A800F02DFA411CB7
:1013200007D02178890603D5E269391891420DD892
:101330000744761C2078800602D5E069B84205DDB6
:10134000AE42E6DB3AF816000028E2D1A069C01BE5
:10135000A0612046FFF75CF9D8E90010CDE9001044
:10136000002017E03AF818106A4602A800F004FAC4
:10137000B0F1FF3F81460BD000250DF1080B05E0D1
:10138000D4E901211BF8050090476D1C4D45F7D3AA
:1013900008F10100B0428046E4DB206A3844206254
:1013A0002046FFF74BF9BDE8FF9F0000BACD0500CE
:1013B0002DE9F0418046D21D22F007020025D2E936
:1013C0000002F52915A614D0011E72F1000106DAFB
:1013D0000023D0EB030063EB020211A608E0D8F86B
:1013E00000108B0701D50FA602E0490701D50EA614
:1013F00001251146002408F1240704E000F098F8C4
:1014000030323A55641C50EA0102F7D12B4632467D
:1014100021464046BDE8F041FFF7CABC000000008D
:101420002D0000002B0000002000000030B400213F
:1014300000F1240408E002F00705D208303542EA42
:101440004372DB086554491C52EA0305F3D1046872
:10145000002310A2250707D5A40600D421B1C46932
:1014600001230DA2641EC46130BCFFF7A1BC10B5FE
:10147000044621461068FFF769FC02462046BDE895
:1014800010400023D2E7D21D22F00701D1E900234A
:10149000CCE7000000000000300000002DE9F04122
:1014A0000646FFF7E9FB8046454613E016B1E068C3
:1014B000B0420ED120682860D4E90101D8F800704C
:1014C00088472046FEF7B9FFD8F80000B842EBD1B4
:1014D00000E025462C68002CE8D1BDE8F08110B56D
:1014E00000F076F9BDE8104000F066B9004870479A
:1014F0004CE300200048704780E30020034640682A
:101500008C46002818BF88423CBF03464068F8D389
:1015100018681844884207D00CF1030020F0070037
:10152000001D411A521A0146081D0A60FEF785BFC8
:1015300030B5B0F10A024FEA900E71F100034EEAA5
:10154000817EB0EB0E0061EB91014FEA101E4EEA76
:10155000017E10EB0E0041EB11114FEA102E4EEA06
:10156000016E10EB0E0041EB11214FEA104E4EEAD6
:10157000014E10EB0E0041EB1141401841F100010A
:101580004FEAD00040EA41704FEAD10110EB8005EC
:101590004FEA810444EA907444EB01046D1944EB72
:1015A0000404521BA3414FF0000348BF0A3200D588
:1015B00030BD401C41F1000130BD00002DE9F0417B
:1015C0001F46044603260168072A01F4006004DB75
:1015D00008B116A505E016A503E008B115A500E0C1
:1015E00015A521F010002060A069C01EA0610FB1F8
:1015F000401EA0612046FFF70BF84FB1D4E901214E
:1016000038469047206A401C2062C01C206206E0D9
:10161000206AFAE7D4E9012115F8010B9047761EFC
:10162000F8D22046FFF70AF8BDE8F0814E414E009F
:101630006E616E00494E4600696E660010B54369E2
:1016400013B1AFF3008001E0FFF789FB012010BD6B
:10165000127800F124010A7000224A700122EDE79D
:1016600011684FF0FF32E9E710B5436913B1AFF3EA
:10167000008001E0FFF73EFE012010BD128800F15E
:10168000240182840022C2840122EDE711684FF018
:10169000FF32E9E72DE9F047814616468AB0354822
:1016A00078440DC88DE80D0032487844801C03ACA6
:1016B0000DC884E80D0041F69B300844372190FBAB
:1016C000F1F290FBF1F5A5F1800501FB12041B3C42
:1016D00002D56442012000E00020DFF898A0804697
:1016E0000027FA44AAF1BE0A0EE0E0070AD032460B
:1016F000684607EB470101230AEB810100F013FC68
:101700008DE8070064107F1C002CEED1194F7F4438
:10171000AE3F19E0E80715D007EB04100DF1180AE9
:1017200090E80E008AE80E00C068F04201D19819D6
:1017300008903246012306A903A800F0F4FB03AB8E
:1017400083E807006D10641C002DE3D14FF0010306
:1017500032466946B8F1000F03A802D000F0CEFB74
:1017600001E000F0E0FBC9E90001C9F808200AB077
:10177000BDE8F087A0CA050070B516460C460546C0
:10178000FEF724FE036893F80101012806D0FF2C20
:101790000FD8185D68B101202C7070BDD3F8070117
:1017A0003246214603F2071303442846BDE8704041
:1017B00018474FF0FF3070BD002801D000F058B836
:1017C000704710B500F0B2F8BDE81040FFF7F4BF65
:1017D00010B5002102A000F08FF8012010BD00001C
:1017E0005349475056464E3A2050757265207669E7
:1017F000727475616C20666E2063616C6C65640048
:10180000AFF3008010B500F00EF8016919B10022A5
:101810000261884701E08068804700F062F80000BC
:1018200010B500F05EF870B500F04EF8046805469B
:10183000A4B92020FEF7D2FD040011D009490020F0
:101840002C60C4E900010849A16020732061606137
:101850000649A06109B100F091F8E061204670BD31
:1018600000F03FF800000000211800080000000010
:1018700001491820ABBEFEE72600020070477546FE
:10188000FFF734FEAE4605006946534620F00700D8
:10189000854618B020B5FEF787FDBDE820404FF023
:1018A00000064FF000074FF000084FF0000B21F04A
:1018B0000701AC46ACE8C009ACE8C009ACE8C00917
:1018C000ACE8C0098D4670470048704788E30020A7
:1018D00010B50446AFF300802046BDE81040FEF787
:1018E00025BD10B5002000F06EF8FEF711FDBDE833
:1018F00010400120FFF7BCBF70B505460C460A201A
:1019000000E06D1C00F058F835B128780028F8D1B7
:1019100002E0641C00F050F814B120780028F8D1DF
:10192000BDE870400A2000F047B8000010B501285B
:1019300005D0002103A0FFF7DFFF012010BD09A1A2
:10194000F8E7000053494752544D454D3A204F7532
:1019500074206F662068656170206D656D6F7279A7
:10196000000000003A2048656170206D656D6F725F
:101970007920636F727275707465640010B5882089
:10198000FEF72CFD002801D00021017010BD802938
:1019900002D808B1017809B100207047012100F890
:1019A000081B704718B100F10802914201D00020D5
:1019B000704700210170704708B569468DF8000036
:1019C0000320ABBE08BD10B500F004F8BDE8104020
:1019D000FFF7F2BE10B5002102A0FFF78DFF012036
:1019E00010BD0000534947414252543A2041626EB3
:1019F0006F726D616C207465726D696E6174696F70
:101A00006E0000005FEA400C08BF91F0000F4FEA43
:101A10008C234FEAC12243EA51514FEA1C5018BFB0
:101A200000F5F0404FEA300018BF41F000415FEA96
:101A30006C5C00F02980BCF1FF3F08BF40F08040A3
:101A40007047130C06BF12044FF0100C4FF0000C3F
:101A5000130E04BF12020CF1080C130F04BF120185
:101A60000CF1040C930F04BF92000CF1020CD30F85
:101A700004BF52000CF1010C11464FF00002A0F11E
:101A80001F00A0EB0C00704711F0004F08BF70471B
:101A900031F000413FF4D5AF0B0C06BF09044FF005
:101AA000100C4FF0000C0B0E04BF09020CF1080CD7
:101AB0000B0F04BF09010CF1040C8B0F04BF89004C
:101AC0000CF1020CCB0F04BF49000CF1010CCCF15E
:101AD0002003A0EB0C0022FA03F302FA0CF241EA15
:101AE000030100F10100704720F07F4C80EA030001
:101AF00023F07F47ACEB070303F57C5300F0004075
:101B000003F1FF032DE980494FEA154B09B44FEA71
:101B1000144325EA0B4E24EA03480FF2042606EB91
:101B2000132749083E785FEA320203FB0667C7F5D0
:101B3000000707FB06F64FEA54374FEAD64606F190
:101B4000020607FB066CCCF1005C4FEA1C472CEA4E
:101B5000074C07FB06F40CFB06F504EB15464FEAB1
:101B6000961634BF00204FF000404FEAD13706FBF5
:101B700007FC4FEA1C4C0CFB0BF7D21B03FB0CF7CA
:101B800061EB07010CFB0EF7B0EB074072EB17425D
:101B90000CFB08F734BFA2EB0742B2EB074261EB44
:101BA00017414FEA0C444FEA910706FB07FC4FEA46
:101BB0001C4C0CFB0BF7B0EBC74072EB573203FB2E
:101BC0000CF734BFA2EBC742B2EBC74261EB57310F
:101BD0000CFB0EF7B0EBC70072EB57720CFB08F76B
:101BE00034BFA2EBC702B2EBC70261EB5771039F90
:101BF0004FEA816141EA921104EBCC044FEAD137FC
:101C00004FEA826206FB07FC42EA90124FEA8060CC
:101C10004FEA1C4C0CFB0BF7D21B03FB0CF761EBE0
:101C200007010CFB0EF7B0EB074072EB17420CFB01
:101C300008F734BFA2EB0742B2EB074261EB174152
:101C40004FEA8C554FEA910704EB9C2406FB07FCF6
:101C50004FEA1C4C0CFB0BF7B0EBC74072EB573252
:101C600003FB0CF734BFA2EBC742B2EBC74261EBF8
:101C700057310CFB0EF7B0EBC70072EB57720CFB41
:101C800008F734BFA2EBC702B2EBC70261EB577192
:101C900015EB4C254FEA816141EA92114FEA8262CD
:101CA0004FEAD13742EA901206FB07FC44F10004E8
:101CB0004FEA80604FEA1C4C0CFB0BF7D21B03FB76
:101CC0000CF761EB07010CFB0EF7B0EB074072EB72
:101CD00017420CFB08F734BFA2EB0742B2EB0742F6
:101CE00061EB174115EB1C154FEA813141EA924136
:101CF0004FEA823242EA90424FEA80304FEA0C7655
:101D000044F1000448EA03434EEA0B484FF0000E4A
:101D1000B2EB080C71EB030724BF624639464EEB69
:101D20000E0E4FF0000B0018524149414BEB0B0BCC
:101D3000B2EB080C71EB03077BF1000B24BF62468A
:101D400039464EEB0E0E4FF0000B00185241494140
:101D50004BEB0B0BB2EB080C71EB03077BF1000BA9
:101D600024BF624639464EEB0E0E51EA020718BFF9
:101D700046F0010616EB0E7655F1000254F1000113
:101D800003D5BDE88901BDE80088BDE88901BDE84B
:101D90000048B619524141EB0101A3F1010370471C
:101DA00080807F7E7D7C7B7A797877767675747398
:101DB000727171706F6E6E6D6C6C6B6A6A69686857
:101DC000676666656464636362616160605F5F5EED
:101DD0005E5D5D5C5C5B5B5A5A5959585857575663
:101DE00056555555545453535252525151505050C8
:101DF0004F4F4F4E4E4D4D4D4C4C4C4B4B4B4A4A1A
:101E00004A4949494848484747474746464645455D
:101E10004544444444434343434242424241414196
:101E2000002B9C4630D477002BD01CB54FEA3707E7
:101E300003B44FF010004FF01001BAF1000F06D0BC
:101E4000BCF1000FDCBF40F0080040F008014FF08B
:101E500000000FBCBDE810400BF1010BBBF1010FFE
:101E600008BF5FEA170722BF12F1010211F1010159
:101E70004FF0004143F1000300F0004043EA00004E
:101E80007047F9D35708D0E746EA064613F1400FEA
:101E90004FEA16461FDD13F1200FDFBF16430A4637
:101EA000002120335B42BED0C3F1200746EA06463C
:101EB00002FA07F74FEA164646EA0706C3F120077B
:101EC00022FA03F201FA07F721FA03F14FF00003B7
:101ED00042EA0702A7E746EA020646EA06464FEA52
:101EE000164646EA0106BCBF46EA0646360C4FF0E7
:101EF00000034FF000024FF0000194E72DE9804C01
:101F00009A46934670B491E8380007C831EA400C0D
:101F100048BF34EA430C03D5FFF7E6FDFFF780FF27
:101F2000F0BCBDE8008C2DE9804C9A46934670B415
:101F300091E8380007C810F0804F08BF13F0804FB9
:101F400003D100F005F8FFF76BFFF0BCBDE8008C93
:101F500020F07F4780EA030023F07F4C07EB0C035F
:101F6000A3F57C5300F00040A3F1FE0392F0000FB4
:101F700000F0B38095F0000F00F077802DE9014963
:101F80004FEA11404FEA144621EA004800FB06FCE4
:101F900024EA064708FB06F607FB08F800FB07F7EC
:101FA00018EB06484CEB164C4FEA124B18EB07485F
:101FB0004FEA15464CEB174022EA0B4E0BFB06FC92
:101FC00025EA06470EFB06F607FB0EFE0BFB07F79E
:101FD0001EEB064E4CEB164C4FF000061EEB074E68
:101FE0004CEB174B18EB0B0840F1000018EB0E0BF5
:101FF00058EB000840F100008F1A4FF000013CBF81
:10200000C943661B14BFB5EB040C00213CBFC94398
:10201000F61B4FEA17444EEA8E0E27EA04454FEAB4
:102020001C4704FB07622CEA074C05FB07F70CFB77
:1020300005F604FB0CFC16EB074642EB174216EBC9
:102040000C4642EB1C421BEB060658EB02024141D8
:1020500046EA9E0601D5BDE80189B619524141EB19
:102060000101A3F10103BDE801894FEA14454FEADC
:10207000114724EA054621EA074C05FB07F406FB55
:1020800007F70CFB06F105FB0CFC11EB074144EBD9
:1020900017444FEA124711EB0C4144EB1C4422EA6F
:1020A000074C05FB07F206FB07F70CFB06F605FBE2
:1020B0000CFC16EB074642EB174216EB0C4642EBC4
:1020C0001C456A1854F1000148BF7047B6195241C7
:1020D00041EB0101A3F10103704795F0000F37D0E8
:1020E0004FEA11424FEA144721EA024624EA074C1C
:1020F00002FB07F106FB07F70CFB06F402FB0CFCE6
:1021000014EB074441EB17414FEA154714EB0C441D
:1021100041EB1C4125EA074C02FB07F506FB07F7DC
:102120000CFB06F602FB0CFC16EB074645EB1745CD
:1021300016EB0C4645EB1C42121951F1000148BF49
:102140007047B619524141EB0101A3F101037047F9
:102150004FEA14454FEA114724EA054621EA074CA5
:1021600005FB07F106FB07F70CFB06F24FF0000634
:1021700005FB0CFC12EB074241EB174112EB0C4242
:1021800051EB1C4148BF7047921841EB0101A3F18C
:10219000010370470029816802D041F0010101E08C
:1021A00021F0010181607047084B10B5D3F804237A
:1021B00007490A40D0E900142143D0E90240044312
:1021C00021431143C3F8041310BD00000020014057
:1021D000E030FCFF0029816802D041F4807101E009
:1021E00021F48071816070470029816802D041F438
:1021F000007101E021F400718160704710B5194C45
:1022000090B0204600F084F90121880500F0F2FD2D
:10221000204600F00FFA0028FAD113480021CDE93A
:1022200000101248CDE9020111480078CDE90401FF
:102230004FF48060069040000790800008900001F5
:102240000A90401209900120CDE90B100D910E91DA
:102250006946204600F0F6F90121204600F04EF9CB
:1022600010B010BD106402404C20014098E00020E6
:10227000AC0400202DE9F04101218AB0080200F0F1
:10228000DDFDFFF7BBFF00F0B7F800244FF400308E
:10229000CDE906404FF470600990089406A8FFF756
:1022A00083FF01201C4E8DF8040000948DF805007A
:1022B000029404943078194D8DF81400694628462C
:1022C00000F0A6F801212846FFF764FFA846144F46
:1022D0000FE0651CEAB217F814100723404600F01F
:1022E000BDF837F81400122802D1012000F0F6F8EA
:1022F000ACB230788442ECD3012144464046FFF72B
:1023000073FF01212046FFF765FF204600F0E0F84B
:102310000AB0BDE8F0810000AC04002000200140BC
:1023200074E0002070B5264D0446264E687848B902
:102330000020FF2126F81010401CC0B21228F9D34B
:102340000120687034B3012C24D0022C22D0032C3D
:1023500020D0042C1ED0052C1CD0062C1AD0072C03
:1023600018D0082C16D0092C14D00A2C12D00B2C03
:1023700010D00C2C0ED00D2C0CD00E2C0AD00F2C03
:1023800008D0102C06D0112C04D0122C02D04FF003
:10239000FF3070BD204600F017F8401C02D06FF0EF
:1023A000010070BD2878122802D36FF0020070BDC2
:1023B00026F81040401CC0B22870401E70BD0000BE
:1023C000AC04002074E000200A4910B50246002049
:1023D000074B097806E000BF33F81040944205D05F
:1023E000401CC0B28842F7D34FF0FF3010BD000050
:1023F00074E00020AC04002010B501210C0220463E
:1024000000F028FD2046BDE81040002100F022BD6C
:1024100030B542680F4B0C791A400B6842EA04222F
:102420001343436082680C4B4D791A40D1E9034352
:1024300023438C6844EA4504234313438360C26A00
:10244000097D22F47002491EC9B242EA0151C162FB
:1024500030BD0000FFFEFFFCFDF7FFC070B5072494
:1024600009290AD9C568A1F10A0606EB4606B44057
:10247000A543B3401D43C56007E0056901EB410674
:10248000B440A543B3401D4305611F23072A09D269
:10249000446B521E02EB820293409C4391400C43DA
:1024A000446370BD0D2A09D2046BD21F02EB820275
:1024B00093409C4391400C43046370BDC46A0D3A41
:1024C00002EB820293409C4391400C43C46270BD76
:1024D000816841F080418160704700000649002812
:1024E000D1F8040302D040F4000001E020F4000021
:1024F000C1F8040370470000002001400029016872
:1025000002D041F0010101E021F0010101607047BA
:102510002DE9F043016821F0010101600021016013
:1025200041608160C1600161212141613C493C4AB7
:102530003D251039904202D18D60BDE8F083384AC4
:102540004FF474661832904201D18E60F5E7344A38
:102550004FF474173032904201D18F60EDE7304A6A
:102560004FF0746C4832904202D1C1F808C0E4E7E1
:102570002B4B2C4A6033984201D1CA60DDE7284CCE
:10258000294B7834A04201D1CB60D6E7DFF89080A8
:10259000264C08F19008404501D1CC60CDE7DFF82A
:1025A00080804FF03D5908F1A808404502D1C1F89C
:1025B0000C90C2E71E49DFF878800839404501D108
:1025C0000D60BAE71A4D1835A84201D10E60B4E784
:1025D000174D3035A84201D10F60AEE7144D483594
:1025E000A84202D1C1F800C0A7E7114D10496035DB
:1025F000091FA84201D10A609FE70D4A7832904234
:1026000001D10B6099E70A4A9032904201D10C60E7
:1026100093E7074AA83290428FD1C1F800908CE727
:10262000106002403D000020400F002000003D20CF
:1026300010640240014600200968C90700D001204B
:102640007047000030B50368124ACC6813400A682E
:102650002243D1E905452C432243CC6922430C6A2D
:1026600022434C6A22438C6A22434C6B22438C6B7C
:1026700022431A430260426922F00703D1E90B2486
:1026800022431A4342610A6942604A68826089684B
:10269000C16030BD3F801CF070B500F0EFFE0E4809
:1026A0004FF47A714FF0FF350068B0FBF1F1491E2D
:1026B000B1F1807F0AD24FF0E02461610F212846FA
:1026C00008F0C9FC0020A061072020612846BDE871
:1026D0007040002108F0BFBCCC04002010B50120E0
:1026E00000F00CF9002808D00448006800B18047C9
:1026F000BDE81040012000F0D9B810BDBCE00020BA
:1027000070B54FF48065284600F0F8F8234C28B1E6
:10271000A16A01B18847284600F0C8F84FF4006567
:10272000284600F0EBF828B1E16A01B18847284655
:1027300000F0BCF84FF48055284600F0DFF828B1CF
:10274000216B01B18847284600F0B0F84FF40055DE
:10275000284600F0D3F828B1616B01B188472846BC
:1027600000F0A4F84FF48045284600F0C7F828B1DF
:10277000A16B01B18847284600F098F84FF4004556
:10278000284600F0BBF8002807D0E16B01B188476C
:102790002846BDE8704000F089B870BDBCE000205C
:1027A00010B5022000F0AAF8002808D004484068BC
:1027B00000B18047BDE81040022000F077B810BD9E
:1027C000BCE0002010B5042000F098F8002808D0E4
:1027D0000448806800B18047BDE81040042000F044
:1027E00065B810BDBCE0002010B5082000F086F8E8
:1027F000002808D00448C06800B18047BDE81040F8
:10280000082000F053B810BDBCE0002010B5102027
:1028100000F074F8002808D00448006900B180472F
:10282000BDE81040102000F041B810BDBCE0002011
:1028300070B5202000F062F81B4C28B1606900B12F
:102840008047202000F032F8402000F057F828B1EF
:10285000A06900B18047402000F028F8802000F0F7
:102860004DF828B1E06900B18047802000F01EF8E3
:102870004FF48075284600F041F828B1216A01B173
:102880008847284600F012F84FF40075284600F0FB
:1028900035F8002807D0616A01B188472846BDE8AD
:1028A000704000F003B870BDBCE000200149086032
:1028B00070470000143C014010B500F0A1F8042856
:1028C00010D8052817D2DFE800F0030507090B0030
:1028D000062410E007240EE008240CE009240AE096
:1028E0000A2408E0411F042901D8172403E00A380C
:1028F000052800D82824204610BD0000034A0146C0
:10290000002012680A4200D001207047143C0140A8
:1029100030B51A498379026853B30B6893430B604F
:102920000A1D13680468A343136002790A441368FC
:10293000046823431360114A083213680468A343F0
:102940001360131D1C680568AC431C604479102C8F
:1029500005D021440A68006802430A6030BD11684E
:10296000046821431160196800680143196030BD93
:102970000079084401689143016030BD003C01408A
:102980002DE9FE431E46DDF8289090460D46074689
:10299000B02831D200F034F804460F282CD817485C
:1029A000012140F82450880300F048FA384600F02E
:1029B00027F80546384600F035F8294600F004FDB2
:1029C000012505FA04F0009000208DF804008DF830
:1029D00005808DF806506846FFF79AFF3846FFF7E6
:1029E0006BFF8DF808008DF809608DF80A908DF85E
:1029F0000B5002A800F04CF9BDE8FE83BCE00020BB
:102A0000024901EB0010808900F002B864D3050888
:102A1000002102E04008491C89B20128FAD8C8B256
:102A2000704700001E4901EB00101E4900688842F3
:102A300001D1002070471C49884201D10120704714
:102A40001A49884201D1022070471949884201D1B0
:102A5000032070471749884201D104207047164966
:102A6000884201D1052070471449884201D10620CF
:102A700070471349884201D10720704711498842A5
:102A800001D1082070471049884201D109207047C0
:102A90000E49884201D10A207047FF20704700008C
:102AA00064D3050800000240000402400008024010
:102AB000000C0240001002400014024000180240C6
:102AC000001C024000200240002402400028024076
:102AD000F0B50023012403270D6804FA03F2154022
:102AE000954242D1D0F800C05E0007FA06F52CEA04
:102AF000050CC0F800C091F804C0D0F800E00CFA52
:102B000006FC4CEA0E0CC0F800C091F804C0BCF101
:102B1000010F02D0BCF1020F1FD1D0F808C02CEA7F
:102B2000050CC0F808C091F805C0D0F808E00CFA10
:102B300006FC4CEA0E0CC0F808C0D0F804C02CEA21
:102B4000020CC0F804C0426891F806C00CFA03FCFD
:102B50001FFA8CFC42EA0C024260C268AA43C260BF
:102B6000CA79C568B2402A43C2605B1C102BB3D33C
:102B7000F0BD4B07DB0E9A40C90810B500EB810091
:102B8000016A0F249C40A1430162016A1143016262
:102B900010BD00007CB504463248844201D10120BA
:102BA00030E03148844201D102202BE02F4884429A
:102BB00001D1042026E02E48844201D1082021E0E2
:102BC0002C48844201D110201CE02B48844201D1C2
:102BD000202017E02948844201D1402012E02848F3
:102BE000844201D180200DE02648844201D1801525
:102BF00008E02548844201D1401503E0234884427F
:102C000020D10015FAB1012A1FD0022A20D0032AB0
:102C100021D0052A21D0062A21D0072A12D1022547
:102C2000002600228DF804508DF8053000918DF8B3
:102C300006608DF80720012100F0DCF86946204687
:102C4000FFF746FF7CBD0025EBE700250122E9E701
:102C500000250222E6E70325E3E70125E0E7012559
:102C60002E46DEE700000240000402400008024059
:102C7000000C024000100240001402400018024004
:102C8000001C0240002002400024024000280240B4
:102C900030B50F22C47801780123FCB1144C2468AC
:102CA00001F1E02104F4E064C4F5E064C4F3072416
:102CB000C4F10405E2404478AC40857815402543D2
:102CC0002A0181F80024007800F01F018B404009A0
:102CD000800000F1E020C0F8003130BD01F01F009D
:102CE00083404809800000F1E020C0F8803130BD09
:102CF0000CED00E02DE9F04717460C460646B028DB
:102D000010D2244800EB0615686858B1A87B48B17A
:102D100044B13FB1DFF8808004FB07F0D8F8001021
:102D2000884202D90020BDE8F0870721304616F01E
:102D300091FE304600F052FD81463046FFF760FEBE
:102D400001464A462868FFF714FFD8F800002646D7
:102D5000B0FBF6F0B0FBF7F41049686888420CD07D
:102D60000F49884209D00F49884206D00E4988424F
:102D700003D00E49884200D06408002100F070FCA6
:102D8000641E761EAB7BA2B2B1B2686800F0F6FE9C
:102D9000A87BC8E764D30508CC04002000000140EC
:102DA000000401400040014000440140004801404F
:102DB000014908627047000000000E420B4B10B53D
:102DC0001A6840F60344A24302431A6008480268A6
:102DD00042F004020260012905D020BF016821F001
:102DE0000401016010BD30BFF8E700000070004032
:102DF00010ED00E0044A0029116801D0014300E011
:102E0000814311607047000030380240044A0029B5
:102E1000116801D0014300E0814311607047000058
:102E200040380240044A0029116801D0014300E003
:102E3000814311607047000020380240044A002995
:102E4000116801D0014300E0814311607047000028
:102E500044380240044A0029116801D0014300E0CF
:102E60008143116070470000243802400246002070
:102E7000510901290BD002290CD00849096802F038
:102E80001F02012393400B4200D0012070470349E9
:102E90007439F3E70149091FF0E700007438024074
:102EA000054900220A700A70012802D0042801D1C5
:102EB0000520087070470000703802400149086022
:102EC000704700003C0E4742C0F30121032907D19F
:102ED000074A116821F4F8130649014019431160AB
:102EE000034968310A68C0F30B0002430A60704767
:102EF00008380240FFFCFF0F10B54FF480742046E5
:102F000000F076F8012804D12046BDE8104000F01A
:102F100017B810BD010901EB810100F00F0000EBB3
:102F20004100C0B27047002103E0491C0A38C9B211
:102F3000C0B20A28F9D2090740EA116070470000C0
:102F400080B240F08000C1430348026802F0800272
:102F500011430160704700000C28004008B50020B4
:102F600000900C480168490612D44FF0FF3101600F
:102F700083130168009A01F04001521C00929A42AA
:102F800001D00029F5D00068400601D4002008BD1A
:102F9000012008BD0C2800400248016821F0800192
:102FA000016070470C28004010B50C460E490968B6
:102FB0000E4A11400A0CE270C1F30423637001F061
:102FC0003F03A370C1F34231217000280BD110469A
:102FD000FFF7A0FFE0706078FFF79CFF6070A078BB
:102FE000FFF798FFA07010BD042800403FFFFF00CE
:102FF0000449024600200968034B1940114200D0E1
:10300000012070470C2800407F7F010010B50C465E
:103010000F4909680F4A1140C1F305422270C1F3FC
:103020000623637001F07F03A370402303EA11417C
:10303000E17000280BD11046FFF76CFF207060781C
:10304000FFF768FF6070A078FFF764FFA07010BD05
:10305000002800407F7F7F0070B5124D0446002697
:10306000CA20286053202860FFF778FFA8B10D48D8
:103070001C38016821F04001016001682268114399
:1030800001600848A168143801600168A28841EA1B
:1030900002410160FFF780FF0126FF2028603046D3
:1030A00070BD00002428004008B5034901EB8000F2
:1030B0000090006808BD00005028004070B50C4624
:1030C000010060784FF000062AD0FFF723FFA078B8
:1030D000FFF720FFA078E17840EA01456078217889
:1030E000000240EA41300543194CCA2020605320B9
:1030F0002060FFF733FF78B11648054014482038A8
:103100000560FFF749FF12481C380068800602D4AA
:1031100000F080F800B10126FF202060304670BD2D
:10312000C10603D520F010000A306070E078FFF788
:10313000FAFE05046078FFF7F6FE45EA0025A07860
:10314000FFF7F1FE0543207845EA4035CCE7000063
:10315000242800403FFFFF002DE9F041244F0C469A
:1031600002004FF0000620783A6831464FEA42628A
:1031700004D0002A15DAFFF7CDFE13E0002A00DBA9
:10318000E170FFF7D0FE05046078FFF7CCFE45EA5A
:103190000025A078FFF7C7FE0543E07845EA004523
:1031A0000AE0E170A078217840EA01456078E17892
:1031B000000240EA014005430D4CCA201C34206047
:1031C00053202060FFF7CAFE68B10A48054008484E
:1031D00008380560FFF7E0FE3868800602D400F08A
:1031E00019F800B10126FF2020603046BDE8F081CB
:1031F000082800407F7F7F0010B54FF48064204690
:10320000FFF7F6FE012804D12046BDE81040FFF785
:1032100097BE10BD18B5002010490090CA20086064
:10322000532008600D481838026822F0A00202609E
:103230004FF400340268009B02F020025B1C0093F4
:10324000A34201D0002AF5D00068800601D50120F4
:1032500000E00020FF220A6018BD00002428004082
:1032600008B5034A02EB80000090016008BD000031
:103270005028004030B5C1784278837801F5FA6172
:10328000012A02D0022A02D003E00D2200E00E2221
:10329000491E541C04EB4404052594FBF5F403EB90
:1032A00042022244CB170A4401EB937302EBA302C0
:1032B000642391FBF3F3D21A4FF4C87391FBF3F13B
:1032C0001144072291FBF2F302FB1311491C017018
:1032D00030BD3EB501210807FFF798FD0120FFF73B
:1032E00067FD0020FFF7E0FE45F25004A04227D022
:1032F0000120FFF7D5FD4120FFF7B8FD0028FAD0E7
:103300004FF48070FFF7E0FD0120FFF7D7FD7F202D
:103310000190FF200290002000906846FFF79CFE7D
:1033200000231A461946184600F019F801231A46D8
:103330001946002000F005F821460020FFF790FF15
:103340003EBD08B58DF802208DF801108DF80030D3
:103350008DF8030069460020FFF7B0FE08BD08B5F0
:103360008DF800008DF801108DF802208DF80330E3
:1033700069460020FFF7F0FE08BD0029018802D051
:1033800041F0400101E021F040010180704730B57B
:1033900002884C8802F441530A88CD8822438C88E5
:1033A0002C4322430C8922434C8922438C8922439B
:1033B000CC8922431A430280828B22F400628283EA
:1033C000098A018230BD000010B58A0721F003048C
:1033D0000849130F21440F22D1F808489A4094431A
:1033E000C1F80848D1F8082898400243C1F80828D5
:1033F00010BD0000003001401848016841F08051C4
:1034000001601748016841F44041016013483838B1
:103410000168016001680160016841F48051016048
:10342000021F10491160111F0A6842F080720A6081
:103430000A689201FCD50C4A40F2027111600168E1
:1034400021F003010160016841F00201016001689F
:10345000C1F381010229FAD17047000040380240CF
:103460000070004010640107003C024002480168FF
:10347000491C016070470000B004002070B5184D71
:1034800000212868174A10F00C03174803D0042BBA
:1034900003D0082B03D0026018E0144915E0104B4C
:1034A0001B1F1C681E68C4F3805406F03F062CB92D
:1034B000B2FBF6F11A68C2F3881251431A68C2F3DC
:1034C0000142521C5200B1FBF2F101602968064A28
:1034D000C1F30311121D515C0268CA40026070BD45
:1034E000083802400024F400CC04002040787D011C
:1034F000124810B5016841F470010160104801687C
:1035000041F0010101600E4A002108321160026899
:103510000C4B1A400260031D0B4A1A60026822F429
:103520008022026006480C300160FFF765FF034906
:103530004FF000608039086010BD000088ED00E0A9
:1035400000380240FFFFF6FE1030002470B50F4D2A
:103550000121284600F0C2F90D4C30B1216801B1BB
:1035600088470121284600F078F80A4D01212846B5
:1035700000F0B4F9002808D0616A01B188472846F4
:10358000BDE87040012100F068B870BD0000014046
:10359000FCE000200044014010B501218C072046CA
:1035A00000F09CF9002809D00548416801B188471E
:1035B0002046BDE81040012100F04FB810BD0000CA
:1035C000FCE0002010B5094C0121204600F086F9EE
:1035D000002809D00648816801B188472046BDE827
:1035E0001040012100F039B810BD00000004004077
:1035F000FCE0002010B5094C0121204600F06EF9D6
:10360000002809D00648C16801B188472046BDE8B6
:103610001040012100F021B810BD0000000800405A
:10362000FCE0002010B5094C0121204600F056F9BD
:10363000002809D00648016901B188472046BDE845
:103640001040012100F009B810BD0000000C00403E
:10365000FCE00020C94301827047C94301827047E2
:103660000029018802D041F0010101E021F00101AF
:1036700001807047002930F8441F02D041F4004116
:1036800001E0C1F30E01018070470000464910B50A
:10369000884206D101210846FFF7DCFB002101200A
:1036A0005BE0B0F1804F09D0404988420DD1012143
:1036B0000220FFF7B7FB0021022070E0012108463D
:1036C000FFF7B0FB0021012069E03949884206D1AB
:1036D00001210420FFF7A6FB002104205FE035490B
:1036E000884206D101210820FFF79CFB0021082019
:1036F00055E03149884206D101211020FFF792FBA5
:10370000002110204BE02D49884206D101212020C4
:10371000FFF788FB0021202041E02949884206D19B
:1037200001210220FFF796FB0021022015E0254928
:10373000884202D101210C040AE02349884202D1C7
:1037400001214C0404E0214988420AD101218C0462
:103750002046FFF77FFB00212046BDE81040FFF721
:1037600079BB1B49884206D101214020FFF75AFB53
:103770000021402013E01749884206D10121802012
:10378000FFF750FB0021802009E0134988420AD14D
:10379000841501212046FFF745FB00212046BDE8A6
:1037A0001040FFF73FBB10BD000001400004004087
:1037B00000080040000C00400010004000140040D1
:1037C0000004014000400140004401400048014025
:1037D00000180040001C0040002000402DE9F04F80
:1037E000314A014602EB0111DFF8C0804968002030
:1037F000DFF8BCC02F4A304B304CDFF8C4A0DFF8F4
:10380000C4B0314D314E324FDFF8C890414522D01F
:10381000B1F1804F1DD061451FD091421DD099421A
:103820001BD04FEAB848414517D0DFF8AC8041457E
:1038300013D0A14211D051450FD059450DD0A94206
:103840000BD0B14209D0B94207D0494529D0BDE8D3
:10385000F08F0120FBE7012003E0614501D1022048
:1038600003E0914201D1022003E0994201D10220FC
:1038700003E0A14201D1032003E0514501D103201F
:1038800003E0594501D1032003E0A94201D10320FF
:1038900003E0B14201D1092001E0B94201D049451C
:1038A000D5D10920D3E7000064D30508000001400A
:1038B0000004004000080040000C004000040140EB
:1038C0000040014000440140004801400018004011
:1038D000001C004000200040001400400246002070
:1038E000138A92890B4202EA010202D0002A00D018
:1038F00001207047002A828901D00A4300E08A43F0
:103900008281704730B5028C22F001020284028C61
:103910008388048B22F0020224F073050C882C4368
:103920008D8915434A882A430C4DA84202D00C4D7C
:10393000A8420DD122F00805CA8923F440732A4316
:1039400022F004058A882A430D8A1D434B8A2B43A3
:103950008380048389684163028430BD0000014094
:1039600000040140028B22F008020A4302837047E0
:1039700070B5028C22F010020284028C8488038BC2
:103980000D8823F4E6464FF6FF7303EA0525354319
:103990008E8922F0200203EA061616434A8803EABB
:1039A00002123243104EB04202D0104EB04215D136
:1039B00022F08006CA8924F4406403EA02123243EA
:1039C00022F040068A8803EA021232430E8A03EA92
:1039D000860626434C8A03EA8404344384800583A4
:1039E00089688163028470BD0000014000040140C9
:1039F000028B4FF6FF7322F4006203EA01211143A8
:103A00000183704770B5028C22F480720284028CAC
:103A10008488838B0D8823F073031D4322F4007385
:103A20008E894FF6FF7202EA06261E434B8802EA91
:103A300003233343104EB04202D0104EB04215D192
:103A400023F40066CB8924F4405402EA0323334371
:103A500023F480668B8802EA032333430E8A02EA4A
:103A6000061626434C8A02EA041434438480858374
:103A70008968C163038470BD0000014000040140F7
:103A8000828B22F008020A438283704770B5028C51
:103A900022F480520284048C8288838B0D8823F464
:103AA000E6464FF6FF7303EA0525354324F4005636
:103AB0008C8903EA043434434E8803EA06362643ED
:103AC000084CA04202D0084CA04205D122F4804408
:103AD0000A8A03EA8212224382808583896801640C
:103AE000068470BD0000014000040140828B4FF647
:103AF000FF7322F4006203EA0121114381837047BE
:103B000030B50288164B174C98420DD0A0420BD00E
:103B1000B0F1804F08D0144DA84205D0134DA842F3
:103B200002D0134DA84203D122F070054A882A43DF
:103B3000104DA84206D0104DA84203D022F4407583
:103B40000A892A4302804A68C2620A88028598422A
:103B500001D0A04201D1897A01860121818230BD44
:103B60000000014000040140000400400008004043
:103B7000000C004000100040001400402DE9FF4FF1
:103B8000464D474E474FDFF82081DFF8209189B03E
:103B900092468B460446A84223D0B4F1804F20D0F1
:103BA000434884421DD0434884421AD0424884424C
:103BB00017D04FEAB540844213D04048844210D019
:103BC000B4420ED0BC420CD044450AD04C4508D07B
:103BD0003B48844205D03B48844202D03A48844264
:103BE00058D10121204600F071F80020ADF814A052
:103BF000ADF81C00ADF81600CDF818B005A92046A8
:103C0000FFF77EFF7020ADF800000120ADF8020044
:103C10000220ADF80C000C98012806D002280DD027
:103C2000032814D0042823D11AE069462046FFF760
:103C300069FE08212046FFF795FE19E069462046F7
:103C4000FFF796FE08212046FFF7D2FE10E06946F6
:103C50002046FFF7D7FE08212046FFF711FF07E0B7
:103C600069462046FFF712FF08212046FFF73EFF76
:103C700001212046FFF7F4FCAC4207D0B44205D046
:103C8000BC4203D0444501D04C4503D1012120461C
:103C9000FFF7F0FC0DB0BDE8F08F00000000014020
:103CA0000004014000400140004401400048014040
:103CB0000004004000080040000C004000140040D8
:103CC00000180040001C004000200040254A90429F
:103CD00001D1012033E0B0F1804F04D0224A90425C
:103CE00003D102203BE0012039E0204A904201D17B
:103CF000042034E01E4A904201D108202FE01D4AE2
:103D0000904201D110202AE01B4A904201D120208C
:103D100025E01A4A904201D1022010E0184A904250
:103D200002D14FF480300AE0164A904202D14FF49B
:103D3000003004E0144A904203D14FF48020FFF792
:103D40007DB8124A904201D1402008E0104A9042CA
:103D500001D1802003E00F4A904202D18015FFF785
:103D600055B87047000001400004004000080040C2
:103D7000000C00400010004000140040000401400E
:103D8000004001400044014000480140001800404C
:103D9000001C0040002000402DE9FF410E4628494C
:103DA0000446154625480968264A274B274FDFF861
:103DB000A0C0844208D0944206D09C4204D0BC42A9
:103DC00002D0644500D04908844222D0B4F1804F2B
:103DD0001FD0204884421CD01F48844219D01F485D
:103DE000844216D01E48844213D01E48844210D00C
:103DF00094420ED09C420CD0BC420AD0644508D0FC
:103E00001948844205D01948844202D01848844297
:103E100012D1002E10D003AB02AA304600F0D8F821
:103E200003210020CDE900012B46BDF80C20BDF890
:103E30000810204600F01EF8BDE8FF810000014098
:103E4000CC04002000040140004001400044014037
:103E5000004801400004004000080040000C004001
:103E6000001000400014004000180040001C0040FA
:103E7000002000402DE9FF5F994692468B46DFF80F
:103E80001C81474FDFF81CC14749484A484B494EFF
:103E90000446404529D0B4F1804F23D0BC4227D0FE
:103EA000644525D08C4223D04FEAB84844451FD002
:103EB000DFF8048144451BD0DFF80081444517D06A
:103EC000944215D09C4213D0B44211D0DFF8F08058
:103ED00044450DD0DFF8EC80444509D03A498C4286
:103EE00059D123E001201C2522E00020192504E0FF
:103EF000BC4202D102201D2504E0644502D103200A
:103F00001E2504E08C4202D10420322504E09442B4
:103F100002D10820182504E09C4202D1092019256D
:103F200006E0B44202D10A201A2501E0002D32D069
:103F3000264A42F820902046FFF7A8FB01212046A0
:103F4000FFF7C4FEABF1010101910020AAF10101CC
:103F5000ADF800108DF80A00ADF80800ADF80200C9
:103F600069462046FFF7CCFD8DF80C500E988DF871
:103F70000D000F988DF80E0001208DF80F0003A89A
:103F8000FEF786FE01212046FFF764FB0122114661
:103F90002046FFF7AFFCBDE8FF9F00000000014096
:103FA0000004004000080040000C004000400140B8
:103FB000004401400048014000140040000401405A
:103FC00000180040001C004000200040FCE00020E1
:103FD00010B50D4CB1FBF4F14843C1EB0111B0EB4E
:103FE000410F01D20A210AE00849884202D24FF467
:103FF0007A7101E044F62061B0FBF1F189B2B0FBC7
:10400000F1F01180188010BD40420F0018FCE7034A
:10401000014804F051BD00004CDE0020014804F0CE
:104020004BBD0000E8DE00200A0A01219140C9438F
:10403000018070470246002012880A4200D0012009
:10404000704730B501F01F0201240025C1F342136F
:1040500004FA02F2012B0FD0022B0FD0838A4FEA11
:1040600011210088134204FA01F400EA040001D08F
:1040700000B10125284630BD8389F0E7038AEEE7C9
:104080008088C0F308007047C1F308018180704741
:104090002DE9FF41064680F001050224DFF870801B
:1040A0004FF4C8772FE015B1012D29D112E05EB190
:1040B00002F096FA40F26711009100234FF47A72F1
:1040C0000A2115F0E3FB00E00020394601F000F979
:1040D000012515E04546D8F8140013F06FFF03469C
:1040E0000C4800210EB1FF2200E00022CDE900279C
:1040F000CDE90210084A0949686901F013FD00255D
:10410000384603F005FF641ECDD2BDE8FF810000F4
:104110003C0100201DEE0008CB8201080024002095
:10412000F8B5054602F05CFA284400B24FF47A7400
:104130000A2801DA0A2002E0A04200DD20460646F5
:1041400002F058FA64200090002322460A213046EB
:1041500015F09CFB02460C480AA1406912F0E2FBF4
:10416000002D0ED040F267100090002322460A2155
:10417000304615F08BFBBDE8F8404FF4FA7101F0C2
:10418000A7B8F8BD256400003C01002010B501204F
:1041900002F0F0FF074904A04860BDE8104001218B
:1041A000054803F0DDBF0000636872626F636368F7
:1041B00069000000F40200207C2A00207CB5134630
:1041C0000446C888B1F902208D88B1F90010801A20
:1041D0006D1A401C6D1C00B22DB2CDE90050044890
:1041E00004F0B8FF2046BDE87C400DF01FB9000088
:1041F0003C06002010B50DF02DF9BDE810400DF083
:104200005BB9002801D0FCF775BB70472DE9F0477A
:104210004C4D01262878032835D005F099FB05F090
:104220005DFCE8794FF00008C0F14000002820DD77
:10423000DFF8149100274FF0FF3A00BF09EB470465
:104240000221504603F0BCFC217808442070022073
:1042500003F0AAFC6178084440B26070402805DB96
:10426000802003F0A1FC207084F801807F1C402F87
:10427000E4DB2869401E2861297871B101291ED02C
:10428000022945D04DE00C21304806F07CFCA0B35B
:104290002E701E20A8706E704FE03C2801D060B1D7
:1042A0003FE02B484FF4805101804910418080F855
:1042B0000480C0214171EE7133E02E7031E06869F5
:1042C000002801DD401E6861E968491CE960E87961
:1042D00010B1A878A0B124E002202870A86900F0ED
:1042E0009FFD58B10020E8704FF4F0702861012262
:1042F0001849164806F0BEFC13E01EE00120F2E764
:104300000C21124806F03FFC58B10320287008E049
:10431000A87830B90C210D4806F035FC08B105F03D
:104320005FFC95F90200002801DD401EA8706E7048
:104330002878022801D1286910B10020BDE8F08753
:104340000120FBE744030020C0310020902E002014
:10435000C02E0020226F050810B50D4C032100224D
:104360002078401EC0B220700F3890FBF1F1094850
:10437000C84000F001006070C0EBC0131146064851
:1043800003F053FE207808B1002010BD012010BDBD
:10439000600300203AAAE3EE902E0020F8B5354CD9
:1043A00005460021A06811F0C7FCE06013F01EFE76
:1043B00001463C223048FCF75AFB2F49304E2F482B
:1043C000486230680090A1F12400BDF80010A0F808
:1043D00044102949E06814F003F82946E06812F017
:1043E0004EFA00200346014600900222E06813F0D6
:1043F00013FA0121E06813F04FFF0021A06812F0CA
:104400002DFC20612079C0070BD1201D06F033FE62
:1044100038B101F0C7FE04F11C018880201DAFF304
:104420000080144902221C31206912F07BFD2069B2
:1044300013F0DCFD014610483C223C30FCF717FB32
:10444000706800900C48BDF800105C300225818235
:1044500020380121C58680F83910074920693C3190
:1044600013F0BEFF0095D4E9031000230D2213F0D2
:10447000D3F9F8BD3C010020102300204C0200209D
:1044800064BC0108F8B5344C07460021A06811F05F
:1044900053FCE06013F0AAFD01463C222F48FCF7D4
:1044A000E6FA2E4D2F4E2E48686230680090BDF817
:1044B000000028842946E06813F092FF3946E0683E
:1044C00012F0DDF900200346014600900222E06868
:1044D00013F0A2F90121E06813F0DEFE0021A068CC
:1044E00012F0BCFB20612079C0070BD1201D06F023
:1044F000C2FD38B101F056FE04F130018880201D64
:10450000AFF30080144902223031206912F00AFD15
:10451000206913F06BFD014610483C223C30FCF74B
:10452000A6FA70680090BDF80000A5F870000B486E
:1045300002253C300121C58680F8391007492069E1
:104540003C3113F04DFF0095D4E9031000230D22F8
:1045500013F062F9F8BD000060010020242400205F
:104560004C02002078BC0108F8B5344C0746002105
:10457000606811F0E1FBA06013F038FD01463C22B9
:104580002F48FCF774FA2E4D2F4E2E486862306883
:104590000090BDF8000028842946A06813F020FF91
:1045A0003946A06812F06BF90020034601460090DE
:1045B0000222A06813F030F90121A06813F06CFE0C
:1045C0000021606812F04AFBE0602078C0070BD140
:1045D000204606F050FD38B101F0E4FD04F12C0155
:1045E00088802046AFF30080144902222C31E06815
:1045F00012F098FCE06813F0F9FC014610483C22E8
:104600003C30FCF734FA70680090BDF80000A5F863
:1046100070000B4802253C300121C58680F8391016
:104620000749E0683C3113F0DBFE0095D4E9021045
:1046300000230D2213F0F0F8F8BD0000A4010020C3
:104640004C2600204C020020A4BC0108F8B5344CD4
:1046500007460021606811F06FFBA06013F0C6FCF4
:1046600001463C222F48FCF702FA2E4D2F4E2E48D1
:10467000686230680090BDF8000028842946A06870
:1046800013F0AEFE3946A06812F0F9F80020034698
:10469000014600900222A06813F0BEF80121A06834
:1046A00013F0FAFD0021606812F0D8FAE06020787B
:1046B000C0070BD1204606F0DEFC38B101F072FDD8
:1046C00004F1240188802046AFF3008014490222BF
:1046D0002431E06812F026FCE06813F087FC014604
:1046E00010483C223C30FCF7C2F970680090BDF8DD
:1046F0000000A5F870000B4802253C300121C5865A
:1047000080F839100749E0683C3113F069FE0095E4
:10471000D4E9021000230D2213F07EF8F8BD00004A
:10472000D8010020542800204C020020C0BC010801
:10473000F8B5344C0021A06811F0FEFAE06013F0E7
:1047400055FC01463C223048FCF791F92E4D304E85
:104750002E48686230680090BDF800002884294621
:10476000E06813F03DFE04F124004169E06812F0B6
:1047700086F800200346014600900222E06813F00C
:104780004BF80121E06813F087FD0021A06812F0CA
:1047900065FA20612079C0070BD1201D06F06BFC63
:1047A00038B101F0FFFC04F11C018880201DAFF33B
:1047B0000080144902221C31206912F0B3FB2069E9
:1047C00013F014FC014610483C223C30FCF74FF932
:1047D00070680090BDF80000A5F870000A48022536
:1047E0003C300121C58680F83910074920693C31E9
:1047F00013F0F6FD0095D4E9031000230D2213F009
:104800000BF8F8BD580000207C2000204C0200204E
:1048100004BC0108F8B5334C0021206911F08CFA72
:10482000606113F0E3FB01463C222F48FCF71FF9BF
:104830002D4D2F4E2D48686230680090BDF8000065
:1048400028842946606913F0CBFD2AA1606912F023
:1048500016F800200346014600900222606912F01B
:10486000DBFF0121606913F017FD0021206912F0C0
:10487000F5F9A0612079C0070BD1201D06F0FBFBE4
:1048800038B101F08FFC04F13C018880201DAFF3AA
:104890000080144902223C31A06912F043FBA06958
:1048A00013F0A4FB014610483C223C30FCF7DFF833
:1048B00070680090BDF80000A5F870000A48022555
:1048C0003C300121C58680F839100749A0693C3188
:1048D00013F086FD0095D4E9051000230D2212F097
:1048E0009BFFF8BDDC0000203C2100204C02002092
:1048F0000CBC010854696D654366670070B50E4DC8
:1049000000246878A0B10C210C4806F03CF928B1CD
:104910000020687005F082F90120A870FBF71CFDEB
:10492000054615F005F86840FFF76BFC204670BDA2
:1049300005F04CFA0446F1E764030020902E0020B5
:104940002DE9FF47074680F0010602254FF00008D9
:104950001E4CDFF87C904FF0C80A32E016B1012EF1
:104960002CD115E027B1E06913F01CFB064600E0EE
:104970000026606B13F085FBCDE9006A0346CDE9A4
:104980000289144A1449606B01F0CCF8012615E045
:1049900027B1606A13F006FB064600E00026A06B14
:1049A00013F06FFBCDE9006A0B490346CDE902899C
:1049B000084A2431A06B01F0B5F80026C82003F0A6
:1049C000A7FA6D1ECAD2BDE8FF870000DC000020F8
:1049D0001DEE00080D840108682200202DE9FF5F0C
:1049E000054680F0010702264FF00008DFF8A89086
:1049F0004FF0C80A294C4AE017B1012F44D130E0EA
:104A000045B1606913F03DFB0746606913F0CAFACF
:104A1000384402E0A06813F0C5FA00F1140B606A94
:104A200013F02FFBCDE900BA0346CDE902894F46CA
:104A30001B4A1C49606A01F075F8606A13F0BEFAFF
:104A400003460DB1FF2200E00022CDE9002ACDE9A6
:104A500002871449144A2431606A01F063F801277F
:104A600012E0606913F0AAFA03460DB1FF2700E0D7
:104A70000027CDE9007A0B49CDE902890A4A48317D
:104A8000606901F04FF80027C82003F041FA761E54
:104A9000B2D2BDE8FF9F00001DEE000860010020BB
:104AA0000D840108C8250020CB820108F8B53C22FE
:104AB00037493848FBF7DBFF374D364E0821A868E9
:104AC0001C3E0090BDF80000A6F850003148334C61
:104AD000C18601210175E9680091BDF80010B1851A
:104AE0000A2141820021A0680AF0DCF9A06101F0EE
:104AF00059FB143807B201F055FB143801B23A469D
:104B0000A06913F02DFCB4221146A0690AF0C6FA80
:104B1000204A0021A0690AF0D6FA206913F0B1FA00
:104B2000002300901A461946A06912F075FE002174
:104B3000A06811F001F9606113F058FA01463C22B7
:104B400006F15800FBF793FF06F15801144848623C
:104B500028690090BDF80000A6F87800606913F09D
:104B60003FFC0020034602460090D4E9050112F004
:104B700053FE0121606913F08FFB0121606913F07E
:104B8000A8FB6069BDE8F840002113F09EBB00005F
:104B9000A43300208823002064BC01083C010020CD
:104BA000A402002010B5002001F024FD1D4804F0EF
:104BB00011FB00211B4804F0C7F90021194804F03B
:104BC0007FF901F0DDF901F0C9FA0021C82014F0E5
:104BD0006BFA14F017FB00F093FB012001F02EFAA2
:104BE000022002F0C9F9032002F05AF9042002F071
:104BF000FDFA052002F0D2FA062002F0A1F9072002
:104C000001F05EFC082001F0FBF9064801214C3060
:104C100003F031FB4FF47A70BDE81040014602F01A
:104C200067B900003C0600202DE9FF47054680F0EB
:104C3000010702264FF00008DFF894904FF0C80AF1
:104C4000244C40E017B1012F39D112E0206913F054
:104C5000B5F903460DB1FF2700E00027CDE9007A42
:104C6000CDE902891C4A1D49206900F05BFF01273C
:104C700025E0E06913F0A2F903464F460DB1FF228B
:104C800000E00022CDE9002ACDE902871349124A4B
:104C90002431E06900F046FF606A13F08FF90346A3
:104CA0000DB1FF2200E00022CDE9002ACDE9028704
:104CB0000A49094A4831606A00F034FF00274FF47E
:104CC000967003F025F9761EBCD2BDE8FF87000080
:104CD0001DEE0008A4010020CB820108AC270020B3
:104CE0002DE9FF5F071E02D04FF0000401E04FF0F6
:104CF000040401D0FF2500E00025DFF80081DFF883
:104D000000A104264FF000094FF0C80B052C55D226
:104D1000DFE804F003182B405C004446D8F810008C
:104D200013F04CF9CDE9005BCDE9029A0346354A10
:104D30003549206900F0F6FE4FF4967003F0E8F86C
:104D4000761E41D34446D8F81C0013F037F9CDE95C
:104D5000005BCDE9029A2C4903462A4A2431E069D6
:104D600000F0E0FE4FBB002428E04446D8F81400D1
:104D700013F024F9CDE9005BCDE9029A22490346FC
:104D8000204A4831606900F0CDFE0FB1032415E0E0
:104D9000012413E04446D8F8180013F00FF9CDE9C8
:104DA000005BCDE9029A18490346164A6C31A069A6
:104DB00000F0B8FE0FB1042400E002244FF4967016
:104DC00003F0A6F8761EA1D2BDE8FF9F4446D8F8AE
:104DD000200013F0F3F8CDE9005BCDE9029A0A490F
:104DE0000346084A9031206A00F09CFE4FF496700A
:104DF00003F08EF8761ECDD2E6E70000D801002041
:104E00001DEE0008CB8201080829002010B514F01F
:104E10009DF8BDE81040014803F0FCB98806002069
:104E20002DE9F041344D83B20A24EB80334E07E084
:104E3000641E092C02DA06EB44077A80002C05DD9B
:104E400006EB440232F8022C8242F1DB0A2C01DA32
:104E500026F814302889401C2881E8680844E86056
:104E60002878012808D14FF45071254806F007F83A
:104E70002449234805F093FE4FF4517000EB4400A1
:104E800081B21F4805F0FBFF274605E036F81710F2
:104E90001B4805F083FE7F1C0A2FF7DB2989184881
:104EA00005F07CFE1648E96805F079FE44F6EB0152
:104EB0005FF00000C21C36F81030401C03FB0211EA
:104EC00089B20A28F6DB288900EB800202EBC000D9
:104ED0000844E9680A0CC2EB0212C1EBC10102EB03
:104EE0004101084481B2064805F058FE02202870AE
:104EF000E0B2BDE8F08100006403002040320020F1
:104F0000902E00204F424E03064991F900201018C0
:104F100001D5052002E0052800D900200870C0B2A4
:104F200001F0A2BA5800002038B5524C0021606848
:104F30000AF02AFAE06113F059F801463C224E4883
:104F4000FBF795FD4C48002124380091BDF8002066
:104F500020F8262FBDF8001041804749FF22474D19
:104F60000A720122CA862A690092BDF80020428690
:104F7000434A4A6269690091BDF80010C1833E4905
:104F8000E06913F02DFA0121E06913F0A2F9002184
:104F9000E06913F09AF950225A21E06913F0E0F920
:104FA000142000900F230D222169E06912F034FCD7
:104FB0000021E0690BF0B7FA0221E0690BF0A4FAD6
:104FC000B221E0690BF07FFA0121E0690BF08CFA65
:104FD0007F21E0690BF066FA03220421E0690BF0FF
:104FE00025F964220021E0690BF046FAE06913F02C
:104FF0002BF881B2E0690BF0CDF93221E0690BF0BA
:1050000029F9FF221146E0690BF0A0FA01230222E0
:105010001CA1E0690BF0A2FAA969E0690AF086F91F
:10502000014620620022E0690BF096F800216068DA
:1050300010F082FE10496062A83113F0D1F915A179
:10504000606A11F01CFC0A20009043420D22E169C5
:10505000606A12F0E1FB0121606A13F01DF9012181
:10506000606A13F036F9606ABDE83840002113F039
:105070002CB90000A401002070270020A4BC010866
:10508000EC0300206D0A38300A36300A34300A3218
:10509000300A30002D6D0000F8B52A4CE169084651
:1050A0000BF046FC6063E06912F07CFF0546E069A6
:1050B00012F0CAFF01462A46606B13F051F9002630
:1050C0000096334632463146606B12F0A5FB616AAA
:1050D00008460BF02DFCA063606A12F063FF0546E2
:1050E000606A12F0B1FF01462A46A06B13F038F94E
:1050F000002300961A461946A06B12F08DFB606BD8
:1051000012F074FF01463C220F48FBF7B0FC0F4839
:10511000416900910C49BDF80020743921F8762FBF
:1051200080690090BDF8000048800749FF200872A0
:10513000606B13F055F9A06BBDE8F840024913F01D
:105140004FB90000DC000020B02200200CBC010898
:105150002DE9F843324C0021A0680BF0E9FB3149FE
:10516000606113F03DF901F033FA0546206912F051
:1051700088FF281A143802B24621606913F0F0F84B
:105180000A200090D4E9041000230D2212F044FB01
:10519000002160690BF0CCFB2249A06113F020F9DB
:1051A000606912F051FF01464FF4D272A06913F00A
:1051B000D7F8606912F0F6FE0146A06913F026F9EF
:1051C0000025A84604F124070021A0690FF074FF10
:1051D000064607EB051086600168304610F021FC9A
:1051E0000023022219463046CDF8008012F014FB4D
:1051F000304612F0D7FEC0F1320000EBD070C5EBA4
:10520000C501401001EB810100EB410001B23046C5
:1052100013F0FCF86D1C062DD6D3BDE8F883000012
:1052200058000020F03200202DE9F0411D4C1E49AD
:105230006422A06AB0FBF1F1B1FBF2F302FB131799
:105240004EF66021B0FBF1F13C22B1FBF2F302FB20
:1052500013164FF47A71B0FBF1F3B3FBF2F502FBD6
:105260001535B0FBF1F201FB1208A078411CA170CA
:10527000142810D929B2606912F0EDF93A460BA151
:10528000A06911F04FFB2B4632460AA1E06911F0EC
:1052900049FB0020A0704246206ABDE8F0410AA107
:1052A00011F040BB6001002080EE360025303264F2
:1052B0000000000025303264234646303030302074
:1052C0003A232530326400002E253033640000007C
:1052D0001FB5074A002303928DE80B000548064AD4
:1052E0000649B0F90030806900F01CFC1FBD0000C9
:1052F0001DEE00083C01002055710008EC22002042
:105300002DE9F84300252E46DFF86C80FEF772FF8A
:1053100000210BF00DFB08EB8514206001F058F91B
:10532000074600F03FFF01463A46206813F018F8A0
:10533000002300961A461946206812F06DFA20687C
:1053400033463246314600960BF07BFF201D3C224F
:105350000A49FBF78CFB0096BDF80000E080009640
:10536000BDF800002081211D206813F039F86D1C64
:10537000092DCBDBBDE8F8839C060020A433002078
:1053800038B5194C0021206910F0D6FC206212F0CB
:105390002DFE01463C221548FBF769FB13491448D2
:1053A0004862144840680090A1F15C00BDF800100C
:1053B000A0F87C100D49206A13F012F80121206A30
:1053C00011F04AFA0CA1206A11F073FA1E20002392
:1053D000009002221946206A12F01EFA206ABDE8E7
:1053E0003840012112F058BF180000206C1F002027
:1053F000D0020020B4BB01083031234646303030A3
:1054000030202F233031204D4F4E000038B5234C33
:105410000021606810F090FCE06112F0E7FD0146A9
:105420003C221F48FBF723FB1D491E4848621E48CB
:105430008068009001F10800BDF800100183184950
:10544000E06912F0CDFF19A1E06911F018FA6FF0D0
:105450000400009000230A226169E06912F0DCF97F
:105460000121E06912F035FF0021E06912F02DFF03
:10547000E169606810F060FC0949206212F0B0FF39
:105480000EA1206A11F0FBF90A20009000230D22E2
:10549000A169206A12F0C0F938BD0000D8010020CF
:1054A000CC28002078020020C0BC01082D204445F3
:1054B00056454C4F504552202D00000057617463F3
:1054C00068582076302E360A4D61722032332032F1
:1054D0003032300038B5214C002120690FF0ECFD4E
:1054E0001F49A06210F09DFA6FF013000090142382
:1054F00004220021A06A12F08FF90021206910F027
:105500001BFCE06212F072FD01463C221548FBF7DD
:10551000AEFA144914484862144840690090A1F159
:105520001000BDF8001001860E49E06A12F058FF25
:105530000121E06A11F090F90DA1E06A11F0B9F9CA
:10554000002003460090D4E90A10132212F064F9F7
:10555000E06ABDE83840012112F09EBE180000202C
:10556000783E03082020002020020020B4BB010860
:1055700023464630303030202F232031323535005D
:105580002DE9FE4FFFF7FCFE5B4C002120690BF07C
:10559000CFF95A49606212F023FF50228221606ADB
:1055A00012F0DEFE4FF00009CDF800904B464A465F
:1055B0004946606A12F030F93C2251495148FBF7E4
:1055C00056FA514EDFF83C810025B068A8F1180862
:1055D0000090BDF80010A8F81A10F1680091BDF80D
:1055E0000010A8F81C106FF0090B04F1380A002114
:1055F000606A11F043FA0746424912F0F1FE0A22AE
:105600000821384612F0ACFE002D73D00A2000238A
:1056100000901A461946384612F0FEF84AF82570EE
:105620006D1C022DE3D337483C2238493C30FBF750
:105630001EFA344936483C314F4648623069009082
:10564000BDF80010A8F87410D6E90601DFF8B480A0
:1056500000250DF1040908F1B408CDE9010100218C
:10566000606A10F069FB274906463C3112F0B8FE2B
:1056700028A1304611F01DF90097002239F91530A4
:105680001146304612F0C8F848F825606D1C042D0C
:10569000E5D3DFF8709000254FF00A0A09F1C4093C
:1056A0000021606A10F048FB164906463C3112F0B2
:1056B00097FE18A1304611F0FCF8CDF800A058F87C
:1056C000251000230D22304612F0A6F849F8256077
:1056D0006D1C042DE4D3C4F80570002303224FF49D
:1056E000FA710D4813F0A8FB206300F0DBF9BDE868
:1056F000FE8FFFE758468AE718000020F0320020AE
:1057000058340020A81F0020B4BB0108A433002097
:10571000A402002030000000A55A000838B53D4C16
:105720000021606910F008FBE06112F05FFC0146A7
:105730003C223948FBF79BF93749394D37484862D5
:1057400068690090A1F13400BDF80010A0F8541071
:105750003149E06912F044FE0121E06911F07CF862
:1057600030A1E06911F0A5F8002003460246014689
:105770000090E06912F050F80121E06912F08CFD10
:105780000021606910F0D8FAA06112F02FFC0146E8
:1057900021483C223C30FBF76AF91F4925483C313F
:1057A0004862A869009001F11000BDF80010018264
:1057B0001949A0693C3112F013FE1DA1A06911F036
:1057C00078F86FF002000090D4E9060100230A2265
:1057D00012F022F80121A06912F05EFD002160693B
:1057E00010F0AAFA0C4920623C3112F0F9FD12A126
:1057F000206A11F05EF803200090D4E9071000231E
:105800000D2212F009F8206ABDE83840012112F09B
:1058100043BD000060010020D824002020020020A9
:1058200078BC0108303023464630303030203A23EF
:10583000303000004C0200202E30303000000000DC
:1058400038B53C2225492648FBF711F925480A2599
:10585000254C816800912249BDF80020783921F853
:105860007A2FC2680092BDF800204A801C490122AC
:105870004D83CA860069009001F10800BDF8001050
:1058800081850021A06811F01FFD3B22002160618D
:1058900011F0A2FEB421606911F08FFE1F224FF4B7
:1058A000B471606911F0C3FE0D49606912F098FD92
:1058B00078221146606912F053FD0121606912F0EF
:1058C00008FD0021606912F000FD0095D4E9041084
:1058D00000230D2211F0A0FF38BD00005834002035
:1058E0009C24002078BC0108600100200148007859
:1058F00070470000FC0200200EB5022800D90020ED
:10590000084B0ECB8DE80E0007498B784A785DF87E
:10591000201005480C38C06A11F004F800F024F893
:105920000EBD000058BC0108E800002010B586B08C
:10593000032800D900200A4C0DF1040C1ECC8CE881
:105940001E0008498A7800924B780A7801A951F81C
:10595000201004480838006A10F0E4FF06B010BDBB
:1059600048BC0108E400002010B50C48FDF782FC9B
:105970000A480078401E40B2002801DA002002E008
:10598000062800DD06200549383151F8201003486B
:105990000C38006BBDE8104010F071BFE80000202B
:1059A00010B508B106A100E009A10B48C2780C3877
:1059B000806A10F0B7FFBDE81040FFF7D5BF0000C8
:1059C00023464630303030203230253032642300D8
:1059D0003230253032640000E80000202DE9FC411F
:1059E0001A4E0024A6F10C0556F8240020B31849DD
:1059F0006422B0FBF1F1B1FBF2F302FB13124EF69D
:105A00006021B0FBF1F13C27B1FBF7F307FB131367
:105A10004FF47A71B0FBF1FCBCFBF7FE07FB1EC72D
:105A2000B0FBF1FC01FB1C00CDE9007055F824002F
:105A300008A110F077FF04E055F824000AA110F047
:105A400038FF641C032CCFDBBDE8FC81402600201E
:105A500080EE3600253032643A253032643A253003
:105A600032642E25303364002D2D3A2D2D3A2D2D04
:105A70002E2D2D2D0000000010B5084C207838B9CF
:105A80000321074803F040F90028F9D001202070D5
:105A9000BDE81040024803F0F5B900000E000020F8
:105AA000BC05002010B588B000F05CFF154C2068E4
:105AB00011F0C4F8606811F0C1F8A4F12F010020C2
:105AC000FDF772FA1C22104901A8FAF7D0FFA4F1E1
:105AD0002F000178491E49B2002901DA002102E0B5
