:020000040800F2
:1000000018DC01208D03000895030008490300084F
:10001000990300089B0300089D03000800000000EE
:100020000000000000000000000000009F03000826
:10003000A103000800000000A3030008D135000858
:10004000A7030008A7030008A70300084D33000812
:10005000A7030008A703000831280008F5280008B6
:10006000192900083D29000861290008A703000894
:10007000A7030008A7030008A7030008A7030008B8
:10008000A7030008A7030008A7030008000000005A
:1000900000000000000000000000000085290008AA
:1000A000A7030008B1360008A7030008A70300084B
:1000B000FD3600082937000859370008A703000853
:1000C000A7030008A7030008A7030008A703000868
:1000D000A7030008914100089D41000800000000AE
:1000E000552800084D300008A70300080000000054
:1000F000000000000000000000000000A70300084E
:1001000000000000A703000889370008A7030008C3
:1001100000000000000000000000000000000000DF
:10012000A7030008A7030008A7030008612500082B
:10013000A70300080000000000000000000000000D
:10014000000000000000000000000000A7030008FD
:10015000A7030008A7030008A7030008A7030008D7
:10016000A7030008A703000800000000000000002B
:10017000000000000000000000000000000000007F
:1001800000000000A70300080000000000000000BD
:10019000A7030008A703000800F002F800F0BDF86C
:1001A0000AA090E8000C82448344AAF10107DA45D2
:1001B00001D100F0B2F8AFF2090EBAE80F0013F067
:1001C000010F18BFFB1A43F0010318472CED05007F
:1001D0004CED05000A444FF0000C10F8013B13F001
:1001E000070408BF10F8014B1D1108BF10F8015B90
:1001F000641E05D010F8016B641E01F8016BF9D183
:1002000013F0080F1EBF10F8014BAD1C0C1B09D1D9
:100210006D1E58BF01F801CBFAD505E014F8016B4B
:1002200001F8016B6D1EF9D59142D6D370470000DD
:100230000023002400250026103A28BF78C1FBD8EF
:10024000520728BF30C148BF0B6070476E2900F0CD
:100250000C86702900F07F8266291BF0B98265291F
:100260001BF0B68267291BF0B3826129AFF30080CF
:1002700003681B0A28BF41F08001692900F0F08162
:10028000642900F0ED81752900F0EA816F2901F001
:10029000F280782900F04B82E92901F08D80E42971
:1002A00001F08A80F52901F08780EF2901F0EF80C5
:1002B000F82900F04A820368DB0928BF41F0800179
:1002C000632901F0C781732901F0CC81E32901F092
:1002D000D781F32901F0DC81002070471FB51BF0A6
:1002E00072FA9DE8030000F0EBFC00F018FB00F050
:1002F000BFFC0400002000211AF086FC401C606056
:10030000002000211AF096FCE06000F09BFC1FBD6D
:1003100010B5002001F0C6F810BD01F0B0FA11468A
:10032000FFF7DCFF19F00CFD01F0D2FA03B4FFF780
:10033000EFFF03BC01F09CFAEFF308807047EFF386
:100340000980704768467047704669460DF058F955
:100350001AF084FBFEE700000B49D1F800C04A68A0
:100360005CF8043B1068184442F8040B8C4528BF25
:10037000A1F1DC0C8A4228BFA1F1DC02C1F800C067
:100380004A6020F000407047B0CB01200948804708
:1003900009480047FEE7FEE7FEE7FEE7FEE7FEE767
:1003A000FEE7FEE7FEE7FEE704480549054A064B7F
:1003B00070470000553600089901000818CC01204C
:1003C00018DC012018D4012018D4012010B500F049
:1003D0004FFC001D10BD00BF31A8010070B50646DE
:1003E00000F042FC056806F10B0020F00704B4425F
:1003F0009CBF002070BD2B466A68BAB11068A0424D
:1004000010D304F1080188423CBF5068586007D3FC
:100410005168101941601168091B0160586014602F
:10042000101D70BD13465268002AE7D121462846A8
:1004300000F032FC0028DED170BD70B50446051F07
:1004400000F012FC0068002C14BF446870BD002C42
:1004500018BFAC423CBF20466468F8D301680A1854
:10046000AA4218BF456003D12A68054611440160BD
:1004700028684119A1421CBF6C6070BD6168696049
:1004800021680844286070BD53EA020C00F06980BE
:100490002DE9F04B4FF00006002B1FBFB3FA83F598
:1004A00003FA05F424FA05F65E4012BF1643B2FAC9
:1004B00082F502FA05F4C5F120051EBF22FA05FCFB
:1004C00044EA0C04203556EA044C4FEA144418BFA1
:1004D000641C4FF000084FF00009904271EB030CD0
:1004E00039D3002919BFB1FA81F701FA07F6B0FA3A
:1004F00080F700FA07F6C7F120071EBF20FA07FCB5
:1005000046EA0C062037B6FBF4FCA7EB0507103FC4
:1005100007F01F0BCBF120060CFA0BFB2CFA06F6AA
:1005200044BFB3460026202FA4BF5E464FF0000B09
:100530005BEA060C08BF4FF0010B19EB0B09ABFB94
:10054000027C48EB0608C01B06FB02CC0BFB03CC6D
:1005500071EB0C01C1E70B46024641464846BDE837
:10056000F08B13B54FF000004FF00001AFF30080A7
:10057000BDE81C40704700007CB51D4616460C00C7
:10058000009001D02044401E074B7B442A46694618
:100590000190304600F091FE05461CB100206946EE
:1005A00000F09EFE28467CBD5D0D00000FB41CB51A
:1005B000084B06AA7B4469460090059800F07DFE32
:1005C00004460020694600F08BFE20461CBC5DF806
:1005D00014FB0000290D00000FB47CB50C0009AA23
:1005E000009001D02044401E084B7B446946019096
:1005F000089800F062FE05461CB10020694600F034
:100600006FFE28467CBC5DF814FB0000FD0C00006A
:1006100070B5044685690068C10601D5302600E042
:100620002026C00707D070BDD4E90121304690478D
:10063000206A401C20626D1EF6D570BD70B5044660
:1006400085690078C00707D170BDD4E90121202059
:100650009047206A401C20626D1EF6D570BD0000D8
:100660002DE9F0410646002410687529314616A58B
:1006700010D000F066FB002802DA404213A507E024
:1006800031688A0701D512A502E0490704D511A5F2
:10069000012401E000F05EFB00210A2206F124079C
:1006A00009E0B0FBF2FCB0FBF2F302FB1C003030BF
:1006B00078541846491C0028F3D123462A46304670
:1006C000BDE8F04100F078BB000000002D00000004
:1006D0002B00000020000000F0B40D460188090541
:1006E00002D5214C7C4402E01F4C7C440E34002196
:1006F00000F1240608E002F00F071209E75D42EA64
:1007000003721B097754491C52EA0307F3D102789C
:100710000023120704D5702D06D009B1022311342D
:100720002246F0BC00F048BB01231034F8E770B556
:1007300004460D462146106800F00CFB024629468F
:100740002046BDE870400023C6E7D21D22F0070313
:10075000D3E90023C0E70368126843F02003036075
:100760000823C3610023B7E764DD05002DE9F05FCE
:10077000894604464FF0000ADFF874B1FB44C0F824
:1007800020A02046E1688847002874D0252806D09C
:10079000D4E901219047206A401C2062F1E700263D
:1007A0005F462046E16888472028054607DB312D53
:1007B00005D2781910F8200C08B10643F1E7B0070C
:1007C00001D526F00406C4F81CA00027C4F818A020
:1007D0002A2D09D028460BF008FE38B304EB870811
:1007E000303DC8F8185019E059F8041B204604EBB6
:1007F00087029161E1688847012F054618D1E069B9
:10080000002820DA26F020061DE0D8F8180000EBBA
:10081000800005EB40003038C8F818002046E16839
:10082000884705460BF0E1FD0028EED1012F0AD0E4
:100830002E2D08D12046E16888477F1C0546022FEF
:1008400046F02006C4DBA069002803DA404246F0E7
:100850000106A061F00701D026F010066C2D0BD028
:10086000682D09D04C2D39D06A2D35D0742D35D056
:100870007A2D33D016E038E0E1682F4620468847CD
:10088000B842054609D16C2F26D04FF48060E1684C
:10089000064320468847054604E06C2F1AD04FF4E3
:1008A000807006430DB3A5F14100192802D8203508
:1008B00046F400664A462946204626604E46FFF723
:1008C000C5FC80B101280BD0F61D26F0070000F111
:1008D000080956E74020E4E78020D8E70020D6E763
:1008E00006F104094DE7284652E7206ABDE8F09F6B
:1008F000F4DC05000B4910B5A1F17C020A4CC2E9F9
:100900003712372106E000EB104342F82130074B45
:1009100000FB03400B1EA1F10101F4DC10BD01201E
:10092000E8E7000050CB0120E119D666CD0D0100AB
:100930002DE9F041074615460E461020FFF74EFD03
:1009400004000AD06760C4E9026500F099F9016803
:10095000216004600020BDE8F0810120FBE740EA4F
:100960000103024630B59B0710D14FF0013400E07F
:1009700008C208C91D1B9D4315EAC41FF8D013F017
:10098000FF0102F8011B0DD01B0AF8E711F8013B2B
:10099000002B02F8013B05D011F8013B002B02F8B7
:1009A000013BF3D130BD10B5431C02E010F8011B30
:1009B00071B18107FAD14FF0013202C88C1A8C4311
:1009C00014EAC211F9D0C01A0A0603D0C01E10BD25
:1009D000C01A10BD0A0401D0801E10BD0902FCD04F
:1009E000401E10BD032A40F2308010F0030C00F0CE
:1009F000158011F8013BBCF1020F624498BF11F859
:100A000001CB00F8013B38BF11F8013BA2F1040211
:100A100098BF00F801CB38BF00F8013B11F0030389
:100A200000F02580083AC0F0088051F8043B083AED
:100A300051F804CBA0E80810F5E7121D5CBF51F88F
:100A4000043B40F8043BAFF30080D20724BF11F809
:100A5000013B11F801CB48BF11F8012B24BF00F86E
:100A6000013B00F801CB48BF00F8012B704710B5DF
:100A7000203AC0F00B80B1E81850203AA0E8185096
:100A8000B1E81850A0E81850BFF4F5AF5FEA027C57
:100A900024BFB1E81850A0E8185044BF18C918C0C6
:100AA000BDE810405FEA827C24BF51F8043B40F867
:100AB000043B08BF7047D20728BF31F8023B48BF4C
:100AC00011F8012B28BF20F8023B48BF00F8012B8A
:100AD00070474FF000020429C0F0128010F0030CA0
:100AE00000F01B80CCF1040CBCF1020F18BF00F821
:100AF000012BA8BF20F8022BA1EB0C0100F00DB8D0
:100B00005FEAC17C24BF00F8012B00F8012B48BF2D
:100B100000F8012B70474FF0000200B513469446D1
:100B20009646203922BFA0E80C50A0E80C50B1F145
:100B30002001BFF4F7AF090728BFA0E80C5048BF59
:100B40000CC05DF804EB890028BF40F8042B08BFF7
:100B5000704748BF20F8022B11F0804F18BF00F8F3
:100B6000012B704710B5044610F0030F08BF11F0B9
:100B7000030F40F015804FF0013E121FC0F20E80AF
:100B800051F8043BA3EB0E0C2CEA030C1CEACE1C20
:100B900008BF40F8043BF0D0A1F1040102F10402C7
:100BA000521E08DB11F8013B002B00F8013BF7D186
:100BB0001146FFF78EFF204610BD00004FF0013CAC
:100BC00050F8042B51F8043B9A4221D1A2EB0C03BC
:100BD000934313EACC1317D150F8042B51F8043B7C
:100BE0009A4215D1A2EB0C03934313EACC130BD119
:100BF00050F8042B51F8043B9A4209D1A2EB0C03A4
:100C0000934313EACC13DBD04FF00000704700BFD2
:100C1000D01A01BAB1FA81F101F0180122FA01F0FB
:100C2000CB40C1F12001DBB2C0B2C01A2CFA01F3F3
:100C3000D11A914311EAC311E6D17047704770474A
:100C40007047000070B5064C7C44064D7D4403E0BF
:100C5000206820448047241DAC42F9D170BD0000BB
:100C6000F8E305001CE4050000487047C0CB0120F4
:100C700000487047D8CB012000487047ECCB0120DA
:100C800000487047F0CB012000487047B8CB0120E6
:100C9000704770477047704738B504460A460020D1
:100CA0006946AFF30080002808BF38BD02460099AE
:100CB000204600F025FC012038BD012000F083BD56
:100CC000F8B5AFF30080054600200C46102000BFA9
:100CD0000646A819A0420DD9324669460020AFF356
:100CE0000080070008BF00F06EFD0098A04218BF0A
:100CF0000546C419FFF7B8FF05600746F01D20F050
:100D000007004619284600F00AF8B44208BFF8BDAB
:100D1000A21B31463868BDE8F84000F0F1BB002165
:100D20000160C0E9011070471020704710B5FFF74F
:100D3000ABFF006810BD10B50446FFF7A5FF0460C7
:100D400010BD09684A0501D540B27047C905FCD5F8
:100D500000B2704709684A0501D5C0B27047C9059D
:100D6000FCD580B2704770B50C460546012A05D007
:100D70002878800600D5EA69002302E0012305E017
:100D80005B1C934202D2E05C0028F9D1A869E61806
:100D9000C01AA861286A184428622846FFF738FC60
:100DA00004E0D5E9012114F8010B9047B442F8D3CF
:100DB0002846FFF743FC70BD2DE9F0470D469946E4
:100DC0009246044600F124080168880604D5E069CB
:100DD00021F01001216000E00120A84201DD471B45
:100DE00000E00027A1697A1902EB0900081AA06146
:100DF0002078C00602D42046FFF70AFC002608E04F
:100E0000D4E901211AF806009047206A401C761C9C
:100E100020624E45F4DB2078C0060AD52046FFF755
:100E2000F7FB06E0D4E9012130209047206A401CFE
:100E30002062381EA7F10107F4DC07E0D4E90121A4
:100E400018F805009047206A401C2062281EA5F172
:100E50000105F3DC2046FFF7F1FB2078000602D500
:100E60000220BDE8F0870120FBE711680268006AF4
:100E7000530501D508700AE0D30501D5088006E0C6
:100E8000130603D5C217C1E9000200E00860012083
:100E9000704770472DE9FF4F0C461E464FF0FF3755
:100EA0008BB0D2E90001DDF860800A908A46C1F378
:100EB0000A5505B93D46002108464FF00000BAF139
:100EC000000F00F4400005DA00EB80004FF4400111
:100ED00001EA50004FEA9059B9F1010F00DDB9461F
:100EE0000A9850EA4A000ED044F61050A5F2FF3599
:100EF00045432F14B8F1000F1ED07542291E1EDD88
:100F0000C9F100021CE0B8F1010F4FF0000001D060
:100F1000302103E0F24305E02154401CB042FBDBEA
:100F200030460022002121540B99C1F80880C1E904
:100F300000200FB0BDE8F08FBD1B6D1CDEE74A46F8
:100F400000DA694206A800F0A7FB06AB93E80700A9
:100F500003AB83E8070050460A9900F053FD8DE883
:100F60000700A0F500501F3800900398002D0ADDFF
:100F700042F21F014A460844002303A90390684631
:100F800000F0BCFF09E0A0F500504A461F380023DE
:100F900003A90390684600F0C6FF8DE8070000042F
:100FA000000C03D04FF0FF30410800E01046B8F1CC
:100FB000000F03D00022009215461EE0751E05D4D6
:100FC00000F0B8FA303262556D1EF9D5B3460122F1
:100FD000084302D000227F1C04E02078302801D191
:100FE00000227F1E002A099784D01DE0112D07DA08
:100FF00000F0A0FA303262556D1C50EA0102F5D1C2
:10100000084302D00098C8B10EE00021681E05E038
:10101000235C625C63542254401E491C8142F7DB0E
:10102000AB46A81B401E0990002004F80B000B984B
:10103000099AC0F80880C0E9002B7AE711264FF022
:10104000000857E72DE9F04F88460446D21D22F0EC
:10105000070191B0D1E90001CDE90A010AF0C6F912
:1010600002460B98C00F01D02D2007E020688107B1
:1010700001D52B2002E0202101EAC000032A0990BB
:1010800001D0072A05DB03464146204600F098FAC6
:101090000BE12078800601D5E06900E00620B8F178
:1010A000650F814606D0B8F1660F18D0B8F1670F0A
:1010B00070D131E00020B9F1110F009001DB112354
:1010C00001E009F101030AAA01A90CA8FFF7E2FE59
:1010D000DDE90C70002609F10105834647E0012097
:1010E0004B4600904FF000470AAA01A90CA8FFF751
:1010F000D1FEDDE90DB00C995D46002610B909F16D
:1011000001000D18B9EB050003D4C0F1FF3609F159
:101110000105A5EB09002BE0B9F1010F01DA4FF051
:1011200001090020B9F1110F0090484601DD11239B
:1011300000E003460AAA01A90CA8FFF7ABFEDDE90F
:101140000C704D4600268346207800070AD4AB4534
:1011500000DA5D4601A8012D04DD411911F8011CDA
:10116000302907D04F4502DA17F1040F04DA0120C5
:1011700082460FE06D1EEEE7002F02DCED1B3E44C1
:1011800003E0781CA84200DD7D1CB81B00F1010AB9
:101190004FF000472078000703D4AA4501DB4FF049
:1011A000FF3A0021B7F1004F0DF143088DF84310CD
:1011B00024D002202B23002F01DA7F422D230A2185
:1011C000021EA0F1010000DC5FB197FBF1FC97FB70
:1011D000F1F201FB1C7C17460CF1300C08F801CD34
:1011E000EEE7A8F1010003702188090501D545212A
:1011F00000E06521A0F1010800F8011C09980FA981
:10120000A1EB0807FF1D00B10120411901EBEA70B5
:10121000A1693844081A401EA0612078C00602D493
:101220002046FFF7F5F9099828B1D4E90121904744
:10123000206A401C20622078C00622D52046FFF795
:10124000E7F91EE0002E04DBB34502DD01A8805D56
:1012500000E03020D4E901219047206A401C206240
:10126000761CAAF101005FEA000A0AD1FFF700FD2F
:10127000C0680168405CD4E901219047206A401CA5
:101280002062281EA5F10105DCDC07E0D4E901217C
:1012900018F8010B9047206A401C2062381EA7F105
:1012A0000107F3DC2046FFF7C9F9032011B041E63E
:1012B00001694A1C02610878704700B58FB0CDE91A
:1012C00001310021059105497944CDE9031011460A
:1012D0006846FFF74BFA0FB000BD0000E5FFFFFFC7
:1012E0000A6802F8010B0A607047D1E900239A42AC
:1012F00002D2531C0B601070704700002DE9FF5F95
:1013000015468A460446DFF8AC80F8440027D8E941
:1013100000103E46CDE9001010E03AF816106A467B
:1013200002A800F02BFA411C07D02178890603D5CA
:10133000E269391891420DD80744761C207880065E
:1013400002D5E069B84205DDAE42E6DB3AF81600A8
:101350000028E2D1A069C01BA0612046FFF758F920
:10136000D8E90010CDE90010002017E03AF8181075
:101370006A4602A800F002FAB0F1FF3F81460BD0A6
:1013800000250DF1080B05E0D4E901211BF805004B
:1013900090476D1C4D45F7D308F10100B0428046DF
:1013A000E4DB206A384420622046FFF747F9BDE8B5
:1013B000FF9F0000BAD205002DE9F0418046D21D02
:1013C00022F007020025D2E90002F52915A614D063
:1013D000011E72F1000106DA0023D0EB030063EB7B
:1013E000020211A608E0D8F800108B0701D50FA65D
:1013F00002E0490701D50EA601251146002408F197
:10140000240704E000F096F830323A55641C50EAA4
:101410000102F7D12B46324621464046BDE8F04155
:10142000FFF7CABC000000002D0000002B000000E8
:101430002000000030B4002100F1240408E002F094
:101440000705D208303542EA4372DB086554491C6F
:1014500052EA0305F3D10468002310A2250707D53B
:10146000A40600D421B1C46901230DA2641EC46185
:1014700030BCFFF7A1BC10B5044621461068FFF749
:1014800069FC02462046BDE810400023D2E7D21D89
:1014900022F00701D1E90023CCE7000000000000A2
:1014A000300000002DE9F0410646FFF7E9FB8046D9
:1014B000454613E016B1E068B0420ED120682860BE
:1014C000D4E90101D8F8007088472046FEF7B5FF3F
:1014D000D8F80000B842EBD100E025462C68002C7B
:1014E000E8D1BDE8F08110B500F074F9BDE8104016
:1014F00000F064B900F086B900487047B8CB01200D
:10150000034640688C46002818BF88423CBF03460B
:101510004068F8D318681844884207D00CF10300DB
:1015200020F00700001D411A521A0146081D0A60EA
:10153000FEF783BF30B5B0F10A024FEA900E71F1A9
:1015400000034EEA817EB0EB0E0061EB91014FEAA1
:10155000101E4EEA017E10EB0E0041EB11114FEA16
:10156000102E4EEA016E10EB0E0041EB11214FEAF6
:10157000104E4EEA014E10EB0E0041EB11414018A7
:1015800041F100014FEAD00040EA41704FEAD10139
:1015900010EB80054FEA810444EA907444EB0104A7
:1015A0006D1944EB0404521BA3414FF0000348BFE4
:1015B0000A3200D530BD401C41F1000130BD0000B1
:1015C0002DE9F0411F46044603260168072A01F46D
:1015D000006004DB08B116A505E016A503E008B11C
:1015E00015A500E015A521F010002060A069C01E1F
:1015F000A0610FB1401EA0612046FFF709F84FB16E
:10160000D4E9012138469047206A401C2062C01C62
:10161000206206E0206AFAE7D4E9012115F8010BFF
:101620009047761EF8D22046FFF708F8BDE8F08113
:101630004E414E006E616E00494E4600696E660076
:1016400010B5436913B1AFF3008001E0FFF78BFBE6
:10165000012010BD127800F124010A7000224A70A6
:101660000122EDE711684FF0FF32E9E710B5436959
:1016700013B1AFF3008001E0FFF740FE012010BD81
:10168000128800F1240182840022C2840122EDE745
:1016900011684FF0FF32E9E72DE9F0478146164621
:1016A0008AB0354878440DC88DE80D00324878443A
:1016B000801C03AC0DC884E80D0041F69B30084443
:1016C000372190FBF1F290FBF1F5A5F1800501FBCC
:1016D00012041B3C02D56442012000E00020DFF828
:1016E00098A080460027FA44AAF1BE0A0EE0E0075F
:1016F0000AD03246684607EB470101230AEB810115
:1017000000F011FC8DE8070064107F1C002CEED166
:10171000194F7F44AE3F19E0E80715D007EB0410DE
:101720000DF1180A90E80E008AE80E00C068F04239
:1017300001D1981908903246012306A903A800F0A8
:10174000F2FB03AB83E807006D10641C002DE3D1AE
:101750004FF0010332466946B8F1000F03A802D0EA
:1017600000F0CCFB01E000F0DEFBC9E90001C9F8A4
:1017700008200AB0BDE8F087A4CF050070B5164672
:101780000C460546FEF722FE036893F80101012886
:1017900006D0FF2C0FD8185D68B101202C7070BDE9
:1017A000D3F807013246214603F2071303442846C3
:1017B000BDE8704018474FF0FF3070BD002801D0E1
:1017C00000F056B8704710B500F0B0F8BDE8104012
:1017D000FFF7F4BF10B5002102A000F08DF8012042
:1017E00010BD00005349475056464E3A205075727E
:1017F00065207669727475616C20666E2063616C19
:101800006C65640010B500F00EF8016919B1002292
:101810000261884701E08068804700F062F80000BC
:1018200010B500F05EF870B500F04EF8046805469B
:10183000A4B92020FEF7D2FD040011D009490020F0
:101840002C60C4E900010849A16020732061606137
:101850000649A06109B100F091F8E061204670BD31
:1018600000F03FF800000000211800080000000010
:1018700001491820ABBEFEE72600020070477546FE
:10188000FFF73AFEAE4605006946534620F00700D2
:10189000854618B020B5FEF787FDBDE820404FF023
:1018A00000064FF000074FF000084FF0000B21F04A
:1018B0000701AC46ACE8C009ACE8C009ACE8C00917
:1018C000ACE8C0098D46704700487047F4CB012052
:1018D00010B50446AFF300802046BDE81040FEF787
:1018E00025BD10B5002000F06EF8FEF711FDBDE833
:1018F00010400120FFF7BCBF70B505460C460A201A
:1019000000E06D1C00F058F835B128780028F8D1B7
:1019100002E0641C00F050F814B120780028F8D1DF
:10192000BDE870400A2000F047B8000010B501285B
:1019300005D0002103A0FFF7DFFF012010BD09A1A2
:10194000F8E7000053494752544D454D3A204F7532
:1019500074206F662068656170206D656D6F7279A7
:10196000000000003A2048656170206D656D6F725F
:101970007920636F727275707465640010B5882089
:10198000FEF72CFD002801D00021017010BD802938
:1019900002D808B1017809B100207047012100F890
:1019A000081B704718B100F10802914201D00020D5
:1019B000704700210170704708B569468DF8000036
:1019C0000320ABBE08BD10B500F004F8BDE8104020
:1019D000FFF7F4BE10B5002102A0FFF78DFF012034
:1019E00010BD0000534947414252543A2041626EB3
:1019F0006F726D616C207465726D696E6174696F70
:101A00006E0000005FEA400C08BF91F0000F4FEA43
:101A10008C234FEAC12243EA51514FEA1C5018BFB0
:101A200000F5F0404FEA300018BF41F000415FEA96
:101A30006C5C00F02980BCF1FF3F08BF40F08040A3
:101A40007047130C06BF12044FF0100C4FF0000C3F
:101A5000130E04BF12020CF1080C130F04BF120185
:101A60000CF1040C930F04BF92000CF1020CD30F85
:101A700004BF52000CF1010C11464FF00002A0F11E
:101A80001F00A0EB0C00704711F0004F08BF70471B
:101A900031F000413FF4D5AF0B0C06BF09044FF005
:101AA000100C4FF0000C0B0E04BF09020CF1080CD7
:101AB0000B0F04BF09010CF1040C8B0F04BF89004C
:101AC0000CF1020CCB0F04BF49000CF1010CCCF15E
:101AD0002003A0EB0C0022FA03F302FA0CF241EA15
:101AE000030100F10100704720F07F4C80EA030001
:101AF00023F07F47ACEB070303F57C5300F0004075
:101B000003F1FF032DE980494FEA154B09B44FEA71
:101B1000144325EA0B4E24EA03480FF2042606EB91
:101B2000132749083E785FEA320203FB0667C7F5D0
:101B3000000707FB06F64FEA54374FEAD64606F190
:101B4000020607FB066CCCF1005C4FEA1C472CEA4E
:101B5000074C07FB06F40CFB06F504EB15464FEAB1
:101B6000961634BF00204FF000404FEAD13706FBF5
:101B700007FC4FEA1C4C0CFB0BF7D21B03FB0CF7CA
:101B800061EB07010CFB0EF7B0EB074072EB17425D
:101B90000CFB08F734BFA2EB0742B2EB074261EB44
:101BA00017414FEA0C444FEA910706FB07FC4FEA46
:101BB0001C4C0CFB0BF7B0EBC74072EB573203FB2E
:101BC0000CF734BFA2EBC742B2EBC74261EB57310F
:101BD0000CFB0EF7B0EBC70072EB57720CFB08F76B
:101BE00034BFA2EBC702B2EBC70261EB5771039F90
:101BF0004FEA816141EA921104EBCC044FEAD137FC
:101C00004FEA826206FB07FC42EA90124FEA8060CC
:101C10004FEA1C4C0CFB0BF7D21B03FB0CF761EBE0
:101C200007010CFB0EF7B0EB074072EB17420CFB01
:101C300008F734BFA2EB0742B2EB074261EB174152
:101C40004FEA8C554FEA910704EB9C2406FB07FCF6
:101C50004FEA1C4C0CFB0BF7B0EBC74072EB573252
:101C600003FB0CF734BFA2EBC742B2EBC74261EBF8
:101C700057310CFB0EF7B0EBC70072EB57720CFB41
:101C800008F734BFA2EBC702B2EBC70261EB577192
:101C900015EB4C254FEA816141EA92114FEA8262CD
:101CA0004FEAD13742EA901206FB07FC44F10004E8
:101CB0004FEA80604FEA1C4C0CFB0BF7D21B03FB76
:101CC0000CF761EB07010CFB0EF7B0EB074072EB72
:101CD00017420CFB08F734BFA2EB0742B2EB0742F6
:101CE00061EB174115EB1C154FEA813141EA924136
:101CF0004FEA823242EA90424FEA80304FEA0C7655
:101D000044F1000448EA03434EEA0B484FF0000E4A
:101D1000B2EB080C71EB030724BF624639464EEB69
:101D20000E0E4FF0000B0018524149414BEB0B0BCC
:101D3000B2EB080C71EB03077BF1000B24BF62468A
:101D400039464EEB0E0E4FF0000B00185241494140
:101D50004BEB0B0BB2EB080C71EB03077BF1000BA9
:101D600024BF624639464EEB0E0E51EA020718BFF9
:101D700046F0010616EB0E7655F1000254F1000113
:101D800003D5BDE88901BDE80088BDE88901BDE84B
:101D90000048B619524141EB0101A3F1010370471C
:101DA00080807F7E7D7C7B7A797877767675747398
:101DB000727171706F6E6E6D6C6C6B6A6A69686857
:101DC000676666656464636362616160605F5F5EED
:101DD0005E5D5D5C5C5B5B5A5A5959585857575663
:101DE00056555555545453535252525151505050C8
:101DF0004F4F4F4E4E4D4D4D4C4C4C4B4B4B4A4A1A
:101E00004A4949494848484747474746464645455D
:101E10004544444444434343434242424241414196
:101E2000002B9C4630D477002BD01CB54FEA3707E7
:101E300003B44FF010004FF01001BAF1000F06D0BC
:101E4000BCF1000FDCBF40F0080040F008014FF08B
:101E500000000FBCBDE810400BF1010BBBF1010FFE
:101E600008BF5FEA170722BF12F1010211F1010159
:101E70004FF0004143F1000300F0004043EA00004E
:101E80007047F9D35708D0E746EA064613F1400FEA
:101E90004FEA16461FDD13F1200FDFBF16430A4637
:101EA000002120335B42BED0C3F1200746EA06463C
:101EB00002FA07F74FEA164646EA0706C3F120077B
:101EC00022FA03F201FA07F721FA03F14FF00003B7
:101ED00042EA0702A7E746EA020646EA06464FEA52
:101EE000164646EA0106BCBF46EA0646360C4FF0E7
:101EF00000034FF000024FF0000194E72DE9804C01
:101F00009A46934670B491E8380007C831EA400C0D
:101F100048BF34EA430C03D5FFF7E6FDFFF780FF27
:101F2000F0BCBDE8008C2DE9804C9A46934670B415
:101F300091E8380007C810F0804F08BF13F0804FB9
:101F400003D100F005F8FFF76BFFF0BCBDE8008C93
:101F500020F07F4780EA030023F07F4C07EB0C035F
:101F6000A3F57C5300F00040A3F1FE0392F0000FB4
:101F700000F0B38095F0000F00F077802DE9014963
:101F80004FEA11404FEA144621EA004800FB06FCE4
:101F900024EA064708FB06F607FB08F800FB07F7EC
:101FA00018EB06484CEB164C4FEA124B18EB07485F
:101FB0004FEA15464CEB174022EA0B4E0BFB06FC92
:101FC00025EA06470EFB06F607FB0EFE0BFB07F79E
:101FD0001EEB064E4CEB164C4FF000061EEB074E68
:101FE0004CEB174B18EB0B0840F1000018EB0E0BF5
:101FF00058EB000840F100008F1A4FF000013CBF81
:10200000C943661B14BFB5EB040C00213CBFC94398
:10201000F61B4FEA17444EEA8E0E27EA04454FEAB4
:102020001C4704FB07622CEA074C05FB07F70CFB77
:1020300005F604FB0CFC16EB074642EB174216EBC9
:102040000C4642EB1C421BEB060658EB02024141D8
:1020500046EA9E0601D5BDE80189B619524141EB19
:102060000101A3F10103BDE801894FEA14454FEADC
:10207000114724EA054621EA074C05FB07F406FB55
:1020800007F70CFB06F105FB0CFC11EB074144EBD9
:1020900017444FEA124711EB0C4144EB1C4422EA6F
:1020A000074C05FB07F206FB07F70CFB06F605FBE2
:1020B0000CFC16EB074642EB174216EB0C4642EBC4
:1020C0001C456A1854F1000148BF7047B6195241C7
:1020D00041EB0101A3F10103704795F0000F37D0E8
:1020E0004FEA11424FEA144721EA024624EA074C1C
:1020F00002FB07F106FB07F70CFB06F402FB0CFCE6
:1021000014EB074441EB17414FEA154714EB0C441D
:1021100041EB1C4125EA074C02FB07F506FB07F7DC
:102120000CFB06F602FB0CFC16EB074645EB1745CD
:1021300016EB0C4645EB1C42121951F1000148BF49
:102140007047B619524141EB0101A3F101037047F9
:102150004FEA14454FEA114724EA054621EA074CA5
:1021600005FB07F106FB07F70CFB06F24FF0000634
:1021700005FB0CFC12EB074241EB174112EB0C4242
:1021800051EB1C4148BF7047921841EB0101A3F18C
:10219000010370470029816802D041F0010101E08C
:1021A00021F0010181607047084B10B5D3F804237A
:1021B00007490A40D0E900142143D0E90240044312
:1021C00021431143C3F8041310BD00000020014057
:1021D000E030FCFF0029816802D041F4807101E009
:1021E00021F48071816070470029816802D041F438
:1021F000007101E021F400718160704710B5194C45
:1022000090B0204600F0EEF90121880500F09CFE18
:10221000204600F079FA0028FAD113480021CDE9D0
:1022200000101248CDE9020111480078CDE90401FF
:102230004FF48060069040000790800008900001F5
:102240000A90401209900120CDE90B100D910E91DA
:102250006946204600F0A0FA0121204600F0B8F9B6
:1022600010B010BD106402404C20014004C9012090
:10227000A804002010B518B3012821D002281FD0CF
:1022800003281DD004281BD0052819D0062817D0F4
:10229000072815D0082813D0092811D00A280FD0F4
:1022A0000B280DD00C280BD00D2809D00E2807D0F4
:1022B0000F2805D0102803D0112801D0122807D1EB
:1022C00000F0B4F8411C03D0024931F8100010BDF1
:1022D000002010BD04C901202DE9F04101218AB080
:1022E000080200F055FEFFF789FF00F0B7F8002460
:1022F0004FF40030CDE906404FF470600990089427
:1023000006A8FFF751FF01201C4E8DF80400009431
:102310008DF80500029404943078194D8DF814005E
:102320006946284600F0A6F801212846FFF732FF4B
:10233000A846144F0FE0651CEAB217F814100723E3
:10234000404600F0BDF837F81400122802D10120F1
:1023500000F0F6F8ACB230788442ECD30121444668
:102360004046FFF741FF01212046FFF733FF20469B
:1023700000F0E0F80AB0BDE8F0810000A8040020F9
:1023800000200140E0C8012070B5264D0446264ECD
:10239000687848B90020FF2126F81010401CC0B210
:1023A0001228F9D30120687034B3012C24D0022CF8
:1023B00022D0032C20D0042C1ED0052C1CD0062C9F
:1023C0001AD0072C18D0082C16D0092C14D00A2C9F
:1023D00012D00B2C10D00C2C0ED00D2C0CD00E2C9F
:1023E0000AD00F2C08D0102C06D0112C04D0122C9F
:1023F00002D04FF0FF3070BD204600F017F8401CAF
:1024000002D06FF0010070BD2878122802D36FF05F
:10241000020070BD26F81040401CC0B22870401E5B
:1024200070BD0000A8040020E0C801200A4910B5D2
:1024300002460020074B097806E000BF33F8104041
:10244000944205D0401CC0B28842F7D34FF0FF3011
:1024500010BD0000E0C80120A804002010B5012133
:102460000C02204600F0A0FD2046BDE810400021EF
:1024700000F09ABD30B542680F4B0C791A400B68DA
:1024800042EA04221343436082680C4B4D791A40A0
:10249000D1E9034323438C6844EA450423431343AF
:1024A0008360C26A097D22F47002491EC9B242EA01
:1024B0000151C16230BD0000FFFEFFFCFDF7FFC00F
:1024C00070B5072409290AD9C568A1F10A0606EBE7
:1024D0004606B440A543B3401D43C56007E0056907
:1024E00001EB4106B440A543B3401D4305611F23E2
:1024F000072A09D2446B521E02EB820293409C438E
:1025000091400C43446370BD0D2A09D2046BD21F65
:1025100002EB820293409C4391400C43046370BDE4
:10252000C46A0D3A02EB820293409C4391400C43F3
:10253000C46270BD816841F08041816070470000D5
:1025400006490028D1F8040302D040F4000001E05D
:1025500020F40000C1F8040370470000002001408F
:1025600070B50C4C0C4D2146284600F0D5F80028DB
:102570000ED00A4A116CB2F84C0008830848006873
:102580000FF0CCF921462846BDE8704000F00AB8AB
:1025900070BD000000800018586402406CD8050827
:1025A0000C000020074A904201D2074801E005488C
:1025B0001038064A8B0001EA020101D5C16070475C
:1025C0008160704710640240006002407D0F7D0F03
:1025D0000029016802D041F0010101E021F0010170
:1025E000016070472DE9F043016821F001010160AD
:1025F0000021016041608160C16001612121416170
:102600003C493C4A3D251039904202D18D60BDE8DD
:10261000F083384A4FF474661832904201D18E60CC
:10262000F5E7344A4FF474173032904201D18F608D
:10263000EDE7304A4FF0746C4832904202D1C1F855
:1026400008C0E4E72B4B2C4A6033984201D1CA60A2
:10265000DDE7284C294B7834A04201D1CB60D6E786
:10266000DFF89080264C08F19008404501D1CC60FD
:10267000CDE7DFF880804FF03D5908F1A8084045CC
:1026800002D1C1F80C90C2E71E49DFF87880083902
:10269000404501D10D60BAE71A4D1835A84201D165
:1026A0000E60B4E7174D3035A84201D10F60AEE798
:1026B000144D4835A84202D1C1F800C0A7E7114D1A
:1026C00010496035091FA84201D10A609FE70D4AF1
:1026D0007832904201D10B6099E70A4A90329042D9
:1026E00001D10C6093E7074AA83290428FD1C1F81C
:1026F00000908CE7106002403D000020400F002059
:1027000000003D2010640240014600200968C9070E
:1027100000D001207047000030B5104A00249042DC
:1027200001D20F4B01E00D4B103B0E4A114205D078
:102730001E2202EAD12502682A4002E0406900F028
:102740008002880001D5586800E01868064B1840E0
:10275000084201D002B10124204630BD106402407D
:10276000006002403C0F3C0F7D0F7D0F0B0607D52C
:10277000436912B143F0800301E023F08003436119
:10278000802908D0002A026801F01E0101D00A4306
:1027900000E08A430260704730B50368124ACC6893
:1027A00013400A682243D1E905452C432243CC69F2
:1027B00022430C6A22434C6A22438C6A22434C6BAC
:1027C00022438C6B22431A430260426922F00703C2
:1027D000D1E90B2422431A4342610A6942604A68E4
:1027E00082608968C16030BD3F801CF070B500F028
:1027F000F7FE0E484FF47A714FF0FF350068B0FBDA
:10280000F1F1491EB1F1807F0AD24FF0E0246161FD
:102810000F21284608F015FE0020A0610720206146
:102820002846BDE87040002108F00BBEC804002017
:1028300010B5012000F00CF9002808D00448006809
:1028400000B18047BDE81040012000F0D9B810BDAC
:1028500028C9012070B54FF48065284600F0F8F8CB
:10286000234C28B1A16A01B18847284600F0C8F876
:102870004FF40065284600F0EBF828B1E16A01B199
:102880008847284600F0BCF84FF48055284600F0F1
:10289000DFF828B1216B01B18847284600F0B0F875
:1028A0004FF40055284600F0D3F828B1616B01B110
:1028B0008847284600F0A4F84FF48045284600F0E9
:1028C000C7F828B1A16B01B18847284600F098F8F5
:1028D0004FF40045284600F0BBF8002807D0E16B14
:1028E00001B188472846BDE8704000F089B870BD46
:1028F00028C9012010B5022000F0AAF8002808D04D
:102900000448406800B18047BDE81040022000F054
:1029100077B810BD28C9012010B5042000F098F840
:10292000002808D00448806800B18047BDE8104006
:10293000042000F065B810BD28C9012010B508209A
:1029400000F086F8002808D00448C06800B180472D
:10295000BDE81040082000F053B810BD28C9012080
:1029600010B5102000F074F8002808D00448006961
:1029700000B18047BDE81040102000F041B810BD04
:1029800028C9012070B5202000F062F81B4C28B146
:10299000606900B18047202000F032F8402000F04C
:1029A00057F828B1A06900B18047402000F028F80E
:1029B000802000F04DF828B1E06900B18047802008
:1029C00000F01EF84FF48075284600F041F828B159
:1029D000216A01B18847284600F012F84FF40075CB
:1029E000284600F035F8002807D0616A01B1884711
:1029F0002846BDE8704000F003B870BD28C901202A
:102A00000149086070470000143C014010B500F017
:102A1000A1F8042810D8052817D2DFE800F0030534
:102A200007090B00062410E007240EE008240CE040
:102A300009240AE00A2408E0411F042901D81724C8
:102A400003E00A38052800D82824204610BD0000DD
:102A5000034A0146002012680A4200D00120704754
:102A6000143C014030B51A498379026853B30B68AE
:102A700093430B600A1D13680468A3431360027933
:102A80000A441368046823431360114A0832136828
:102A90000468A3431360131D1C680568AC431C60E5
:102AA0004479102C05D021440A68006802430A606A
:102AB00030BD116804682143116019680068014342
:102AC000196030BD0079084401689143016030BD50
:102AD000003C01402DE9FE431E46DDF8289090465B
:102AE0000D460746B02831D200F034F804460F28CE
:102AF0002CD81748012140F82450880300F048FAE8
:102B0000384600F027F80546384600F035F82946E3
:102B100000F00CFD012505FA04F0009000208DF86E
:102B200004008DF805808DF806506846FFF79AFF7F
:102B30003846FFF76BFF8DF808008DF809608DF8B7
:102B40000A908DF80B5002A800F04CF9BDE8FE8306
:102B500028C90120024901EB0010808900F002B869
:102B60006CD80508002102E04008491C89B2012800
:102B7000FAD8C8B2704700001E4901EB00101E4988
:102B80000068884201D1002070471C49884201D169
:102B9000012070471A49884201D102207047194923
:102BA000884201D1032070471749884201D104208F
:102BB00070471649884201D1052070471449884260
:102BC00001D1062070471349884201D10720704780
:102BD0001149884201D1082070471049884201D12B
:102BE000092070470E49884201D10A207047FF2012
:102BF000704700006CD80508000002400004024045
:102C000000080240000C0240001002400014024084
:102C100000180240001C0240002002400024024034
:102C200000280240F0B50023012403270D6804FAB0
:102C300003F21540954242D1D0F800C05E0007FA79
:102C400006F52CEA050CC0F800C091F804C0D0F8D5
:102C500000E00CFA06FC4CEA0E0CC0F800C091F83B
:102C600004C0BCF1010F02D0BCF1020F1FD1D0F89B
:102C700008C02CEA050CC0F808C091F805C0D0F8CF
:102C800008E00CFA06FC4CEA0E0CC0F808C0D0F8BC
:102C900004C02CEA020CC0F804C0426891F806C0D7
:102CA0000CFA03FC1FFA8CFC42EA0C024260C26878
:102CB000AA43C260CA79C568B2402A43C2605B1C9D
:102CC000102BB3D3F0BD4B07DB0E9A40C90810B5EB
:102CD00000EB8100016A0F249C40A1430162016A5C
:102CE0001143016210BD00007CB5044632488442A5
:102CF00001D1012030E03148844201D102202BE093
:102D00002F48844201D1042026E02E48844201D17C
:102D1000082021E02C48844201D110201CE02B48DF
:102D2000844201D1202017E02948844201D140206B
:102D300012E02848844201D180200DE026488442D8
:102D400001D1801508E02548844201D1401503E0F7
:102D50002348844220D10015FAB1012A1FD0022A4B
:102D600020D0032A21D0052A21D0062A21D0072AE3
:102D700012D10225002600228DF804508DF805306E
:102D800000918DF806608DF80720012100F0DCF835
:102D900069462046FFF746FF7CBD0025EBE700258E
:102DA0000122E9E700250222E6E70325E3E7012502
:102DB000E0E701252E46DEE7000002400004024065
:102DC00000080240000C02400010024000140240C3
:102DD00000180240001C0240002002400024024073
:102DE0000028024030B50F22C47801780123FCB1DD
:102DF000144C246801F1E02104F4E064C4F5E064BB
:102E0000C4F30724C4F10405E2404478AC4085785B
:102E1000154025432A0181F80024007800F01F01A5
:102E20008B404009800000F1E020C0F8003130BD47
:102E300001F01F0083404809800000F1E020C0F845
:102E4000803130BD0CED00E02DE9F04717460C460F
:102E50000646B02810D2244800EB0615686858B121
:102E6000A87B48B144B13FB1DFF8808004FB07F094
:102E7000D8F80010884202D90020BDE8F087072169
:102E8000304617F05BF8304600F05AFD8146304678
:102E9000FFF760FE01464A462868FFF714FFD8F89E
:102EA00000002646B0FBF6F0B0FBF7F41049686866
:102EB00088420CD00F49884209D00F49884206D079
:102EC0000E49884203D00E49884200D06408002190
:102ED00000F078FC641E761EAB7BA2B2B1B26868CB
:102EE00000F012FFA87BC8E76CD80508C8040020D2
:102EF0000000014000040140004001400044014046
:102F000000480140014908627047000000000E427D
:102F10000B4B10B51A6840F60344A24302431A60F3
:102F20000848026842F004020260012905D020BF6F
:102F3000016821F00401016010BD30BFF8E7000016
:102F40000070004010ED00E0044A0029116801D033
:102F5000014300E0814311607047000030380240B7
:102F6000044A0029116801D0014300E08143116047
:102F70007047000040380240044A0029116801D01F
:102F8000014300E081431160704700002038024097
:102F9000044A0029116801D0014300E08143116017
:102FA0007047000044380240044A0029116801D0EB
:102FB000014300E081431160704700002438024063
:102FC00002460020510901290BD002290CD00849E2
:102FD000096802F01F02012393400B4200D0012038
:102FE000704703497439F3E70149091FF0E700000E
:102FF00074380240054900220A700A70012802D084
:10300000042801D105200870704700007038024084
:1030100001490860704700003C0E4742C0F301219F
:10302000032907D1074A116821F4F8130649014022
:1030300019431160034968310A68C0F30B00024369
:103040000A60704708380240FFFCFF0F10B54FF4CC
:103050008074204600F076F8012804D12046BDE8AF
:10306000104000F017B810BD010901EB810100F01C
:103070000F0000EB4100C0B27047002103E0491C83
:103080000A38C9B2C0B20A28F9D2090740EA116069
:103090007047000080B240F08000C14303480268DE
:1030A00002F0800211430160704700000C280040CC
:1030B00008B5002000900C480168490612D44FF072
:1030C000FF31016083130168009A01F04001521C36
:1030D00000929A4201D00029F5D00068400601D440
:1030E000002008BD012008BD0C28004002480168EE
:1030F00021F08001016070470C28004010B50C469B
:103100000E4909680E4A11400A0CE270C1F304230B
:10311000637001F03F03A370C1F3423121700028B6
:103120000BD11046FFF7A0FFE0706078FFF79CFF1F
:103130006070A078FFF798FFA07010BD04280040D1
:103140003FFFFF000449024600200968034B194075
:10315000114200D0012070470C2800407F7F010001
:1031600010B50C460F4909680F4A1140C1F30542DA
:103170002270C1F30623637001F07F03A370402324
:1031800003EA1141E17000280BD11046FFF76CFFF4
:1031900020706078FFF768FF6070A078FFF764FF29
:1031A000A07010BD002800407F7F7F0070B5124DD9
:1031B00004460026CA20286053202860FFF778FFC5
:1031C000A8B10D481C38016821F040010160016878
:1031D0002268114301600848A16814380160016841
:1031E000A28841EA02410160FFF780FF0126FF202B
:1031F0002860304670BD00002428004008B503490F
:1032000001EB80000090006808BD000050280040DD
:1032100070B50C46010060784FF000062AD0FFF729
:1032200023FFA078FFF720FFA078E17840EA01456E
:1032300060782178000240EA41300543194CCA20E9
:10324000206053202060FFF733FF78B11648054017
:10325000144820380560FFF749FF12481C38006801
:10326000800602D400F080F800B10126FF20206023
:10327000304670BDC10603D520F010000A306070E2
:10328000E078FFF7FAFE05046078FFF7F6FE45EAFE
:103290000025A078FFF7F1FE0543207845EA403588
:1032A000CCE70000242800403FFFFF002DE9F0415B
:1032B000244F0C4602004FF0000620783A68314651
:1032C0004FEA426204D0002A15DAFFF7CDFE13E080
:1032D000002A00DBE170FFF7D0FE05046078FFF7FD
:1032E000CCFE45EA0025A078FFF7C7FE0543E0784D
:1032F00045EA00450AE0E170A078217840EA0145FE
:103300006078E178000240EA014005430D4CCA2094
:103310001C34206053202060FFF7CAFE68B10A48C1
:103320000540084808380560FFF7E0FE3868800669
:1033300002D400F019F800B10126FF2020603046C9
:10334000BDE8F081082800407F7F7F0010B54FF472
:1033500080642046FFF7F6FE012804D12046BDE830
:103360001040FFF797BE10BD18B50020104900901F
:10337000CA200860532008600D481838026822F0FF
:10338000A00202604FF400340268009B02F02002A9
:103390005B1C0093A34201D0002AF5D00068800690
:1033A00001D5012000E00020FF220A6018BD0000C6
:1033B0002428004008B5034A02EB80000090016019
:1033C00008BD00005028004030B5C17842788378AD
:1033D00001F5FA61012A02D0022A02D003E00D228F
:1033E00000E00E22491E541C04EB4404052594FB06
:1033F000F5F403EB42022244CB170A4401EB93732A
:1034000002EBA302642391FBF3F3D21A4FF4C873C7
:1034100091FBF3F11144072291FBF2F302FB13112C
:10342000491C017030BD3EB501210807FFF798FD2A
:103430000120FFF767FD0020FFF7E0FE45F2500492
:10344000A04227D00120FFF7D5FD4120FFF7B8FDAE
:103450000028FAD04FF48070FFF7E0FD0120FFF75D
:10346000D7FD7F200190FF20029000200090684649
:10347000FFF79CFE00231A461946184600F019F87B
:1034800001231A461946002000F005F821460020C5
:10349000FFF790FF3EBD08B58DF802208DF80110B2
:1034A0008DF800308DF8030069460020FFF7B0FE6C
:1034B00008BD08B58DF800008DF801108DF80220C8
:1034C0008DF8033069460020FFF7F0FE08BD0029A3
:1034D000018802D041F0400101E021F0400101806B
:1034E0007047002A828801D00A4300E08A43828024
:1034F000704730B502884C8802F441530A88CD8861
:1035000022438C882C4322430C8922434C8922433A
:103510008C892243CC8922431A430280828B22F475
:1035200000628283098A018230BD000010B58A07DB
:1035300021F003040849130F21440F22D1F8084851
:103540009A409443C1F80848D1F8082898400243AB
:10355000C1F8082810BD000000300140184801687B
:1035600041F0805101601748016841F44041016019
:10357000134838380168016001680160016841F44E
:1035800080510160021F10491160111F0A6842F04A
:1035900080720A600A689201FCD50C4A40F20271FE
:1035A0001160016821F003010160016841F002012E
:1035B00001600168C1F381010229FAD1704700005E
:1035C000403802400070004010640107003C024097
:1035D00002480168491C016070470000AC040020EB
:1035E00070B5184D00212868174A10F00C031748D1
:1035F00003D0042B03D0082B03D0026018E0144939
:1036000015E0104B1B1F1C681E68C4F3805406F0A5
:103610003F062CB9B2FBF6F11A68C2F38812514387
:103620001A68C2F30142521C5200B1FBF2F1016070
:103630002968064AC1F30311121D515C0268CA4091
:10364000026070BD083802400024F400C804002065
:1036500040787D01124810B5016841F470010160A5
:103660001048016841F0010101600E4A0021083252
:10367000116002680C4B1A400260031D0B4A1A606D
:10368000026822F48022026006480C300160FFF7D5
:1036900065FF03494FF000608039086010BD0000ED
:1036A00088ED00E000380240FFFFF6FE10300024F5
:1036B00070B50F4D0121284600F0C2F90D4C30B114
:1036C000216801B188470121284600F078F80A4DA9
:1036D0000121284600F0B4F9002808D0616A01B140
:1036E00088472846BDE87040012100F068B870BDE9
:1036F0000000014068C901200044014010B50121CB
:103700008C07204600F09CF9002809D00548416844
:1037100001B188472046BDE81040012100F04FB8B4
:1037200010BD000068C9012010B5094C01212046D8
:1037300000F086F9002809D00648816801B1884761
:103740002046BDE81040012100F039B810BD00004E
:103750000004004068C9012010B5094C0121204631
:1037600000F06EF9002809D00648C16801B1884709
:103770002046BDE81040012100F021B810BD000036
:103780000008004068C9012010B5094C01212046FD
:1037900000F056F9002809D00648016901B18847B0
:1037A0002046BDE81040012100F009B810BD00001E
:1037B000000C004068C90120C94301827047C94319
:1037C000018270470029018802D041F0010101E027
:1037D00021F0010101807047002930F8441F02D018
:1037E00041F4004101E0C1F30E0101807047000087
:1037F000464910B5884206D101210846FFF7D4FB9F
:10380000002101205BE0B0F1804F09D0404988429F
:103810000DD101210220FFF7AFFB0021022070E053
:1038200001210846FFF7A8FB0021012069E0394982
:10383000884206D101210420FFF79EFB00210420CD
:103840005FE03549884206D101210820FFF794FB4B
:103850000021082055E03149884206D1012110207D
:10386000FFF78AFB002110204BE02D49884206D14A
:1038700001212020FFF780FB0021202041E0294981
:10388000884206D101210220FFF78EFB0021022091
:1038900015E02549884202D101210C040AE02349A0
:1038A000884202D101214C0404E0214988420AD116
:1038B00001218C042046FFF777FB00212046BDE85C
:1038C0001040FFF771BB1B49884206D101214020FF
:1038D000FFF752FB0021402013E01749884206D130
:1038E00001218020FFF748FB0021802009E01349D7
:1038F00088420AD1841501212046FFF73DFB0021B3
:103900002046BDE81040FFF737BB10BD0000014066
:103910000004004000080040000C0040001000407F
:1039200000140040000401400040014000440140F8
:103930000048014000180040001C004000200040EA
:103940002DE9F04F314A014602EB0111DFF8C0804A
:1039500049680020DFF8BCC02F4A304B304CDFF8FC
:10396000C4A0DFF8C4B0314D314E324FDFF8C890FB
:10397000414522D0B1F1804F1DD061451FD0914209
:103980001DD099421BD04FEAB848414517D0DFF807
:10399000AC80414513D0A14211D051450FD05945BB
:1039A0000DD0A9420BD0B14209D0B94207D0494548
:1039B00029D0BDE8F08F0120FBE7012003E061453D
:1039C00001D1022003E0914201D1022003E099429B
:1039D00001D1022003E0A14201D1032003E05145BF
:1039E00001D1032003E0594501D1032003E0A9429E
:1039F00001D1032003E0B14201D1092001E0B94225
:103A000001D04945D5D10920D3E700006CD805087D
:103A1000000001400004004000080040000C00408D
:103A200000040140004001400044014000480140C2
:103A300000180040001C004000200040001400401E
:103A400002460020138A92890B4202EA010202D048
:103A5000002A00D001207047002A828901D00A4341
:103A600000E08A438281704730B5028C22F0010267
:103A70000284028C8388048B22F0020224F07305F6
:103A80000C882C438D8915434A882A430C4DA84243
:103A900002D00C4DA8420DD122F00805CA8923F4AA
:103AA00040732A4322F004058A882A430D8A1D4365
:103AB0004B8A2B438380048389684163028430BD31
:103AC0000000014000040140028B22F008020A437A
:103AD0000283704770B5028C22F010020284028CBF
:103AE0008488038B0D8823F4E6464FF6FF7303EAC0
:103AF000052535438E8922F0200203EA0616164377
:103B00004A8803EA02123243104EB04202D0104EED
:103B1000B04215D122F08006CA8924F4406403EA39
:103B20000212324322F040068A8803EA021232432C
:103B30000E8A03EA860626434C8A03EA8404344349
:103B40008480058389688163028470BD0000014020
:103B500000040140028B4FF6FF7322F4006203EA77
:103B6000012111430183704770B5028C22F48072E9
:103B70000284028C8488838B0D8823F073031D4399
:103B800022F400738E894FF6FF7202EA06261E4366
:103B90004B8802EA03233343104EB04202D0104E4A
:103BA000B04215D123F40066CB8924F4405402EAD4
:103BB0000323334323F480668B8802EA03233343D1
:103BC0000E8A02EA061626434C8A02EA041434439B
:103BD000848085838968C163038470BD00000140CF
:103BE00000040140828B22F008020A43828370475E
:103BF00070B5028C22F480520284048C8288838BFC
:103C00000D8823F4E6464FF6FF7303EA0525354396
:103C100024F400568C8903EA043434434E8803EAC2
:103C200006362643084CA04202D0084CA04205D1DB
:103C300022F480440A8A03EA821222438280858326
:103C400089680164068470BD0000014000040140E1
:103C5000828B4FF6FF7322F4006203EA01211143C5
:103C60008183704700210180418081808160818152
:103C7000C18101824182704730B50288164B174CD2
:103C800098420DD0A0420BD0B0F1804F08D0144D17
:103C9000A84205D0134DA84202D0134DA84203D12B
:103CA00022F070054A882A43104DA84206D0104DD4
:103CB000A84203D022F440750A892A4302804A6848
:103CC000C2620A880285984201D0A04201D1897A55
:103CD00001860121818230BD0000014000040140C5
:103CE0000004004000080040000C004000100040AC
:103CF000001400404FF0FF3141600021018001813C
:103D00004180817270470000F0B50446414889B097
:103D10001D4616460F46844226D0B4F1804F23D06C
:103D20003D48844220D03D4884421DD03C488442D6
:103D30001AD03C48844217D03B48844214D03B48B8
:103D4000844211D03A4884420ED03A4884420BD083
:103D50003948844208D03948844205D038488442E2
:103D600002D03848844252D10121204600F06CF83C
:103D700005A8FFF7BFFF0020ADF81460ADF81C00E8
:103D8000ADF81600069705A92046FFF775FF6846AF
:103D9000FFF768FF7020ADF800000120ADF80200C9
:103DA0000220ADF80C00012D06D0022D0DD0032D00
:103DB00014D0042D23D11AE069462046FFF754FEA3
:103DC00008212046FFF780FE19E069462046FFF7EC
:103DD00081FE08212046FFF7BDFE10E0694620461F
:103DE000FFF7C2FE08212046FFF7FCFE07E0694608
:103DF0002046FFF7FDFE08212046FFF729FF01219D
:103E00002046FFF7DFFC01212046FFF7E5FC09B063
:103E1000F0BD000000000140000400400008004028
:103E2000000C00400010004000140040000401405D
:103E3000004001400044014000480140001800409B
:103E4000001C004000200040254A904201D1012082
:103E500033E0B0F1804F04D0224A904203D10220D7
:103E60003BE0012039E0204A904201D1042034E0B7
:103E70001E4A904201D108202FE01D4A904201D1F4
:103E800010202AE01B4A904201D1202025E01A4A46
:103E9000904201D1022010E0184A904202D14FF422
:103EA00080300AE0164A904202D14FF4003004E01C
:103EB000144A904203D14FF48020FFF769B8124AA8
:103EC000904201D1402008E0104A904201D1802068
:103ED00003E00F4A904202D18015FFF741B87047C6
:103EE000000001400004004000080040000C0040B9
:103EF0000010004000140040000401400040014058
:103F0000004401400048014000180040001C0040EF
:103F1000002000402DE9FF410E4628490446154681
:103F200025480968264A274B274FDFF8A0C084425E
:103F300008D0944206D09C4204D0BC4202D06445D2
:103F400000D04908844222D0B4F1804F1FD02048CD
:103F500084421CD01F48844219D01F48844216D086
:103F60001E48844213D01E48844210D094420ED082
:103F70009C420CD0BC420AD0644508D01948844207
:103F800005D01948844202D01848844212D1002E2C
:103F900010D003AB02AA304600F0DAF8032100206B
:103FA000CDE900012B46BDF80C20BDF808102046D5
:103FB00000F01EF8BDE8FF8100000140C8040020A9
:103FC000000401400040014000440140004801401D
:103FD0000004004000080040000C004000100040B9
:103FE0000014004000180040001C00400020004069
:103FF0002DE9FF5F994692468B46DFF82081484FB6
:10400000DFF820C14849494A494B4A4E04464045D9
:1040100029D0B4F1804F23D0BC4227D0644525D0AD
:104020008C4223D04FEAB84844451FD0DFF80881BE
:1040300044451BD0DFF80481444517D0944215D085
:104040009C4213D0B44211D0DFF8F48044450DD027
:10405000DFF8F080444509D03B498C425CD123E035
:1040600001201C2522E00020192504E0BC4202D1D9
:1040700002201D2504E0644502D103201E2504E032
:104080008C4202D10420322504E0944202D108205F
:10409000182504E09C4202D10920192506E0B4420B
:1040A00002D10A201A2501E0002D35D0274A42F816
:1040B00020902046FFF79CFB01212046FFF7C4FE1D
:1040C0006846FFF717FEABF1010101910020AAF14C
:1040D0000101ADF800108DF80A00ADF80800ADF848
:1040E000020069462046FFF7C7FD8DF80C500E9878
:1040F0008DF80D000F988DF80E0001208DF80F003F
:1041000003A8FEF76FFE01212046FFF755FB0122B1
:1041100011462046FFF7A0FCBDE8FF9F00000140CC
:104120000004004000080040000C00400040014036
:1041300000440140004801400014004000040140D8
:1041400000180040001C00400020004068C9012009
:1041500010B50D4CB1FBF4F14843C1EB0111B0EBCC
:10416000410F01D20A210AE00849884202D24FF4E5
:104170007A7101E044F62061B0FBF1F189B2B0FB45
:10418000F1F01180188010BD40420F0018FCE703C9
:10419000014804F0F7BE0000B8C60120014804F051
:1041A000F1BE000054C701200A0A01219140C94311
:1041B000018070470246002012880A4200D0012088
:1041C000704730B501F01F0201240025C1F34213EE
:1041D00004FA02F2012B0FD0022B0FD0838A4FEA90
:1041E00011210088134204FA01F400EA040001D00E
:1041F00000B10125284630BD8389F0E7038AEEE748
:104200008088C0F308007047C1F3080181807047BF
:10421000014805F09DB80000E4050020F8B505460A
:1042200002F09CF9284400B24FF47A740A2801DAAB
:104230000A2002E0A04200DD2046064602F098F97E
:1042400064200090002322460A21304615F092FD9A
:1042500002460C480AA1406912F0EAFD002D0ED07A
:1042600040F267100090002322460A21304615F0E4
:1042700081FDBDE8F8404FF4FA7101F0E7B8F8BDF0
:10428000256400004C01002010B5012003F006FA5F
:10429000074904A04860BDE810400121054804F02A
:1042A000C7B90000636872626F63636869000000E9
:1042B000F0020020E812012038B51C4C0021606893
:1042C00011F07AF91A49206111F031FE1425009598
:1042D000D4E9031000230D2213F0F6FC012120691C
:1042E00014F06BFA0021206914F063FA2169606808
:1042F00011F062F90F49606111F019FE0023009579
:104300001A461946606913F0DFFC2169606811F0F4
:1043100053F90949A06111F00AFE0A200090D4E97E
:10432000051000230D2213F0CFFC38BDD40100206E
:10433000DCB3040874740408D45904082DE9F84364
:104340002C492D4814F068FD2B482A4978308046C6
:1043500014F062FD284827493C30814614F05CFD8A
:10436000264D0021286812F00FFE234C2249B43458
:10437000206014F0A9FA224E2068316801F038FF5D
:10438000052700976FF013030D222068696813F06A
:104390009BFC206812F0A5FE0021286812F0F4FDB5
:1043A0004146A06014F090FA7168A06801F020FF07
:1043B000009700230D22A068696813F085FCA068AF
:1043C00012F08FFE0021286812F0DEFD4946606081
:1043D00014F07AFAB168606801F00AFF00971423BC
:1043E0000D226068696813F06FFC6068BDE8F843EF
:1043F00012F077BEC41C012028120120DC0200202C
:104400002466050810B50521032015F097FD01214C
:10441000032009F0BFFB0221084615F08FFD0121A2
:104420000F2015F08BFD0421062015F087FD0121DA
:104430000807FEF795FD0120FEF764FD0320FEF757
:10444000DDFE0004000C02D0B0F5967F00D93C20C0
:1044500002494880BDE8104003F088B904000020FC
:10446000F8B51446174A1060B1F90430B1F90000EC
:10447000B1F90660B1F902201D1AB11A491C6D1C70
:1044800015FB01F14D0001460F48009605F066F856
:104490000E48B0F84C1050F8402F5183B0F84C1033
:1044A000006C01830A4E00213046FEF791F808485F
:1044B0000C300460301D05603046BDE8F840012135
:1044C000FEF786B80C000020640600206CD80508B2
:1044D0005864024010B50DF035FABDE810400DF0FB
:1044E00063BA002801D0FCF705BA70472DE9F04700
:1044F0004C4D01262878032835D005F01FFC05F027
:10450000E3FCE8794FF00008C0F14000002820DD0E
:10451000DFF8149100274FF0FF3A00BF09EB470482
:104520000221504603F04CFE2178084420700220FE
:1045300003F03AFE6178084440B26070402805DB21
:10454000802003F031FE207084F801807F1C402F12
:10455000E4DB2869401E2861297871B101291ED049
:10456000022945D04DE00C21304806F002FDA0B3F1
:104570002E701E20A8706E704FE03C2801D060B1F4
:104580003FE02B484FF4805101804910418080F872
:104590000480C0214171EE7133E02E7031E0686912
:1045A000002801DD401E6861E968491CE960E8797E
:1045B00010B1A878A0B124E002202870A86900F00A
:1045C0008DFD58B10020E8704FF4F0702861012291
:1045D0001849164806F044FD13E01EE00120F2E7FA
:1045E0000C21124806F0C5FC58B10320287008E0E1
:1045F000A87830B90C210D4806F0BBFC08B105F0D5
:10460000E5FC95F90200002801DD401EA8706E70DF
:104610002878022801D1286910B10020BDE8F08770
:104620000120FBE7400300202C1A0120FC1601208A
:104630002C1701202A74050810B50D4C0321002207
:104640002078401EC0B220700F3890FBF1F109486D
:10465000C84000F001006070C0EBC013114606486E
:1046600003F04BFF207808B1002010BD012010BDE1
:104670005C0300203AAAE3EEFC16012010B50121EC
:10468000102015F05BFC0121112015F057FC0121D1
:10469000122015F053FC0A490A4803F03FFF09486D
:1046A0000749203003F03AFF06480549403003F03F
:1046B00035FF0448BDE810400349603003F02EBFC9
:1046C000D96800080C0500203D78000870B50E4D33
:1046D00000246878A0B10C210C4806F04AFC28B1EF
:1046E0000020687005F090FC0120A870FBF734FEF4
:1046F000054615F091FB6840FFF7F3FE204670BDBC
:1047000005F05AFD0446F1E760030020FC16012085
:1047100010B5002001F02CFF1E4804F081FF00219D
:104720001C4804F077FE00211A4804F02FFE01F027
:10473000B9FD11F007FD01F0E9FE0021C82014F0D9
:1047400027FF14F0D3FF01F051F9012002F0D6FF4A
:10475000022002F0A1FE032002F056FE042002F027
:10476000B1FF052002F0E6FF062002F079FE0720E7
:1047700002F07AF8082001F0D5FD064801214C30FE
:1047800003F0E1FF01F072F9BDE810404FF47A71D7
:1047900002F08ABD640600202DE9FF5F071E02D0EB
:1047A0004FF0000401E04FF0040401D0FF2500E0C9
:1047B0000025DFF80081DFF800A104264FF0000992
:1047C0004FF0C80B052C55D2DFE804F003182B403E
:1047D0005C004446D8F8100013F048FECDE9005BB9
:1047E000CDE9029A0346354A3549206901F0E0F8DF
:1047F0004FF4967003F0F4FD761E41D34446D8F88A
:104800001C0013F033FECDE9005BCDE9029A2C4980
:1048100003462A4A2431E06901F0CAF84FBB00245C
:1048200028E04446D8F8140013F020FECDE9005BE0
:10483000CDE9029A22490346204A4831606901F0D5
:10484000B7F80FB1032415E0012413E04446D8F86B
:10485000180013F00BFECDE9005BCDE9029A184970
:104860000346164A6C31A06901F0A2F80FB1042486
:1048700000E002244FF4967003F0B2FD761EA1D240
:10488000BDE8FF9F4446D8F8200013F0EFFDCDE9C6
:10489000005BCDE9029A0A490346084A9031206A32
:1048A00001F086F84FF4967003F09AFD761ECDD293
:1048B000E6E70000D401002035F20008B3870108C4
:1048C000741101202DE9FF5F054680F001070226E3
:1048D0004FF00008DFF8A8904FF0C80A294C4AE0D2
:1048E00017B1012F44D130E045B1A06913F021FE8A
:1048F0000746A06913F0AEFD384402E0E06813F00B
:10490000A9FD00F1140BA06A13F013FECDE900BA63
:104910000346CDE902894F461B4A1C49A06A01F0B3
:1049200047F8A06A13F0A2FD03460DB1FF2200E094
:104930000022CDE9002ACDE902871449144A243126
:10494000A06A01F035F8012712E0A06913F08EFD8E
:1049500003460DB1FF2700E00027CDE9007A0B499F
:10496000CDE902890A4A4831A06901F021F80027FF
:10497000C82003F035FD761EB2D2BDE8FF9F0000CF
:1049800035F20008D4000020F5880108100B012042
:10499000B38701082DE9FF47054680F0010702268D
:1049A0004FF00008DFF894904FF0C80A244C40E024
:1049B00017B1012F39D112E0206913F057FD0346DA
:1049C0000DB1FF2700E00027CDE9007ACDE902898B
:1049D0001C4A1D49206900F0EBFF012725E0E06932
:1049E00013F044FD03464F460DB1FF2200E00022C4
:1049F000CDE9002ACDE902871349124A2431E06942
:104A000000F0D6FF606A13F031FD03460DB1FF22BE
:104A100000E00022CDE9002ACDE902870A49094ACF
:104A20004831606A00F0C4FF00274FF4967003F02D
:104A3000D7FC761EBCD2BDE8FF87000035F2000827
:104A400018010020B3870108F40C01202DE9FF4173
:104A5000064680F001050224DFF870804FF4C87725
:104A60002FE015B1012D29D112E05EB101F076FDE4
:104A700040F26711009100234FF47A720A2115F079
:104A800079F900E00020394600F0E0FC012515E04E
:104A90004546D8F8140013F0E9FC03460C48002101
:104AA0000EB1FF2200E00022CDE90027CDE902107F
:104AB000084A0949686900F07BFF0025384603F081
:104AC0008FFC641ECDD2BDE8FF8100004C010020A8
:104AD00035F20008B3870108EC0E01202DE9FF47ED
:104AE000074680F0010602254FF000081E4CDFF853
:104AF0007C904FF0C80A32E016B1012E2CD115E09F
:104B000027B1E06913F0A6FC064600E00026606BC2
:104B100013F00FFDCDE9006A0346CDE90289144A7E
:104B20001449606B00F044FF012615E027B1606A6C
:104B300013F090FC064600E00026A06B13F0F9FC91
:104B4000CDE9006A0B490346CDE90289084A2431C0
:104B5000A06B00F02DFF0026C82003F041FC6D1E65
:104B6000CAD2BDE8FF8700007401002035F20008BA
:104B7000F58801083C100120F8B5354C07460021A6
:104B8000E06811F05FFB206113F088FC01463C22D5
:104B90003048FBF76CFF2F4D304E2F48686230686D
:104BA0000090BDF8000028842946206913F08CFE8F
:104BB0003946206912F0E9F80020034601460090CA
:104BC0000222206913F080F80121206913F0BCFD56
:104BD0000021E06812F0C8FA6061207AC0070DD1A8
:104BE00004F1080006F03DFC40B101F0AFFC04F117
:104BF00030018880A1F12800AFF30080144902221F
:104C00003031606912F014FC606913F047FC014612
:104C100010483C223C30FBF72AFF70680090BDF83A
:104C20000000A5F870000B4802253C300121C58624
:104C300080F83910074960693C3113F045FE009552
:104C4000D4E9041000230D2213F03EF8F8BD000053
:104C5000D40000206C09012048020020F4C00108A3
:104C6000F8B5344C07460021606811F0EBFAA060FB
:104C700013F014FC01463C222F48FBF7F8FE2E4DA2
:104C80002F4E2E48686230680090BDF800002884DE
:104C90002946A06813F018FE3946A06812F075F88E
:104CA00000200346014600900222A06813F00CF891
:104CB0000121A06813F048FD0021606812F054FA49
:104CC000E0602078C0070BD1204606F0CAFB38B15F
:104CD00001F03CFC04F12C0188802046AFF30080F9
:104CE000144902222C31E06812F0A2FBE06813F0B4
:104CF000D5FB014610483C223C30FBF7B8FE7068FB
:104D00000090BDF80000A5F870000B4802253C306B
:104D10000121C58680F839100749E0683C3113F05D
:104D2000D3FD0095D4E9021000230D2212F0CCFF30
:104D3000F8BD000018010020940B0120480200205B
:104D400020C10108F8B5354C05460021A06811F0D6
:104D500079FAE06013F0A2FB01463C223048FBF7F1
:104D600086FE2F49304E2F48486230680090A1F1EE
:104D70002400BDF80010A0F844102949E06813F0A1
:104D8000A3FD2946E06812F000F800200346014622
:104D900000900222E06812F097FF0121E06813F012
:104DA000D3FC0021A06812F0DFF920612079C00750
:104DB0000BD1201D06F055FB38B101F0C7FB04F103
:104DC00020018880201DAFF3008014490222203189
:104DD000206912F02DFB206913F060FB014610489A
:104DE0003C223C30FBF743FE706800900C48BDF855
:104DF00000105C300225818220380121C58680F8B0
:104E00003910074920693C3113F05EFD0095D4E963
:104E1000031000230D2212F057FFF8BD4C010020B3
:104E2000C00D0120480200204CC10108F8B5344CE7
:104E300007460021606811F005FAA06013F02EFB10
:104E400001463C222F48FBF712FE2E4D2F4E2E48D6
:104E5000686230680090BDF8000028842946A06888
:104E600013F032FD3946A06811F08FFF0020034691
:104E7000014600900222A06812F026FF0121A068DE
:104E800013F062FC0021606812F06EF9E060207897
:104E9000C0070BD1204606F0E4FA38B101F056FB0A
:104EA00004F1240188802046AFF3008014490222D7
:104EB0002431E06812F0BCFAE06813F0EFFA014622
:104EC00010483C223C30FBF7D2FD70680090BDF8E2
:104ED0000000A5F870000B4802253C300121C58672
:104EE00080F839100749E0683C3113F0EDFC00957B
:104EF000D4E9021000230D2212F0E6FEF8BD0000F6
:104F0000D4010020C010012048020020C8C10108BF
:104F1000F8B5344C0021A06811F094F9E06013F06A
:104F2000BDFA01463C223048FBF7A1FD2E4D304E24
:104F30002E48686230680090BDF800002884294639
:104F4000E06813F0C1FC04F124004169E06811F04D
:104F50001CFF00200346014600900222E06812F088
:104F6000B3FE0121E06813F0EFFB0021A06812F00E
:104F7000FBF820612079C0070BD1201D06F071FAE3
:104F800038B101F0E3FA04F11C018880201DAFF371
:104F90000080144902221C31206912F049FA20696C
:104FA00013F07CFA014610483C223C30FBF75FFDD1
:104FB00070680090BDF80000A5F870000A4802254E
:104FC0003C300121C58680F83910074920693C3101
:104FD00013F07AFC0095D4E9031000230D2212F09F
:104FE00073FEF8BD50000020AC08012048020020EC
:104FF000ECC00108F8B5334C0021206911F022F90A
:10500000606113F04BFA01463C222F48FBF72FFD5D
:105010002D4D2F4E2D48686230680090BDF800007D
:1050200028842946606913F04FFC2AA1606911F0B9
:10503000ACFE00200346014600900222606912F097
:1050400043FE0121606913F07FFB0021206912F00B
:105050008BF8A0612079C0070BD1201D06F001FA62
:1050600038B101F073FA04F13C018880201DAFF3E0
:105070000080144902223C31A06912F0D9F9A069DC
:1050800013F00CFA014610483C223C30FBF7EFFCD1
:1050900070680090BDF80000A5F870000A4802256D
:1050A0003C300121C58680F839100749A0693C31A0
:1050B00013F00AFC0095D4E9051000230D2212F02C
:1050C00003FEF8BD74010020100F012048020020EB
:1050D00070C1010854696D65436667002DE9F041B0
:1050E000344D83B20A24EB80334E07E0641E092C52
:1050F00002DA06EB44077A80002C05DD06EB440259
:1051000032F8022C8242F1DB0A2C01DA26F8143044
:105110002889401C2881E8680844E860287801282C
:1051200008D14FF45071254806F09FF824492348D0
:1051300005F02BFF4FF4517000EB440081B21F4883
:1051400006F093F8274605E036F817101B4805F0DF
:105150001BFF7F1C0A2FF7DB2989184805F014FF75
:105160001648E96805F011FF44F6EB015FF0000016
:10517000C21C36F81030401C03FB021189B20A2809
:10518000F6DB288900EB800202EBC0000844E968E6
:105190000A0CC2EB0212C1EBC10102EB410108444F
:1051A00081B2064805F0F0FE02202870E0B2BDE8AA
:1051B000F081000060030020AC1A0120FC160120E1
:1051C0004F424E03F8B53C2237493848FBF74FFCB5
:1051D000374D364E0821A8681C3E0090BDF80000EF
:1051E000A6F850003148334CC18601210175E968A9
:1051F0000091BDF80010B1850A2141820021A0680C
:105200000AF05CF8A06101F0A1F9143807B201F0CE
:105210009DF9143801B23A46A06913F015FBB42287
:105220001146A0690AF046F9204A0021A0690AF057
:1052300056F9206913F07DF9002300901A461946AB
:10524000A06912F041FD0021A06810F0FBFF606131
:1052500013F024F901463C2206F15800FBF707FC45
:1052600006F158011448486228690090BDF8000012
:10527000A6F87800606913F027FB00200346024679
:105280000090D4E9050112F01FFD0121606913F0BF
:105290005BFA0121606913F090FA6069BDE8F8409B
:1052A000002113F086BA0000101C0120380E0120E6
:1052B0004CC101084C010020A002002010B51020B4
:1052C00008F058FCF8B10021124803F029F9112028
:1052D00008F050FCC8B100210E48203003F020F93E
:1052E000122008F047FC90B100210A48403003F03A
:1052F00017F9022008F03EFC01460648BDE81040C0
:10530000603003F00DB90121DEE70121E4E701215E
:10531000EBE700000C050020064991F90020101869
:1053200001D5052002E0052800D900200870C0B290
:1053300001F07CB95000002001462D2008F02ABC65
:1053400044F620624FF47A710A20FDF77DBD00001B
:1053500010B514F06FF8BDE81040014803F0C2B971
:10536000B006002001F0A3FA4FF4FA7421460020A1
:1053700001F09AFF01210807FDF7F2FD0120FDF77A
:10538000C1FDFDF7F1FF064841880320FEF712F842
:10539000FDF7EAFF204603F023F802F0EFF90000E2
:1053A000040000202DE9F0411D4C1E496422606874
:1053B000B0FBF1F1B1FBF2F302FB13174EF66021E3
:1053C000B0FBF1F13C22B1FBF2F302FB13164FF4F8
:1053D0007A71B0FBF1F3B3FBF2F502FB1535B0FBCC
:1053E000F1F201FB1208A078411CA170142810D919
:1053F00029B2A06912F087FB3A460BA1E06911F0CF
:1054000017FD2B4632460AA1206A11F011FD00203B
:10541000A0704246606ABDE8F0410AA111F008BDE3
:10542000D400002080EE36002530326400000000F9
:105430002530326423464630303030203A23253040
:10544000326400002E253033640000001FB5074A87
:10545000002303928DE80B000548064A0649B0F97F
:105460000030806900F0A4FA1FBD000035F200088A
:105470004C010020757600089C0D012010B50348F2
:1054800004F08EFA024880ED000A10BDDC04002012
:105490000000002038B5554C002160680AF080F902
:1054A000E06112F0FBFF01463C225148FBF7DFFAB6
:1054B0004F48002124380091BDF8002020F8262F05
:1054C000BDF8001041804A49FF224A4D0A7201226C
:1054D000CA862A690092BDF800204286464A4A627E
:1054E00069690091BDF80010C1834149E06913F07A
:1054F000EBF90121E06913F060F90021E06913F094
:1055000058F950225A21E06913F09EF914200090B6
:105510000F230D222169E06912F0D6FB0021E0691A
:105520000BF00DFA0221E0690BF0FAF9B221E06903
:105530000BF0D5F90121E0690BF0E2F97F21E06978
:105540000BF0BCF903220421E0690BF07BF8642224
:105550000021E0690BF09CF9E06912F0CDFF81B207
:10556000E0690BF023F93221E0690BF07FF8FF22AC
:105570001146E0690BF0F6F9012302221FA1E06950
:105580000BF0F8F9A969E0690AF0DCF8014620623D
:105590001E4890ED030ABDEEC00A10EE100A02B2DA
:1055A000E0690AF0E5FF0021606810F04BFE104949
:1055B0006062A83113F088F915A1606A11F0E5FB6B
:1055C0000A20009043420D22E169606A12F07CFBE0
:1055D0000121606A13F0B8F80121606A13F0EDF858
:1055E000606ABDE83840002113F0E3B818010020DC
:1055F000B80C012020C10108E80300206D0A3830F2
:105600000A36300A34300A32300A3000E40500200D
:105610002D6D0000F8B52A4CE16908460BF000FC3E
:105620006063E06912F016FF0546E06912F064FF5E
:1056300001462A46606B13F007F9002600963346B0
:1056400032463146606B12F03FFB616A08460BF050
:10565000E7FBA063606A12F0FDFE0546606A12F087
:105660004BFF01462A46A06B13F0EEF8002300968C
:105670001A461946A06B12F027FB606B12F00EFF62
:1056800001463C220F48FBF7F2F90F4841690091AF
:105690000C49BDF80020743921F8762F80690090FC
:1056A000BDF8000048800749FF200872606B13F0C6
:1056B0000BF9A06BBDE8F840024913F005B90000F2
:1056C000740100208410012070C101080148007895
:1056D00070470000F80200202DE9F843324C002109
:1056E000A0680BF09DFB3149606113F0EDF801F00B
:1056F000D7F80546206912F01CFF281A143802B2A8
:105700004621606913F0A0F80A200090D4E9041043
:1057100000230D2212F0D8FA002160690BF080FB03
:105720002249A06113F0D0F8606912F0E5FE01464D
:105730004FF4D272A06913F087F8606912F08AFE04
:105740000146A06913F0D6F80025A84604F1240705
:105750000021A0690FF030FF064607EB05108660B8
:105760000168304610F0E3FB002302221946304660
:10577000CDF8008012F0A8FA304612F06BFEC0F1AE
:10578000320000EBD070C5EBC501401001EB810188
:1057900000EB410001B2304613F0ACF86D1C062D51
:1057A000D6D3BDE8F8830000500000205C1B012028
:1057B0000EB5022800D90020084B0ECB8DE80E0054
:1057C00007498B784A785DF8201005480C38C06A84
:1057D00011F02EFB00F024F80EBD0000BCC1010842
:1057E0008001002010B586B0032800D900200A4CA3
:1057F0000DF1040C1ECC8CE81E0008498A7800923A
:105800004B780A7801A951F8201004480838006A3A
:1058100011F00EFB06B010BDACC101087C010020E8
:1058200010B50C48FDF7D0FD0A480078401E40B284
:10583000002801DA002002E0062800DD06200549E4
:10584000383151F8201003480C38006BBDE8104087
:1058500011F09BBA8001002010B508B106A100E04C
:1058600009A10B48C2780C38806A11F0E1FABDE852
:105870001040FFF7D5BF00002346463030303020BF
:10588000323025303264230032302530326400005B
:10589000800100202DE9FC411A4E0024A6F10C05E0
:1058A00056F8240020B318496422B0FBF1F1B1FB93
:1058B000F2F302FB13124EF66021B0FBF1F13C272C
:1058C000B1FBF7F307FB13134FF47A71B0FBF1FC54
:1058D000BCFBF7FE07FB1EC7B0FBF1FC01FB1C0085
:1058E000CDE9007055F8240008A111F0A1FA04E0F8
:1058F00055F824000AA111F062FA641C032CCFDBD6
:10590000BDE8FC81880B012080EE36002530326432
:105910003A253032643A253032642E253033640023
:105920002D2D3A2D2D3A2D2D2E2D2D2D0000000040
:1059300010B588B001F01AFA154C206811F004FC7B
:10594000606811F001FCA4F12F010020FDF7D6FBE7
:105950001C22104901A8FBF78AF8A4F12F00017856
:10596000491E49B2002901DA002102E0062900DDC2
:10597000062101AA52F82110009183784278044848
:1059800005A13838006A11F053FA08B010BD0000C4
:1059900048000020D0C0010825303264234646303C
:1059A000303030202F232530326420257300000052
:1059B0002DE9F0478AB01C46DDE9127ADDE914983A
:1059C0001546064619B9684609F022FC6946081DC5
:1059D0000E60C1E9044780E82003A1F818A008463A
:1059E00009F0C0FB0AB0BDE8F08700002DE9F843DC
:1059F00000252E46DFF86C80FEF76CFD00210BF0D1
:105A00000FFA08EB8514206000F04AFF074600F00B
:105A10009DFD01463A46206812F016FF00230096CD
:105A20001A461946206812F04FF92068334632466C
:105A3000314600960BF07DFE201D3C220A49FBF703
:105A400016F80096BDF80000E0800096BDF8000052
:105A50002081211D206812F037FF6D1C092DCBDB42
:105A6000BDE8F883C4060020101C012010B50121F8
:105A70000807FDF775FA0120FDF744FA0220FDF74B
:105A8000BDFB0004000C4FF47A7101D0884200D9AC
:105A9000084610BD38B5194C0021206910F0D2FB22
:105AA000206212F0FBFC01463C221548FAF7DFFFAA
:105AB000134914484862144840680090A1F15C0002
:105AC000BDF80010A0F87C100D49206A12F0FCFE11
:105AD0000121206A11F046F90CA1206A11F06FF93A
