:020000040800F2
:1000000088FC0020550300085D0300084503000834
:100010006103000863030008650300080000000096
:10002000000000000000000000000000670300085E
:1000300069030008000000006B0300087531000828
:100040006F0300086F0300086F030008312F0008DA
:100050006F0300086F03000831260008F52600082A
:10006000192700083D270008612700086F030008D2
:100070006F0300086F0300086F0300086F03000898
:100080006F0300086F0300086F0300080000000002
:1000900000000000000000000000000085270008AC
:1000A0006F030008553200086F0300086F03000853
:1000B000A1320008CD320008FD3200086F030008AD
:1000C0006F0300086F0300086F0300086F03000848
:1000D0006F030008193D0008253D000800000000DE
:1000E00055260008312C00086F03000800000000AE
:1000F0000000000000000000000000006F03000886
:10010000000000006F0300082D3300086F03000893
:1001100000000000000000000000000000000000DF
:100120006F0300086F0300086F0300086F030008E7
:100130006F03000800000000000000000000000045
:100140000000000000000000000000006F03000835
:100150006F0300086F0300086F0300086F030008B7
:100160006F0300086F03000800000000000000009B
:10017000000000000000000000000000000000007F
:10018000000000006F0300080000000000000000F5
:100190006F0300086F03000800F002F800F0BBF8DE
:1001A0000AA090E8000C82448344AAF10107DA45D2
:1001B00001D100F0B0F8AFF2090EBAE80F0013F069
:1001C000010F18BFFB1A43F001031847A087050071
:1001D000C08705000A444FF0000C10F8013B13F0F3
:1001E000070408BF10F8014B1D1108BF10F8015B90
:1001F000641E05D010F8016B641E01F8016BF9D183
:1002000013F0080F1EBF10F8014BAD1C0C1B09D1D9
:100210006D1E58BF01F801CBFAD505E014F8016B4B
:1002200001F8016B6D1EF9D59142D6D370470000DD
:100230000023002400250026103A28BF78C1FBD8EF
:10024000520728BF30C148BF0B6070476E2900F0CD
:10025000B285702900F04782662918F02B80652945
:1002600018F02880672918F025806129AFF30080F5
:1002700003681B0A28BF41F08001692900F0B8819A
:10028000642900F0B581752900F0B2816F2901F071
:100290009880782900F01382E92901F03380E4295D
:1002A00001F03080F52901F02D80EF2901F09580D3
:1002B000F82900F012820368DB0928BF41F08001B1
:1002C000632901F06F81732901F07481E32901F042
:1002D0007F81F32901F08481002070471FB517F05A
:1002E000E4FF9DE8030000F091FC00F06BFC0400CB
:1002F0000020002117F0FAF9401C60600020002166
:1003000017F00AFAE06000F047FC1FBD10B50020AE
:1003100001F06EF810BD01F05CFA1146FFF7DEFF48
:1003200016F07EFA01F07EFA03B4FFF7EFFF03BC8C
:1003300001F048FAEFF308807047EFF30980704747
:1003400068467047704669460AF068F817F0F8F892
:10035000FEE700000948804709480047FEE7FEE73E
:10036000FEE7FEE7FEE7FEE7FEE7FEE7FEE7FEE765
:1003700004480549054A064B70470000F93100085A
:100380009901000888EC002088FC002088F40020F7
:1003900088F4002010B500F015FC001D10BD00BF52
:1003A0004D73010070B5064600F008FC056806F1C3
:1003B0000B0020F00704B4429CBF002070BD2B4608
:1003C0006A68BAB11068A04210D304F108018842EB
:1003D0003CBF5068586007D35168101941601168DC
:1003E000091B016058601460101D70BD13465268EF
:1003F000002AE7D12146284600F0F4FB0028DED190
:1004000070BD70B50446051F00F0D8FB0068002CD5
:1004100014BF446870BD002C18BFAC423CBF2046DE
:100420006468F8D301680A18AA4218BF456003D16E
:100430002A6805461144016028684119A1421CBF81
:100440006C6070BD6168696021680844286070BD97
:1004500053EA020C00F069802DE9F04B4FF00006E2
:10046000002B1FBFB3FA83F503FA05F424FA05F64F
:100470005E4012BF1643B2FA82F502FA05F4C5F1E6
:1004800020051EBF22FA05FC44EA0C04203556EA7A
:10049000044C4FEA144418BF641C4FF000084FF09E
:1004A0000009904271EB030C39D3002919BFB1FA4E
:1004B00081F701FA07F6B0FA80F700FA07F6C7F1FC
:1004C00020071EBF20FA07FC46EA0C062037B6FBC1
:1004D000F4FCA7EB0507103F07F01F0BCBF120063C
:1004E0000CFA0BFB2CFA06F644BFB3460026202F6D
:1004F000A4BF5E464FF0000B5BEA060C08BF4FF04E
:10050000010B19EB0B09ABFB027C48EB0608C01B87
:1005100006FB02CC0BFB03CC71EB0C01C1E70B46D5
:10052000024641464846BDE8F08B13B54FF0000047
:100530004FF00001AFF30080BDE81C4070470000A1
:100540007CB51D4616460C00009001D02044401E8C
:10055000074B7B442A4669460190304600F053FE23
:1005600005461CB10020694600F060FE28467CBDAF
:10057000E10C00000FB41CB5084B06AA7B44694689
:100580000090059800F03FFE04460020694600F008
:100590004DFE20461CBC5DF814FB0000AD0C0000B5
:1005A00070B5044685690068C10601D5302600E0B3
:1005B0002026C00707D070BDD4E9012130469047FE
:1005C000206A401C20626D1EF6D570BD70B50446D1
:1005D00085690078C00707D170BDD4E901212020CA
:1005E0009047206A401C20626D1EF6D570BD000049
:1005F0002DE9F0410646002410687529314616A5FC
:1006000010D000F044FB002802DA404213A507E0B6
:1006100031688A0701D512A502E0490704D511A562
:10062000012401E000F03CFB00210A2206F124072E
:1006300009E0B0FBF2FCB0FBF2F302FB1C0030302F
:1006400078541846491C0028F3D123462A463046E0
:10065000BDE8F04100F056BB000000002D00000096
:100660002B00000020000000F0B40D4601880905B1
:1006700002D5214C7C4402E01F4C7C440E34002106
:1006800000F1240608E002F00F071209E75D42EAD4
:1006900003721B097754491C52EA0307F3D102780D
:1006A0000023120704D5702D06D009B1022311349E
:1006B0002246F0BC00F026BB01231034F8E770B5E9
:1006C00004460D462146106800F0EAFA0246294623
:1006D0002046BDE870400023C6E7D21D22F0070384
:1006E000D3E90023C0E70368126843F020030360E6
:1006F0000823C3610023B7E78C7805002DE9F05F7C
:10070000894604464FF0000ADFF874B1FB44C0F894
:1007100020A02046E1688847002874D0252806D00C
:10072000D4E901219047206A401C2062F1E70026AD
:100730005F462046E16888472028054607DB312DC3
:1007400005D2781910F8200C08B10643F1E7B0077C
:1007500001D526F00406C4F81CA00027C4F818A090
:100760002A2D09D0284608F066FD38B304EB870827
:10077000303DC8F8185019E059F8041B204604EB26
:1007800087029161E1688847012F054618D1E06929
:10079000002820DA26F020061DE0D8F8180000EB2B
:1007A000800005EB40003038C8F818002046E168AA
:1007B0008847054608F03FFD0028EED1012F0AD0FA
:1007C0002E2D08D12046E16888477F1C0546022F60
:1007D00046F02006C4DBA069002803DA404246F058
:1007E0000106A061F00701D026F010066C2D0BD099
:1007F000682D09D04C2D39D06A2D35D0742D35D0C7
:100800007A2D33D016E038E0E1682F46204688473D
:10081000B842054609D16C2F26D04FF48060E168BC
:10082000064320468847054604E06C2F1AD04FF453
:10083000807006430DB3A5F14100192802D8203578
:1008400046F400664A462946204626604E46FFF793
:10085000FDFC80B101280BD0F61D26F0070000F149
:10086000080956E74020E4E78020D8E70020D6E7D3
:1008700006F104094DE7284652E7206ABDE8F09FDB
:100880001C7805002DE9F041074615460E4610205C
:10089000FFF788FD04000AD06760C4E9026500F034
:1008A00095F90168216004600020BDE8F081012015
:1008B000FBE740EA0103024630B59B0710D14FF039
:1008C000013400E008C208C91D1B9D4315EAC41F7E
:1008D000F8D013F0FF0102F8011B0DD01B0AF8E756
:1008E00011F8013B002B02F8013B05D011F8013B48
:1008F000002B02F8013BF3D130BD10B5431C02E0E0
:1009000010F8011B71B18107FAD14FF0013202C812
:100910008C1A8C4314EAC211F9D0C01A0A0603D00B
:10092000C01E10BDC01A10BD0A0401D0801E10BD2B
:100930000902FCD0401E10BD032A40F2308010F0A6
:10094000030C00F0158011F8013BBCF1020F62446A
:1009500098BF11F801CB00F8013B38BF11F8013BFB
:10096000A2F1040298BF00F801CB38BF00F8013BA8
:1009700011F0030300F02580083AC0F0088051F818
:10098000043B083A51F804CBA0E80810F5E7121D23
:100990005CBF51F8043B40F8043BAFF30080D20742
:1009A00024BF11F8013B11F801CB48BF11F8012B0E
:1009B00024BF00F8013B00F801CB48BF00F8012B31
:1009C000704710B5203AC0F00B80B1E81850203ABB
:1009D000A0E81850B1E81850A0E81850BFF4F5AFDF
:1009E0005FEA027C24BFB1E81850A0E8185044BF69
:1009F00018C918C0BDE810405FEA827C24BF51F8D6
:100A0000043B40F8043B08BF7047D20728BF31F8C9
:100A1000023B48BF11F8012B28BF20F8023B48BF1A
:100A200000F8012B70474FF000020429C0F012803B
:100A300010F0030C00F01B80CCF1040CBCF1020F91
:100A400018BF00F8012BA8BF20F8022BA1EB0C0166
:100A500000F00DB85FEAC17C24BF00F8012B00F85C
:100A6000012B48BF00F8012B70474FF0000200B582
:100A7000134694469646203922BFA0E80C50A0E8C1
:100A80000C50B1F12001BFF4F7AF090728BFA0E86F
:100A90000C5048BF0CC05DF804EB890028BF40F83B
:100AA000042B08BF704748BF20F8022B11F0804F7D
:100AB00018BF00F8012B704710B5044610F0030F63
:100AC00008BF11F0030F40F015804FF0013E121FD8
:100AD000C0F20E8051F8043BA3EB0E0C2CEA030C81
:100AE0001CEACE1C08BF40F8043BF0D0A1F1040181
:100AF00002F10402521E08DB11F8013B002B00F842
:100B0000013BF7D11146FFF78EFF204610BD0000D4
:100B10004FF0013C50F8042B51F8043B9A4221D18C
:100B2000A2EB0C03934313EACC1317D150F8042B18
:100B300051F8043B9A4215D1A2EB0C03934313EAFC
:100B4000CC130BD150F8042B51F8043B9A4209D135
:100B5000A2EB0C03934313EACC13DBD04FF000005D
:100B6000704700BFD01A01BAB1FA81F101F0180143
:100B700022FA01F0CB40C1F12001DBB2C0B2C01AB1
:100B80002CFA01F3D11A914311EAC311E6D170474F
:100B9000704770477047000070B5064C7C44064DA6
:100BA0007D4403E0206820448047241DAC42F9D1F5
:100BB00070BD0000187F0500307F050000487047B9
:100BC00030EC00200048704748EC00200048704797
:100BD00060EC00200048704728EC00207047704708
:100BE0007047704738B504460A4600206946AFF39F
:100BF0000080002808BF38BD02460099204600F05A
:100C000027FC012038BD012000F085BDF8B5AFF309
:100C10000080054600200C46102000BF0646A8199B
:100C2000A0420DD9324669460020AFF3008007008C
:100C300008BF00F070FD0098A04218BF0546C41917
:100C4000FFF7BCFF05600746F01D20F007004619BE
:100C5000284600F00AF8B44208BFF8BDA21B31468E
:100C60003868BDE8F84000F0F3BB00210160C0E93E
:100C7000011070471020704710B5FFF7ABFF0068F8
:100C800010BD10B50446FFF7A5FF046010BD09684C
:100C90004A0501D540B27047C905FCD500B270477E
:100CA00009684A0501D5C0B27047C905FCD580B2B4
:100CB000704770B50C460546012A05D02878800695
:100CC00000D5EA69002302E0012305E05B1C9342A2
:100CD00002D2E05C0028F9D1A869E618C01AA86120
:100CE000286A184428622846FFF75AFC04E0D5E930
:100CF000012114F8010B9047B442F8D32846FFF7BE
:100D000065FC70BD2DE9F0470D46994692460446B4
:100D100000F124080168880604D5E06921F010017B
:100D2000216000E00120A84201DD471B00E0002710
:100D3000A1697A1902EB0900081AA0612078C0069F
:100D400002D42046FFF72CFC002608E0D4E901215C
:100D50001AF806009047206A401C761C20624E4517
:100D6000F4DB2078C0060AD52046FFF719FC06E020
:100D7000D4E9012130209047206A401C2062381EAF
:100D8000A7F10107F4DC07E0D4E9012118F8050018
:100D90009047206A401C2062281EA5F10105F3DC63
:100DA0002046FFF713FC2078000602D50220BDE89C
:100DB000F0870120FBE711680268006A530501D53E
:100DC00008700AE0D30501D5088006E0130603D5B4
:100DD000C217C1E9000200E00860012070477047B7
:100DE0002DE9FF4F0C461E464FF0FF378BB0D2E97E
:100DF0000001DDF860800A908A46C1F30A5505B902
:100E00003D46002108464FF00000BAF1000F00F403
:100E1000400005DA00EB80004FF4400101EA500089
:100E20004FEA9059B9F1010F00DDB9460A9850EA2E
:100E30004A000ED044F61050A5F2FF3545432F145A
:100E4000B8F1000F1ED07542291E1EDDC9F1000247
:100E50001CE0B8F1010F4FF0000001D0302103E099
:100E6000F24305E02154401CB042FBDB3046002237
:100E7000002121540B99C1F80880C1E900200FB06E
:100E8000BDE8F08FBD1B6D1CDEE74A4600DA694203
:100E900006A800F0A9FB06AB93E8070003AB83E8C4
:100EA000070050460A9900F057FD8DE80700A0F5AD
:100EB00000501F3800900398002D0ADD42F21F01F8
:100EC0004A460844002303A90390684600F0C0FF87
:100ED00009E0A0F500504A461F38002303A90390FB
:100EE000684600F0CAFF8DE807000004000C03D03C
:100EF0004FF0FF30410800E01046B8F1000F03D07A
:100F00000022009215461EE0751E05D400F0BAFAC4
:100F1000303262556D1EF9D5B3460122084302D026
:100F200000227F1C04E02078302801D100227F1E9F
:100F3000002A099784D01DE0112D07DA00F0A2FAEB
:100F4000303262556D1C50EA0102F5D1084302D0DF
:100F50000098C8B10EE00021681E05E0235C625CC9
:100F600063542254401E491C8142F7DBAB46A81B48
:100F7000401E0990002004F80B000B98099AC0F855
:100F80000880C0E9002B7AE711264FF0000857E7E8
:100F90002DE9F04F88460446D21D22F0070191B09A
:100FA000D1E90001CDE90A0107F084F902460B9866
:100FB000C00F01D02D2007E02068810701D52B202C
:100FC00002E0202101EAC000032A099001D0072A8B
:100FD00005DB03464146204600F09AFA0BE12078F3
:100FE000800601D5E06900E00620B8F1650F814672
:100FF00006D0B8F1660F18D0B8F1670F70D131E0A4
:101000000020B9F1110F009001DB112301E009F17B
:1010100001030AAA01A90CA8FFF7E2FEDDE90C70A2
:10102000002609F10105834647E001204B46009068
:101030004FF000470AAA01A90CA8FFF7D1FEDDE98D
:101040000DB00C995D46002610B909F101000D188C
:10105000B9EB050003D4C0F1FF3609F10105A5EB9A
:1010600009002BE0B9F1010F01DA4FF0010900206E
:10107000B9F1110F0090484601DD112300E003464D
:101080000AAA01A90CA8FFF7ABFEDDE90C704D46DA
:1010900000268346207800070AD4AB4500DA5D4677
:1010A00001A8012D04DD411911F8011C302907D0D8
:1010B0004F4502DA17F1040F04DA012082460FE0EF
:1010C0006D1EEEE7002F02DCED1B3E4403E0781CB2
:1010D000A84200DD7D1CB81B00F1010A4FF000475B
:1010E0002078000703D4AA4501DB4FF0FF3A002126
:1010F000B7F1004F0DF143088DF8431024D00220C2
:101100002B23002F01DA7F422D230A21021EA0F19A
:10111000010000DC5FB197FBF1FC97FBF1F201FBF2
:101120001C7C17460CF1300C08F801CDEEE7A8F155
:10113000010003702188090501D5452100E06521E2
:10114000A0F1010800F8011C09980FA9A1EB0807FC
:10115000FF1D00B10120411901EBEA70A16938447B
:10116000081A401EA0612078C00602D42046FFF76E
:1011700017FA099828B1D4E901219047206A401C48
:1011800020622078C00622D52046FFF709FA1EE02B
:10119000002E04DBB34502DD01A8805D00E03020B5
:1011A000D4E901219047206A401C2062761CAAF1F4
:1011B00001005FEA000A0AD1FFF704FDC068016878
:1011C000405CD4E901219047206A401C2062281E1F
:1011D000A5F10105DCDC07E0D4E9012118F8010BD9
:1011E0009047206A401C2062381EA7F10107F3DCFB
:1011F0002046FFF7EBF9032011B041E601694A1CD4
:1012000002610878704700B58FB0CDE90131002147
:10121000059105497944CDE9031011466846FFF769
:101220006DFA0FB000BD0000E5FFFFFF0A6802F88D
:10123000010B0A607047D1E900239A4202D2531C85
:101240000B601070704700002DE9FF5F15468A465D
:101250000446DFF8AC80F8440027D8E900103E4689
:10126000CDE9001010E03AF816106A4602A800F026
:101270002DFA411C07D02178890603D5E269391877
:1012800091420DD80744761C2078800602D5E0698B
:10129000B84205DDAE42E6DB3AF816000028E2D19E
:1012A000A069C01BA0612046FFF77AF9D8E90010B9
:1012B000CDE90010002017E03AF818106A4602A89D
:1012C00000F004FAB0F1FF3F81460BD000250DF18C
:1012D000080B05E0D4E901211BF8050090476D1CBF
:1012E0004D45F7D308F10100B0428046E4DB206AA7
:1012F000384420622046FFF769F9BDE8FF9F0000EF
:10130000266E05002DE9F0418046D21D22F007022D
:101310000025D2E90002F52915A614D0011E72F1AC
:10132000000106DA0023D0EB030063EB020211A6F2
:1013300008E0D8F800108B0701D50FA602E0490796
:1013400001D50EA601251146002408F1240704E06A
:1013500000F098F830323A55641C50EA0102F7D197
:101360002B46324621464046BDE8F041FFF7CABC55
:10137000000000002D0000002B00000020000000F5
:1013800030B4002100F1240408E002F00705D2087F
:10139000303542EA4372DB086554491C52EA0305C2
:1013A000F3D10468002310A2250707D5A40600D4B2
:1013B00021B1C46901230DA2641EC46130BCFFF7D2
:1013C000A1BC10B5044621461068FFF769FC02462F
:1013D0002046BDE810400023D2E7D21D22F00701CD
:1013E000D1E90023CCE7000000000000300000003D
:1013F0002DE9F0410646FFF7E9FB8046454613E03C
:1014000016B1E068B0420ED120682860D4E901012D
:10141000D8F8007088472046FEF7F3FFD8F80000A0
:10142000B842EBD100E025462C68002CE8D1BDE89D
:10143000F08110B500F076F9BDE8104000F066B913
:101440000048704728EC0020004870475CEC002002
:10145000034640688C46002818BF88423CBF0346BC
:101460004068F8D318681844884207D00CF103008C
:1014700020F00700001D411A521A0146081D0A609B
:10148000FEF7BFBF30B5B0F10A024FEA900E71F11E
:1014900000034EEA817EB0EB0E0061EB91014FEA52
:1014A000101E4EEA017E10EB0E0041EB11114FEAC7
:1014B000102E4EEA016E10EB0E0041EB11214FEAA7
:1014C000104E4EEA014E10EB0E0041EB1141401858
:1014D00041F100014FEAD00040EA41704FEAD101EA
:1014E00010EB80054FEA810444EA907444EB010458
:1014F0006D1944EB0404521BA3414FF0000348BF95
:101500000A3200D530BD401C41F1000130BD000061
:101510002DE9F0411F46044603260168072A01F41D
:10152000006004DB08B116A505E016A503E008B1CC
:1015300015A500E015A521F010002060A069C01ECF
:10154000A0610FB1401EA0612046FFF729F84FB1FE
:10155000D4E9012138469047206A401C2062C01C13
:10156000206206E0206AFAE7D4E9012115F8010BB0
:101570009047761EF8D22046FFF728F8BDE8F081A4
:101580004E414E006E616E00494E4600696E660027
:1015900010B5436913B1AFF3008001E0FFF789FB99
:1015A000012010BD127800F124010A7000224A7057
:1015B0000122EDE711684FF0FF32E9E710B543690A
:1015C00013B1AFF3008001E0FFF73EFE012010BD34
:1015D000128800F1240182840022C2840122EDE7F6
:1015E00011684FF0FF32E9E72DE9F04781461646D2
:1015F0008AB0354878440DC88DE80D0032487844EB
:10160000801C03AC0DC884E80D0041F69B300844F3
:10161000372190FBF1F290FBF1F5A5F1800501FB7C
:1016200012041B3C02D56442012000E00020DFF8D8
:1016300098A080460027FA44AAF1BE0A0EE0E0070F
:101640000AD03246684607EB470101230AEB8101C5
:1016500000F013FC8DE8070064107F1C002CEED115
:10166000194F7F44AE3F19E0E80715D007EB04108F
:101670000DF1180A90E80E008AE80E00C068F042EA
:1016800001D1981908903246012306A903A800F059
:10169000F4FB03AB83E807006D10641C002DE3D15D
:1016A0004FF0010332466946B8F1000F03A802D09B
:1016B00000F0CEFB01E000F0E0FBC9E90001C9F851
:1016C00008200AB0BDE8F0870C6B050070B516461F
:1016D0000C460546FEF75EFE036893F801010128FB
:1016E00006D0FF2C0FD8185D68B101202C7070BD9A
:1016F000D3F807013246214603F207130344284674
:10170000BDE8704018474FF0FF3070BD002801D091
:1017100000F058B8704710B500F0B2F8BDE81040BE
:10172000FFF7F4BF10B5002102A000F08FF80120F0
:1017300010BD00005349475056464E3A205075722E
:1017400065207669727475616C20666E2063616CC9
:101750006C656400AFF3008010B500F00EF801690D
:1017600019B100220261884701E08068804700F0DB
:1017700062F8000010B500F05EF870B500F04EF8A9
:1017800004680546A4B92020FEF70CFE040011D021
:10179000094900202C60C4E900010849A1602073B8
:1017A000206160610649A06109B100F091F8E06133
:1017B000204670BD00F03FF80000000075170008DB
:1017C0000000000001491820ABBEFEE72600020021
:1017D00070477546FFF734FEAE460500694653462E
:1017E00020F00700854618B020B5FEF7C1FDBDE822
:1017F00020404FF000064FF000074FF000084FF078
:10180000000B21F00701AC46ACE8C009ACE8C00908
:10181000ACE8C009ACE8C0098D4670470048704785
:1018200064EC002010B50446AFF300802046BDE80C
:101830001040FEF779BD10B5002000F06EF8FEF7FD
:1018400065FDBDE810400120FFF7BCBF70B505463F
:101850000C460A2000E06D1C00F058F835B12878DD
:101860000028F8D102E0641C00F050F814B1207890
:101870000028F8D1BDE870400A2000F047B8000009
:1018800010B5012805D0002103A0FFF7DFFF0120DC
:1018900010BD09A1F8E7000053494752544D454D8A
:1018A0003A204F7574206F662068656170206D6501
:1018B0006D6F7279000000003A2048656170206DFC
:1018C000656D6F727920636F7272757074656400F4
:1018D00010B58820FEF766FD002801D000210170B8
:1018E00010BD802902D808B1017809B100207047E5
:1018F000012100F8081B704718B100F1080291425D
:1019000001D00020704700210170704708B569467A
:101910008DF800000320ABBE08BD10B500F004F840
:10192000BDE81040FFF7F2BE10B5002102A0FFF79E
:101930008DFF012010BD0000534947414252543AE7
:101940002041626E6F726D616C207465726D696E9C
:101950006174696F6E0000005FEA400C08BF91F08F
:10196000000F4FEA8C234FEAC12243EA51514FEA5C
:101970001C5018BF00F5F0404FEA300018BF41F08E
:1019800000415FEA6C5C00F02980BCF1FF3F08BFBA
:1019900040F080407047130C06BF12044FF0100C4B
:1019A0004FF0000C130E04BF12020CF1080C130FC1
:1019B00004BF12010CF1040C930F04BF92000CF150
:1019C000020CD30F04BF52000CF1010C11464FF072
:1019D0000002A0F11F00A0EB0C00704711F0004FB7
:1019E00008BF704731F000413FF4D5AF0B0C06BF84
:1019F00009044FF0100C4FF0000C0B0E04BF09024D
:101A00000CF1080C0B0F04BF09010CF1040C8B0F37
:101A100004BF89000CF1020CCB0F04BF49000CF18C
:101A2000010CCCF12003A0EB0C0022FA03F302FA24
:101A30000CF241EA030100F10100704720F07F4CF5
:101A400080EA030023F07F47ACEB070303F57C53E8
:101A500000F0004003F1FF032DE980494FEA154BE8
:101A600009B44FEA144325EA0B4E24EA03480FF267
:101A7000042606EB132749083E785FEA320203FB8F
:101A80000667C7F5000707FB06F64FEA54374FEA2B
:101A9000D64606F1020607FB066CCCF1005C4FEA65
:101AA0001C472CEA074C07FB06F40CFB06F504EB7D
:101AB00015464FEA961634BF00204FF000404FEA1B
:101AC000D13706FB07FC4FEA1C4C0CFB0BF7D21B73
:101AD00003FB0CF761EB07010CFB0EF7B0EB0740C3
:101AE00072EB17420CFB08F734BFA2EB0742B2EBD4
:101AF000074261EB17414FEA0C444FEA910706FB9E
:101B000007FC4FEA1C4C0CFB0BF7B0EBC74072EB29
:101B1000573203FB0CF734BFA2EBC742B2EBC7420C
:101B200061EB57310CFB0EF7B0EBC70072EB57724D
:101B30000CFB08F734BFA2EBC702B2EBC70261EBA4
:101B40005771039F4FEA816141EA921104EBCC0483
:101B50004FEAD1374FEA826206FB07FC42EA901255
:101B60004FEA80604FEA1C4C0CFB0BF7D21B03FBC7
:101B70000CF761EB07010CFB0EF7B0EB074072EBC3
:101B800017420CFB08F734BFA2EB0742B2EB074247
:101B900061EB17414FEA8C554FEA910704EB9C2407
:101BA00006FB07FC4FEA1C4C0CFB0BF7B0EBC740E5
:101BB00072EB573203FB0CF734BFA2EBC742B2EB18
:101BC000C74261EB57310CFB0EF7B0EBC70072EB6D
:101BD00057720CFB08F734BFA2EBC702B2EBC70287
:101BE00061EB577115EB4C254FEA816141EA921187
:101BF0004FEA82624FEAD13742EA901206FB07FCB5
:101C000044F100044FEA80604FEA1C4C0CFB0BF7D8
:101C1000D21B03FB0CF761EB07010CFB0EF7B0EBDB
:101C2000074072EB17420CFB08F734BFA2EB0742E8
:101C3000B2EB074261EB174115EB1C154FEA8131FE
:101C400041EA92414FEA823242EA90424FEA8030C2
:101C50004FEA0C7644F1000448EA03434EEA0B488D
:101C60004FF0000EB2EB080C71EB030724BF624685
:101C700039464EEB0E0E4FF0000B00185241494111
:101C80004BEB0B0BB2EB080C71EB03077BF1000B7A
:101C900024BF624639464EEB0E0E4FF0000B001883
:101CA000524149414BEB0B0BB2EB080C71EB0307B4
:101CB0007BF1000B24BF624639464EEB0E0E51EA13
:101CC000020718BF46F0010616EB0E7655F100022A
:101CD00054F1000103D5BDE88901BDE80088BDE8E5
:101CE0008901BDE80048B619524141EB0101A3F159
:101CF0000103704780807F7E7D7C7B7A7978777660
:101D000076757473727171706F6E6E6D6C6C6B6AD8
:101D10006A69686867666665646463636261616076
:101D2000605F5F5E5E5D5D5C5C5B5B5A5A595958F3
:101D3000585757565655555554545353525252515D
:101D4000515050504F4F4F4E4E4D4D4D4C4C4C4BB3
:101D50004B4B4A4A4A4949494848484747474746FA
:101D60004646454545444444444343434342424236
:101D700042414141002B9C4630D477002BD01CB50A
:101D80004FEA370703B44FF010004FF01001BAF1DB
:101D9000000F06D0BCF1000FDCBF40F0080040F09F
:101DA00008014FF000000FBCBDE810400BF1010B23
:101DB000BBF1010F08BF5FEA170722BF12F1010252
:101DC00011F101014FF0004143F1000300F0004028
:101DD00043EA00007047F9D35708D0E746EA0646C1
:101DE00013F1400F4FEA16461FDD13F1200FDFBF3E
:101DF00016430A46002120335B42BED0C3F12007C0
:101E000046EA064602FA07F74FEA164646EA07068A
:101E1000C3F1200722FA03F201FA07F721FA03F1CE
:101E20004FF0000342EA0702A7E746EA020646EA45
:101E300006464FEA164646EA0106BCBF46EA064693
:101E4000360C4FF000034FF000024FF0000194E712
:101E50002DE9804C9A46934670B491E8380007C843
:101E600031EA400C48BF34EA430C03D5FFF7E6FDE6
:101E7000FFF780FFF0BCBDE8008C2DE9804C9A464E
:101E8000934670B491E8380007C810F0804F08BF3F
:101E900013F0804F03D100F005F8FFF76BFFF0BCA3
:101EA000BDE8008C20F07F4780EA030023F07F4CE0
:101EB00007EB0C03A3F57C5300F00040A3F1FE03F5
:101EC00092F0000F00F0B38095F0000F00F07780E3
:101ED0002DE901494FEA11404FEA144621EA004832
:101EE00000FB06FC24EA064708FB06F607FB08F899
:101EF00000FB07F718EB06484CEB164C4FEA124B69
:101F000018EB07484FEA15464CEB174022EA0B4EF8
:101F10000BFB06FC25EA06470EFB06F607FB0EFE4A
:101F20000BFB07F71EEB064E4CEB164C4FF0000672
:101F30001EEB074E4CEB174B18EB0B0840F1000063
:101F400018EB0E0B58EB000840F100008F1A4FF011
:101F500000013CBFC943661B14BFB5EB040C002154
:101F60003CBFC943F61B4FEA17444EEA8E0E27EAE0
:101F700004454FEA1C4704FB07622CEA074C05FBAB
:101F800007F70CFB05F604FB0CFC16EB074642EBCF
:101F9000174216EB0C4642EB1C421BEB060658EBB5
:101FA0000202414146EA9E0601D5BDE80189B61903
:101FB000524141EB0101A3F10103BDE801894FEA60
:101FC00014454FEA114724EA054621EA074C05FB70
:101FD00007F406FB07F70CFB06F105FB0CFC11EB05
:101FE000074144EB17444FEA124711EB0C4144EB15
:101FF0001C4422EA074C05FB07F206FB07F70CFB23
:1020000006F605FB0CFC16EB074642EB174216EBF7
:102010000C4642EB1C456A1854F1000148BF70475A
:10202000B619524141EB0101A3F10103704795F04C
:10203000000F37D04FEA11424FEA144721EA024617
:1020400024EA074C02FB07F106FB07F70CFB06F43A
:1020500002FB0CFC14EB074441EB17414FEA154718
:1020600014EB0C4441EB1C4125EA074C02FB07F53D
:1020700006FB07F70CFB06F602FB0CFC16EB07460B
:1020800045EB174516EB0C4645EB1C42121951F176
:10209000000148BF7047B619524141EB0101A3F15D
:1020A000010370474FEA14454FEA114724EA0546F9
:1020B00021EA074C05FB07F106FB07F70CFB06F2CC
:1020C0004FF0000605FB0CFC12EB074241EB1741F9
:1020D00012EB0C4251EB1C4148BF7047921841EB88
:1020E0000101A3F1010370470029816802D041F08A
:1020F000010101E021F0010181607047084B10B53A
:10210000D3F8042307490A40D0E900142143D0E959
:102110000240044321431143C3F8041310BD0000DF
:1021200000200140E030FCFF0029816802D041F42A
:10213000807101E021F4807181607047002981681D
:1021400002D041F4007101E021F400718160704718
:1021500010B5194C90B0204600F084F90121880593
:1021600000F0E4FC204600F00FFA0028FAD11348F2
:102170000021CDE900101248CDE902011148007894
:10218000CDE904014FF48060069040000790800084
:10219000089000010A90401209900120CDE90B102F
:1021A0000D910E916946204600F0F6F90121204676
:1021B00000F04EF910B010BD106402404C200140F8
:1021C00058EA0020DC0300202DE9F04101218AB00B
:1021D000080200F0CFFCFFF7BBFF00F0B7F80024C7
:1021E0004FF40030CDE906404FF470600990089438
:1021F00006A8FFF783FF01201C4E8DF80400009411
:102200008DF80500029404943078194D8DF814006F
:102210006946284600F0A6F801212846FFF764FF2A
:10222000A846144F0FE0651CEAB217F814100723F4
:10223000404600F0BDF837F81400122802D1012002
:1022400000F0F6F8ACB230788442ECD30121444679
:102250004046FFF773FF01212046FFF765FF204648
:1022600000F0E0F80AB0BDE8F0810000DC030020D7
:102270000020014034EA002070B5264D0446264E69
:10228000687848B90020FF2126F81010401CC0B221
:102290001228F9D30120687034B3012C24D0022C09
:1022A00022D0032C20D0042C1ED0052C1CD0062CB0
:1022B0001AD0072C18D0082C16D0092C14D00A2CB0
:1022C00012D00B2C10D00C2C0ED00D2C0CD00E2CB0
:1022D0000AD00F2C08D0102C06D0112C04D0122CB0
:1022E00002D04FF0FF3070BD204600F017F8401CC0
:1022F00002D06FF0010070BD2878122802D36FF071
:10230000020070BD26F81040401CC0B22870401E6C
:1023100070BD0000DC03002034EA00200A4910B53B
:1023200002460020074B097806E000BF33F8104052
:10233000944205D0401CC0B28842F7D34FF0FF3022
:1023400010BD000034EA0020DC03002010B501219C
:102350000C02204600F01AFC2046BDE81040002187
:1023600000F014BC30B542680F4B0C791A400B6872
:1023700042EA04221343436082680C4B4D791A40B1
:10238000D1E9034323438C6844EA450423431343C0
:102390008360C26A097D22F47002491EC9B242EA12
:1023A0000151C16230BD0000FFFEFFFCFDF7FFC020
:1023B00070B5072409290AD9C568A1F10A0606EBF8
:1023C0004606B440A543B3401D43C56007E0056918
:1023D00001EB4106B440A543B3401D4305611F23F3
:1023E000072A09D2446B521E02EB820293409C439F
:1023F00091400C43446370BD0D2A09D2046BD21F77
:1024000002EB820293409C4391400C43046370BDF5
:10241000C46A0D3A02EB820293409C4391400C4304
:10242000C46270BD816841F08041816070470000E6
:1024300006490028D1F8040302D040F4000001E06E
:1024400020F40000C1F804037047000000200140A0
:102450000029016802D041F0010101E021F00101F1
:10246000016070472DE9F043016821F0010101602E
:102470000021016041608160C160016121214161F1
:102480003C493C4A3D251039904202D18D60BDE85F
:10249000F083384A4FF474661832904201D18E604E
:1024A000F5E7344A4FF474173032904201D18F600F
:1024B000EDE7304A4FF0746C4832904202D1C1F8D7
:1024C00008C0E4E72B4B2C4A6033984201D1CA6024
:1024D000DDE7284C294B7834A04201D1CB60D6E708
:1024E000DFF89080264C08F19008404501D1CC607F
:1024F000CDE7DFF880804FF03D5908F1A80840454E
:1025000002D1C1F80C90C2E71E49DFF87880083983
:10251000404501D10D60BAE71A4D1835A84201D1E6
:102520000E60B4E7174D3035A84201D10F60AEE719
:10253000144D4835A84202D1C1F800C0A7E7114D9B
:1025400010496035091FA84201D10A609FE70D4A72
:102550007832904201D10B6099E70A4A903290425A
:1025600001D10C6093E7074AA83290428FD1C1F89D
:1025700000908CE7106002403D000020400F0020DA
:1025800000003D2010640240014600200968C90790
:1025900000D001207047000030B50368124ACC68B3
:1025A00013400A682243D1E905452C432243CC69F4
:1025B00022430C6A22434C6A22438C6A22434C6BAE
:1025C00022438C6B22431A430260426922F00703C4
:1025D000D1E90B2422431A4342610A6942604A68E6
:1025E00082608968C16030BD3F801CF070B500F02A
:1025F000C9FD0E484FF47A714FF0FF350068B0FB0B
:10260000F1F1491EB1F1807F0AD24FF0E0246161FF
:102610000F21284605F079FE0020A06107202061E7
:102620002846BDE87040002105F06FBEFC03002085
:1026300010B5012000F0EAF8002808D0044800682E
:1026400000B18047BDE81040012000F0D9B810BDAE
:102650007CEA002070B54FF48065284600F0D6F87B
:10266000234C28B1A16A01B18847284600F0C8F878
:102670004FF40065284600F0C9F828B1E16A01B1BD
:102680008847284600F0BCF84FF48055284600F0F3
:10269000BDF828B1216B01B18847284600F0B0F899
:1026A0004FF40055284600F0B1F828B1616B01B134
:1026B0008847284600F0A4F84FF48045284600F0EB
:1026C000A5F828B1A16B01B18847284600F098F819
:1026D0004FF40045284600F099F8002807D0E16B38
:1026E00001B188472846BDE8704000F089B870BD48
:1026F0007CEA002010B5022000F088F8002808D0FD
:102700000448406800B18047BDE81040022000F056
:1027100077B810BD7CEA002010B5042000F076F8F0
:10272000002808D00448806800B18047BDE8104008
:10273000042000F065B810BD7CEA002010B5082028
:1027400000F064F8002808D00448C06800B1804751
:10275000BDE81040082000F053B810BD7CEA00200E
:1027600010B5102000F052F8002808D00448006985
:1027700000B18047BDE81040102000F041B810BD06
:102780007CEA002070B5202000F040F81B4C28B1F6
:10279000606900B18047202000F032F8402000F04E
:1027A00035F828B1A06900B18047402000F028F832
:1027B000802000F02BF828B1E06900B1804780202C
:1027C00000F01EF84FF48075284600F01FF828B17D
:1027D000216A01B18847284600F012F84FF40075CD
:1027E000284600F013F8002807D0616A01B1884735
:1027F0002846BDE8704000F003B870BD7CEA0020B8
:102800000149086070470000143C0140034A01463A
:10281000002012680A4200D001207047143C014099
:10282000024901EB0010808900F002B8247305080A
:10283000002102E04008491C89B20128FAD8C8B238
:102840007047F0B50023012403270D6804FA03F252
:102850001540954242D1D0F800C05E0007FA06F557
:102860002CEA050CC0F800C091F804C0D0F800E0D4
:102870000CFA06FC4CEA0E0CC0F800C091F804C03B
:10288000BCF1010F02D0BCF1020F1FD1D0F808C07B
:102890002CEA050CC0F808C091F805C0D0F808E093
:1028A0000CFA06FC4CEA0E0CC0F808C0D0F804C0C4
:1028B0002CEA020CC0F804C0426891F806C00CFA79
:1028C00003FC1FFA8CFC42EA0C024260C268AA4375
:1028D000C260CA79C568B2402A43C2605B1C102B33
:1028E000B3D3F0BD4B07DB0E9A40C90810B500EB1F
:1028F0008100016A0F249C40A1430162016A1143D7
:10290000016210BD7CB504463248844201D10120E9
:1029100030E03148844201D102202BE02F4884422C
:1029200001D1042026E02E48844201D1082021E074
:102930002C48844201D110201CE02B48844201D154
:10294000202017E02948844201D1402012E0284885
:10295000844201D180200DE02648844201D18015B7
:1029600008E02548844201D1401503E02348844211
:1029700020D10015FAB1012A1FD0022A20D0032A43
:1029800021D0052A21D0062A21D0072A12D10225DA
:10299000002600228DF804508DF8053000918DF846
:1029A00006608DF80720012100F0C0F86946204636
:1029B000FFF747FF7CBD0025EBE700250122E9E793
:1029C00000250222E6E70325E3E70125E0E70125EC
:1029D0002E46DEE7000002400004024000080240EC
:1029E000000C024000100240001402400018024097
:1029F000001C024000200240002402400028024047
:102A000030B50F22C47801780123FCB1144C24683E
:102A100001F1E02104F4E064C4F5E064C4F30724A8
:102A2000C4F10405E2404478AC4085781540254364
:102A30002A0181F80024007800F01F018B40400932
:102A4000800000F1E020C0F8003130BD01F01F002F
:102A500083404809800000F1E020C0F8803130BD9B
:102A60000CED00E02DE9F04717460C460646B0286D
:102A700010D2244800EB0615686858B1A87B48B10D
:102A800044B13FB1DFF8808004FB07F0D8F80010B4
:102A9000884202D90020BDE8F0870721304613F0B4
:102AA000BFFF304600F01EFD81463046FFF7B8FEFE
:102AB00001464A462868FFF715FFD8F80000264669
:102AC000B0FBF6F0B0FBF7F41049686888420CD010
:102AD0000F49884209D00F49884206D00E498842E2
:102AE00003D00E49884200D06408002100F03CFC6D
:102AF000641E761EAB7BA2B2B1B2686800F0C2FE63
:102B0000A87BC8E724730508FC03002000000140EF
:102B100000040140004001400044014000480140E1
:102B2000014908627047000000000E42044A002973
:102B3000116801D0014300E081431160704700003B
:102B400030380240044A0029116801D0014300E0F6
:102B5000814311607047000040380240044A002958
:102B6000116801D0014300E081431160704700000B
:102B700020380240044A0029116801D0014300E0D6
:102B8000814311607047000044380240044A002924
:102B9000116801D0014300E08143116070470000DB
:102BA0002438024002460020510901290BD0022995
:102BB0000CD00849096802F01F02012393400B4220
:102BC00000D00120704703497439F3E70149091F18
:102BD000F0E7000074380240054900220A700A70CC
:102BE000012802D0042801D1052008707047000098
:102BF0007038024001490860704700003C0E4742AF
:102C0000C0F30121032907D1074A116821F4F81301
:102C10000649014019431160034968310A68C0F34D
:102C20000B0002430A60704708380240FFFCFF0FA8
:102C300010B54FF48074204600F076F8012804D1D6
:102C40002046BDE8104000F017B810BD010901EBA7
:102C5000810100F00F0000EB4100C0B2704700217D
:102C600003E0491C0A38C9B2C0B20A28F9D20907E0
:102C700040EA11607047000080B240F08000C1431C
:102C80000348026802F080021143016070470000AF
:102C90000C28004008B5002000900C480168490647
:102CA00012D44FF0FF31016083130168009A01F0E4
:102CB0004001521C00929A4201D00029F5D00068D0
:102CC000400601D4002008BD012008BD0C280040AA
:102CD0000248016821F08001016070470C28004023
:102CE00010B50C460E4909680E4A11400A0CE270F4
:102CF000C1F30423637001F03F03A370C1F34231B9
:102D0000217000280BD11046FFF7A0FFE07060781B
:102D1000FFF79CFF6070A078FFF798FFA07010BDD0
:102D2000042800403FFFFF000449024600200968D4
:102D3000034B1940114200D0012070470C2800407D
:102D40007F7F010010B50C460F4909680F4A1140FA
:102D5000C1F305422270C1F30623637001F07F03C3
:102D6000A370402303EA1141E17000280BD1104603
:102D7000FFF76CFF20706078FFF768FF6070A07845
:102D8000FFF764FFA07010BD002800407F7F7F0028
:102D900070B5124D04460026CA20286053202860D2
:102DA000FFF778FFA8B10D481C38016821F04001F9
:102DB000016001682268114301600848A168143865
:102DC00001600168A28841EA02410160FFF780FFCB
:102DD0000126FF202860304670BD000024280040F6
:102DE00008B5034901EB80000090006808BD0000B1
:102DF0005028004070B50C46010060784FF0000686
:102E00002AD0FFF723FFA078FFF720FFA078E17812
:102E100040EA014560782178000240EA41300543EC
:102E2000194CCA20206053202060FFF733FF78B18F
:102E300016480540144820380560FFF749FF12483E
:102E40001C380068800602D400F080F800B101262A
:102E5000FF202060304670BDC10603D520F0100071
:102E60000A306070E078FFF7FAFE05046078FFF73B
:102E7000F6FE45EA0025A078FFF7F1FE054320782D
:102E800045EA4035CCE70000242800403FFFFF0022
:102E90002DE9F041244F0C4602004FF00006207847
:102EA0003A6831464FEA426204D0002A15DAFFF749
:102EB000CDFE13E0002A00DBE170FFF7D0FE050431
:102EC0006078FFF7CCFE45EA0025A078FFF7C7FE43
:102ED0000543E07845EA00450AE0E170A0782178F2
:102EE00040EA01456078E178000240EA014005438C
:102EF0000D4CCA201C34206053202060FFF7CAFE0E
:102F000068B10A480540084808380560FFF7E0FE48
:102F10003868800602D400F019F800B10126FF20BD
:102F200020603046BDE8F081082800407F7F7F00A8
:102F300010B54FF480642046FFF7F6FE012804D157
:102F40002046BDE81040FFF797BE10BD18B5002021
:102F500010490090CA200860532008600D481838B6
:102F6000026822F0A00202604FF400340268009B65
:102F700002F020025B1C0093A34201D0002AF5D08E
:102F80000068800601D5012000E00020FF220A60D1
:102F900018BD00002428004008B5034A02EB800059
:102FA0000090016008BD00005028004030B5C17895
:102FB0004278837801F5FA61012A02D0022A02D010
:102FC00003E00D2200E00E22491E541C04EB4404D1
:102FD000052594FBF5F403EB42022244CB170A4487
:102FE00001EB937302EBA302642391FBF3F3D21A78
:102FF0004FF4C87391FBF3F11144072291FBF2F3F4
:1030000002FB1311491C017030BD3EB501210807B8
:10301000FFF798FD0120FFF783FD0020FFF7E0FE9A
:1030200045F25004A04227D00120FFF7D5FD4120F2
:10303000FFF7B8FD0028FAD04FF48070FFF7E0FDED
:103040000120FFF7D7FD7F200190FF200290002094
:1030500000906846FFF79CFE00231A461946184662
:1030600000F019F801231A461946002000F005F86F
:1030700021460020FFF790FF3EBD08B58DF80220E5
:103080008DF801108DF800308DF80300694600209E
:10309000FFF7B0FE08BD08B58DF800008DF80110EF
:1030A0008DF802208DF8033069460020FFF7F0FE0E
:1030B00008BD0029018802D041F0400101E021F063
:1030C00040010180704730B502884C8802F44153BA
:1030D0000A88CD8822438C882C4322430C892243C2
:1030E0004C8922438C892243CC8922431A43028093
:1030F000828B22F400628283098A018230BD000043
:103100001848016841F0805101601748016841F496
:10311000404101601348383801680160016801606E
:10312000016841F480510160021F10491160111FB4
:103130000A6842F080720A600A689201FCD50C4A63
:1031400040F202711160016821F003010160016821
:1031500041F0020101600168C1F381010229FAD145
:1031600070470000403802400070004010640107C2
:10317000003C024002480168491C016070470000A1
:10318000E003002070B5184D00212868174A10F0A0
:103190000C03174803D0042B03D0082B03D0026084
:1031A00018E0144915E0104B1B1F1C681E68C4F37F
:1031B000805406F03F062CB9B2FBF6F11A68C2F350
:1031C000881251431A68C2F30142521C5200B1FBEB
:1031D000F2F101602968064AC1F30311121D515C26
:1031E0000268CA40026070BD083802400024F40042
:1031F000FC03002040787D01124810B5016841F4BD
:10320000700101601048016841F0010101600E4A3F
:1032100000210832116002680C4B1A400260031D45
:103220000B4A1A60026822F48022026006480C30C1
:103230000160FFF765FF03494FF0006080390860C7
:1032400010BD000088ED00E000380240FFFFF6FEF0
:103250001030002470B50F4D0121284600F0C2F94E
:103260000D4C30B1216801B188470121284600F09A
:1032700078F80A4D0121284600F0B4F9002808D05A
:10328000616A01B188472846BDE87040012100F01D
:1032900068B870BD00000140BCEA00200044014055
:1032A00010B501218C07204600F09CF9002809D0B8
:1032B0000548416801B188472046BDE8104001211A
:1032C00000F04FB810BD0000BCEA002010B5094C5A
:1032D0000121204600F086F9002809D006488168BF
:1032E00001B188472046BDE81040012100F039B8FF
:1032F00010BD000000040040BCEA002010B5094CDD
:103300000121204600F06EF9002809D00648C16866
:1033100001B188472046BDE81040012100F021B8E6
:1033200010BD000000080040BCEA002010B5094CA8
:103330000121204600F056F9002809D0064801690D
:1033400001B188472046BDE81040012100F009B8CE
:1033500010BD0000000C0040BCEA0020C9430182FF
:103360007047C943018270470029018802D041F0AB
:10337000010101E021F0010101807047002930F8CE
:10338000441F02D041F4004101E0C1F30E0101806D
:1033900070470000464910B5884206D10121084611
:1033A000FFF7F4FB002101205BE0B0F1804F09D072
:1033B000404988420DD101210220FFF7CFFB0021B7
:1033C000022070E001210846FFF7C8FB0021012020
:1033D00069E03949884206D101210420FFF7BEFB8C
:1033E000002104205FE03549884206D101210820F0
:1033F000FFF7B4FB0021082055E03149884206D18F
:1034000001211020FFF7AAFB002110204BE02D49DD
:10341000884206D101212020FFF7A0FB00212020B7
:1034200041E02949884206D101210220FFF7AEFB85
:103430000021022015E02549884202D101210C0417
:103440000AE02349884202D101214C0404E02149C9
:1034500088420AD101218C042046FFF797FB002106
:103460002046BDE81040FFF791BB1B49884206D1BA
:1034700001214020FFF772FB0021402013E0174993
:10348000884206D101218020FFF768FB00218020BF
:1034900009E0134988420AD1841501212046FFF72B
:1034A0005DFB00212046BDE81040FFF757BB10BD73
:1034B000000001400004004000080040000C0040F3
:1034C0000010004000140040000401400040014092
:1034D000004401400048014000180040001C00402A
:1034E000002000402DE9F04F314A014602EB011166
:1034F000DFF8C08049680020DFF8BCC02F4A304B9D
:10350000304CDFF8C4A0DFF8C4B0314D314E324F3B
:10351000DFF8C890414522D0B1F1804F1DD0614500
:103520001FD091421DD099421BD04FEAB848414567
:1035300017D0DFF8AC80414513D0A14211D05145DE
:103540000FD059450DD0A9420BD0B14209D0B94294
:1035500007D0494529D0BDE8F08F0120FBE70120C5
:1035600003E0614501D1022003E0914201D1022034
:1035700003E0994201D1022003E0A14201D10320DE
:1035800003E0514501D1032003E0594501D1032057
:1035900003E0A94201D1032003E0B14201D1092097
:1035A00001E0B94201D04945D5D10920D3E7000057
:1035B000247305080000014000040040000800409A
:1035C000000C004000040140004001400044014064
:1035D0000048014000180040001C0040002000404E
:1035E0000014004002460020138A92890B4202EA2E
:1035F000010202D0002A00D001207047002A8289EF
:1036000001D00A4300E08A438281704730B5028CC2
:1036100022F001020284028C8388048B22F00202D1
:1036200024F073050C882C438D8915434A882A435E
:103630000C4DA84202D00C4DA8420DD122F0080535
:10364000CA8923F440732A4322F004058A882A4356
:103650000D8A1D434B8A2B43838004838968416311
:10366000028430BD0000014000040140028B22F0C2
:1036700008020A430283704770B5028C22F01002E0
:103680000284028C8488038B0D8823F4E6464FF66F
:10369000FF7303EA052535438E8922F0200203EAF1
:1036A000061616434A8803EA02123243104EB0420D
:1036B00002D0104EB04215D122F08006CA8924F4FF
:1036C000406403EA0212324322F040068A8803EA89
:1036D000021232430E8A03EA860626434C8A03EA24
:1036E000840434438480058389688163028470BDC7
:1036F0000000014000040140028B4FF6FF7322F4EA
:10370000006203EA012111430183704770B5028C06
:1037100022F480720284028C8488838B0D8823F0CB
:1037200073031D4322F400738E894FF6FF7202EA81
:1037300006261E434B8802EA03233343104EB04251
:1037400002D0104EB04215D123F40066CB8924F488
:10375000405402EA0323334323F480668B8802EA51
:10376000032333430E8A02EA061626434C8A02EAF2
:1037700004143443848085838968C163038470BDE5
:103780000000014000040140828B22F008020A433D
:103790008283704770B5028C22F480520284048CBC
:1037A0008288838B0D8823F4E6464FF6FF7303EA85
:1037B0000525354324F400568C8903EA0434344348
:1037C0004E8803EA06362643084CA04202D0084C35
:1037D000A04205D122F480440A8A03EA82122243DD
:1037E0008280858389680164068470BD0000014081
:1037F00000040140828B4FF6FF7322F4006203EA5B
:10380000012111438183704730B50288164B174C54
:1038100098420DD0A0420BD0B0F1804F08D0144D8B
:10382000A84205D0134DA84202D0134DA84203D19F
:1038300022F070054A882A43104DA84206D0104D48
:10384000A84203D022F440750A892A4302804A68BC
:10385000C2620A880285984201D0A04201D1897AC9
:1038600001860121818230BD000001400004014039
:103870000004004000080040000C00400010004020
:10388000001400402DE9FF4F464D474E474FDFF8EB
:103890002081DFF8209189B092468B460446A842E9
:1038A00023D0B4F1804F20D0434884421DD04348F8
:1038B00084421AD04248844217D04FEAB54084422D
:1038C00013D04048844210D0B4420ED0BC420CD039
:1038D00044450AD04C4508D03B48844205D03B487B
:1038E000844202D03A48844258D10121204600F057
:1038F00071F80020ADF814A0ADF81C00ADF816006A
:10390000CDF818B005A92046FFF77EFF7020ADF86E
:1039100000000120ADF802000220ADF80C000C9868
:10392000012806D002280DD0032814D0042823D162
:103930001AE069462046FFF769FE08212046FFF796
:1039400095FE19E069462046FFF796FE08212046BD
:10395000FFF7D2FE10E069462046FFF7D7FE0821A8
:103960002046FFF711FF07E069462046FFF712FFE8
:1039700008212046FFF73EFF01212046FFF7F4FC17
:10398000AC4207D0B44205D0BC4203D0444501D07C
:103990004C4503D101212046FFF7F0FC0DB0BDE8F6
:1039A000F08F000000000140000401400040014091
:1039B000004401400048014000040040000800406D
:1039C000000C00400014004000180040001C0040A3
:1039D00000200040254A904201D1012033E0B0F19F
:1039E000804F04D0224A904203D102203BE00120C4
:1039F00039E0204A904201D1042034E01E4A90422E
:103A000001D108202FE01D4A904201D110202AE068
:103A10001B4A904201D1202025E01A4A904201D150
:103A2000022010E0184A904202D14FF480300AE0A0
:103A3000164A904202D14FF4003004E0144A9042FA
:103A400003D14FF48020FFF795B8124A904201D17C
:103A5000402008E0104A904201D1802003E00F4A44
:103A6000904202D18015FFF76DB870470000014009
:103A70000004004000080040000C0040001000401E
:103A80000014004000040140004001400044014097
:103A90000048014000180040001C00400020004089
:103AA0002DE9FF410E462849044615462548096878
:103AB000264A274B274FDFF8A0C0844208D0944203
:103AC00006D09C4204D0BC4202D0644500D04908D4
:103AD000844222D0B4F1804F1FD0204884421CD0B1
:103AE0001F48844219D01F48844216D01E48844281
:103AF00013D01E48844210D094420ED09C420CD069
:103B0000BC420AD0644508D01948844205D01948FF
:103B1000844202D01848844212D1002E10D003AB48
:103B200002AA304600F0D8F803210020CDE90001B8
:103B30002B46BDF80C20BDF80810204600F01EF8FA
:103B4000BDE8FF8100000140FC03002000040140AB
:103B50000040014000440140004801400004004092
:103B600000080040000C004000100040001400401D
:103B700000180040001C0040002000402DE9FF5FBD
:103B8000994692468B46DFF81C81474FDFF81CC1EF
:103B90004749484A484B494E0446404529D0B4F16C
:103BA000804F23D0BC4227D0644525D08C4223D0FF
:103BB0004FEAB84844451FD0DFF8048144451BD084
:103BC000DFF80081444517D0944215D09C4213D0B1
:103BD000B44211D0DFF8F08044450DD0DFF8EC801E
:103BE000444509D03A498C4259D123E001201C2593
:103BF00022E00020192504E0BC4202D102201D254C
:103C000004E0644502D103201E2504E08C4202D169
:103C10000420322504E0944202D10820182504E053
:103C20009C4202D10920192506E0B44202D10A20A3
:103C30001A2501E0002D32D0264A42F82090204675
:103C4000FFF7A8FB01212046FFF7C4FEABF10101FD
:103C500001910020AAF10101ADF800108DF80A00D1
:103C6000ADF80800ADF8020069462046FFF7CCFD2C
:103C70008DF80C500E988DF80D000F988DF80E00F1
:103C800001208DF80F0003A8FEF7BAFE012120469F
:103C9000FFF764FB012211462046FFF7AFFCBDE8A9
:103CA000FF9F0000000001400004004000080040A9
:103CB000000C004000400140004401400048014029
:103CC000001400400004014000180040001C0040A7
:103CD00000200040BCEA002010B50D4CB1FBF4F10F
:103CE0004843C1EB0111B0EB410F01D20A210AE0B8
:103CF0000849884202D24FF47A7101E044F620610B
:103D0000B0FBF1F189B2B0FBF1F01180188010BD69
:103D100040420F0018FCE703014803F055BA0000C9
:103D20000CE80020014803F04FBA0000A8E800208A
:103D30000A0A01219140C9430180704702460020D0
:103D400012880A4200D00120704730B501F01F02EE
:103D500001240025C1F3421304FA02F2012B0FD013
:103D6000022B0FD0838A4FEA11210088134204FAF4
:103D700001F400EA040001D000B10125284630BD5D
:103D80008389F0E7038AEEE78088C0F30800704774
:103D9000C1F30801818070472DE9FF41064680F09C
:103DA000010502241A4F2FE015B1012D28D112E090
:103DB0005EB102F03BF840F26711009100234FF42E
:103DC0007A720A2112F066FD00E00020C82100F09E
:103DD0007FFF012514E0786911F0D4F803460D48FF
:103DE0000021C8220EB1FF2500E0002500950390B8
:103DF000CDE90121084A0949786901F029FB00252C
:103E00004FF4967002F0E8FD641ECDD2BDE8FF814C
:103E10001001002051C00008935201088C36002088
:103E2000F8B5054602F002F8284400B24FF47A745F
:103E30000A2801DA0A2002E0A04200DD20460646F8
:103E400001F0FEFF64200090002322460A21304644
:103E500012F020FD02460C480AA140690FF036FE20
:103E6000002D0ED040F267100090002322460A2158
:103E7000304612F00FFDBDE8F8404FF4FA7100F043
:103E800027BFF8BD25640000100100207CB5134653
:103E90000446C888B1F902208D88B1F90010801A53
:103EA0006D1A401C6D1C00B22DB2CDE900500448C3
:103EB00003F0D8FC2046BDE87C400AF08BBB000034
:103EC0006C05002010B50AF099FBBDE810400AF01F
:103ED000C7BB0000F8B5354C05460021A0680EF0C0
:103EE000FFFFE06011F066F801463C223048FCF725
:103EF00068FD2F49304E2F48486230680090A1F18C
:103F00002400BDF80010A0F844102949E06811F021
:103F10004BFA2946E0680FF086FD00200346014673
:103F200000900222E06810F05BFC0121E06811F0D3
:103F300097F90021A0680FF075FE20612079C00775
:103F40000BD1201D04F0F1F938B101F087FD04F127
:103F50001C018880201DAFF30080144902221C310F
:103F600020690FF0C3FF206911F024F801461048C2
:103F70003C223C30FCF725FD706800900C48BDF8F1
:103F800000105C300225818220380121C58680F82E
:103F90003910074920693C3111F006FA0095D4E93F
:103FA000031000230D2210F01BFCF8BD10010020AF
:103FB0009C35002020020020108C0108F8B5344CFC
:103FC00007460021A0680EF08BFFE06010F0F2FFC2
:103FD00001463C222F48FCF7F4FC2E4D2F4E2E4874
:103FE000686230680090BDF8000028842946E068C7
:103FF00011F0DAF93946E0680FF015FD00200346AC
:10400000014600900222E06810F0EAFB0121E0681E
:1040100011F026F90021A0680FF004FE206120793C
:10402000C0070BD1201D04F080F938B101F016FD56
:1040300004F130018880201DAFF300801449022272
:10404000303120690FF052FF206910F0B3FF0146B4
:1040500010483C223C30FCF7B4FC70680090BDF87E
:104060000000A5F870000B4802253C300121C586F0
:1040700080F83910074920693C3111F095F9009515
:10408000D4E9031000230D2210F0AAFBF8BD0000B4
:1040900034010020B036002020020020248C0108CA
:1040A000F8B5344C0746002160680EF019FFA06097
:1040B00010F080FF01463C222F48FCF782FC2E4D79
:1040C0002F4E2E48686230680090BDF800002884AA
:1040D0002946A06811F068F93946A0680FF0A3FCE2
:1040E00000200346014600900222A06810F078FBF1
:1040F0000121A06811F0B4F8002160680FF092FD72
:10410000E0602078C0070BD1204604F00EF938B1EA
:1041100001F0A4FC04F12C0188802046AFF300805C
:10412000144902222C31E0680FF0E0FEE06810F044
:1041300041FF014610483C223C30FCF742FC7068CD
:104140000090BDF80000A5F870000B4802253C3037
:104150000121C58680F839100749E0683C3111F02B
:1041600023F90095D4E9021000230D2210F038FB4A
:10417000F8BD000078010020D8380020200200207F
:10418000508C0108F8B5344C0746002160680EF0E9
:10419000A7FEA06010F00EFF01463C222F48FCF75E
:1041A00010FC2E4D2F4E2E48686230680090BDF8EE
:1041B000000028842946A06811F0F6F83946A06866
:1041C0000FF031FC00200346014600900222A06857
:1041D00010F006FB0121A06811F042F80021606890
:1041E0000FF020FDE0602078C0070BD1204604F0DE
:1041F0009CF838B101F032FC04F12401888020469B
:10420000AFF30080144902222431E0680FF06EFE03
:10421000E06810F0CFFE014610483C223C30FCF72D
:10422000D0FB70680090BDF80000A5F870000B4846
:1042300002253C300121C58680F839100749E06825
:104240003C3111F0B1F80095D4E9021000230D22A1
:1042500010F0C6FAF8BD0000AC010020AC3A002016
:10426000200200206C8C0108F8B5344C0021A068B5
:104270000EF036FEE06010F09DFE01463C22304814
:10428000FCF79FFB2E4D304E2E4868623068009040
:10429000BDF8000028842946E06811F085F804F193
:1042A00024004169E0680FF0BEFB00200346014690
:1042B00000900222E06810F093FA0121E06810F00B
:1042C000CFFF0021A0680FF0ADFC20612079C0076E
:1042D0000BD1201D04F029F838B101F0BFFB04F127
:1042E0001C018880201DAFF30080144902221C317C
:1042F00020690FF0FBFD206910F05CFE01461048BC
:104300003C223C30FCF75DFB70680090BDF800007B
:10431000A5F870000A4802253C300121C58680F8C6
:104320003910074920693C3111F03EF80095D4E975
:10433000031000230D2210F053FAF8BD3C000020BA
:104340000833002020020020B08B0108F8B5334C60
:10435000002120690EF0C4FD606110F02BFE0146C3
:104360003C222F48FCF72DFB2D4D2F4E2D48686227
:1043700030680090BDF8000028842946606911F07B
:1043800013F82AA160690FF04EFB00200346014696
:1043900000900222606910F023FA0121606910F098
:1043A0005FFF002120690FF03DFCA0612079C0076C
:1043B0000BD1201D03F0B9FF38B101F04FFB04F120
:1043C0003C018880201DAFF30080144902223C315B
:1043D000A0690FF08BFDA06910F0ECFD01461048BC
:1043E0003C223C30FCF7EDFA70680090BDF800000C
:1043F000A5F870000A4802253C300121C58680F8E6
:1044000039100749A0693C3110F0CEFF0095D4E97E
:10441000051000230D2210F0E3F9F8BDB0000020D4
:10442000C833002020020020B88B010854696D6554
:10443000436667002DE9FF47074680F00106022525
:104440004FF000081E4CDFF87C904FF0C80A32E0B5
:1044500016B1012E2CD115E027B1E06910F086FDD0
:10446000064600E00026606B10F0EFFDCDE9006A23
:104470000346CDE90289144A1449606B00F0E8FF55
:10448000012615E027B1606A10F070FD064600E0D5
:104490000026A06B10F0D9FDCDE9006A0B49034658
:1044A000CDE90289084A2431A06B00F0D1FF002633
:1044B000C82002F091FA6D1ECAD2BDE8FF87000045
:1044C000B000002051C00008D5530108F43400208A
:1044D0002DE9FF5F054680F0010702264FF0000836
:1044E000DFF8A8904FF0C80A294C4AE017B1012F15
:1044F00044D130E045B1606910F0A7FD074660691E
:1045000010F034FD384402E0A06810F02FFD00F1F7
:10451000140B606A10F099FDCDE900BA0346CDE9AD
:1045200002894F461B4A1C49606A00F091FF606A8D
:1045300010F028FD03460DB1FF2200E00022CDE976
:10454000002ACDE902871449144A2431606A00F038
:104550007FFF012712E0606910F014FD03460DB1E2
:10456000FF2700E00027CDE9007A0B49CDE9028959
:104570000A4A4831606900F06BFF0027C82002F04A
:104580002BFA761EB2D2BDE8FF9F000051C0000892
:1045900034010020D55301085438002093520108FB
:1045A000F8B53C2237493848FCF70BFA374D364E00
:1045B0000821A8681C3E0090BDF80000A6F8500035
:1045C0003148334CC18601210175E9680091BDF87D
:1045D0000010B1850A2141820021A06807F07CFD0E
:1045E000A06101F03BFA143807B201F037FA143831
:1045F00001B23A46A06910F097FEB4221146A069B4
:1046000007F066FE204A0021A06907F076FE2069C7
:1046100010F01BFD002300901A461946A06910F007
:10462000DFF80021A0680EF05BFC606110F0C2FCB6
:1046300001463C2206F15800FCF7C3F906F1580187
:104640001448486228690090BDF80000A6F8780078
:10465000606910F0A9FE0020034602460090D4E9EC
:10466000050110F0BDF80121606910F0F9FD01218C
:10467000606910F012FE6069BDE8F840002110F09A
:1046800008BE0000643D002014360020108C010894
:10469000100100207802002010B5002001F0D0FBAE
:1046A0001C4803F01FF900211A4802F0D5FF002131
:1046B000184802F08DFF01F0E9F801F0ABF9002194
:1046C000C82011F0D5FC11F081FD00F01BFB01208A
:1046D00001F010F9022001F079FD032001F026FD20
:1046E000042001F04FFE052001F02CFE062001F011
:1046F00051FD072001F02EFB064801214C3002F04D
:104700008EFABDE810404FF4FA714FF4487001F092
:1047100029BD00006C0500202DE9FF47054680F00B
:10472000010702264FF00008DFF894904FF0C80A06
:10473000244C40E017B1012F39D112E0206910F06C
:1047400021FC03460DB1FF2700E00027CDE9007AE8
:10475000CDE902891C4A1D49206900F079FE012734
:1047600025E0E06910F00EFC03464F460DB1FF2234
:1047700000E00022CDE9002ACDE902871349124A60
:104780002431E06900F064FE606A10F0FBFB034630
:104790000DB1FF2200E00022CDE9002ACDE9028719
:1047A0000A49094A4831606A00F052FE00274FF476
:1047B000967002F011F9761EBCD2BDE8FF870000AA
:1047C00051C000087801002093520108043A0020EB
:1047D0002DE9FF5F071E02D04FF0000401E04FF00B
:1047E000040401D0FF2500E00025DFF80081DFF898
:1047F00000A104264FF000094FF0C80B052C55D23C
:10480000DFE804F003182B405C004446D8F81000A1
:1048100010F0B8FBCDE9005BCDE9029A0346354ABA
:104820003549206900F014FE4FF4967002F0D4F878
:10483000761E41D34446D8F81C0010F0A3FBCDE906
:10484000005BCDE9029A2C4903462A4A2431E069EB
:1048500000F0FEFD4FBB002428E04446D8F81400C9
:1048600010F090FBCDE9005BCDE9029A22490346A6
:10487000204A4831606900F0EBFD0FB1032415E0D8
:10488000012413E04446D8F8180010F07BFBCDE972
:10489000005BCDE9029A18490346164A6C31A069BB
:1048A00000F0D6FD0FB1042400E002244FF496700E
:1048B00002F092F8761EA1D2BDE8FF9F4446D8F8D8
:1048C000200010F05FFBCDE9005BCDE9029A0A49B8
:1048D0000346084A9031206A00F0BAFD4FF4967002
:1048E00002F07AF8761ECDD2E6E70000AC01002097
:1048F00051C0000893520108603B002010B511F030
:1049000009FBBDE81040014802F058B9B805002085
:10491000064991F90020101801D5042002E004286E
:1049200000D900200870C0B201F0E8B93C000020B6
:1049300038B5504C0021606807F040FEE06110F08F
:1049400039FB01463C224C48FCF73BF84A49002021
:1049500070390090BDF8002021F8722FBDF80000DA
:1049600048804548FF21454D01720121C1862969D2
:10497000009100F11001BDF800208A84404A426293
:1049800068690090BDF8000008821039E06910F0F5
:104990000BFD0121E06910F080FC0021E06910F0BE
:1049A00078FC50225A21E06910F0BEFC14200090DF
:1049B0000F230D222169E0690FF012FF0021E06949
:1049C00008F0AFFE0221E06908F09CFEB221E06928
:1049D00008F077FE0121E06908F084FE7F21E0699C
:1049E00008F05EFE03220421E06908F01DFD642248
:1049F0000021E06908F03EFEE06910F009FB81B299
:104A0000E06908F0C5FD3221E06908F021FDFF22D0
:104A10001146E06908F098FE0123022219A1E0691D
:104A200008F09AFEA969E06907F09AFD206200216A
:104A300060680EF055FA10496062A83110F0B4FCBD
:104A400014A1606A0EF0EFFF0A20009043420D228D
:104A5000E169606A0FF0C4FE0121606A10F000FC99
:104A60000121606A10F019FC606ABDE8384000213D
:104A700010F00FBC78010020C8390020508C0108CC
:104A8000240300206D0A38300A36300A34300A32E6
:104A9000300A3000306D0000F8B52A4CE169084654
:104AA00009F01AF86063E06910F060FA0546E06901
:104AB00010F0AEFA01462A46606B10F035FC002675
:104AC0000096334632463146606B0FF089FE616ACC
:104AD000084609F001F8A063606A10F047FA05463D
:104AE000606A10F095FA01462A46A06B10F01CFC93
:104AF000002300961A461946A06B0FF071FE606BFA
:104B000010F058FA01463C220F48FBF75AFF0F48B5
:104B1000416900910C49BDF80020743921F8762FC5
:104B200080690090BDF8000048800749FF200872A6
:104B3000606B10F039FCA06BBDE8F840024910F042
:104B400033BC0000B00000203C350020B88B0108C9
:104B50002DE9F843324C0021A06808F0BDFF31492F
:104B6000606110F021FC01F059F90546206910F050
:104B70006CFA281A143802B24621606910F0D4FB8E
:104B80000A200090D4E9041000230D220FF028FE23
:104B90000021606908F0A0FF2249A06110F004FC28
:104BA000606910F035FA01464FF4AF72A06910F059
:104BB000BBFB606910F0DAF90146A06910F00AFC4D
:104BC0000025A84604F124070021A0690DF048FB48
:104BD000064607EB05108660016830460DF0F5FFCC
:104BE0000023022219463046CDF800800FF0F8FD70
:104BF000304610F0BBF9C0F1320000EBD070C5EBCD
:104C0000C501401001EB810100EB410001B23046CB
:104C100010F0E0FB6D1C052DD6D3BDE8F883000035
:104C20003C000020B03C00202DE9F0411D4C1E4905
:104C30006422A06AB0FBF1F1B1FBF2F302FB13179F
:104C40004EF66021B0FBF1F13C22B1FBF2F302FB26
:104C500013164FF47A71B0FBF1F3B3FBF2F502FBDC
:104C60001535B0FBF1F201FB1208A078411CA170D0
:104C7000142810D929B260690FF0D1FC3A460BA173
:104C8000A0690EF023FF2B4632460AA1E0690EF020
:104C90001DFF0020A0704246206ABDE8F0410AA135
:104CA0000EF014BF3401002080EE3600253032644F
:104CB000000000002530326423464630303030207A
:104CC0003A232530326400002E2530336400000082
:104CD0001FB5084A4FF4FA730021CDE90003CDE96E
:104CE00002120548054A0649B0F90030806900F013
:104CF000AFFB1FBD51C00008100100202563000854
:104D0000783500202DE9F84300252E46DFF86C8029
:104D1000FFF7D8F8002108F0DFFE08EB85142060CB
:104D200001F07CF8074600F099FE01463A462068FB
:104D300010F0FAFA002300961A46194620680FF080
:104D40004FFD2068334632463146009609F04DFB50
:104D5000201D3C220A49FBF734FE0096BDF80000F6
:104D6000E0800096BDF800002081211D206810F031
:104D70001BFB6D1C082DCBDBBDE8F883CC050020A8
:104D8000643D002038B5194C0021E0680EF0A8F809
:104D9000E06110F00FF901463C221548FBF711FEC7
:104DA000134914484862144840680090A1F13C003F
:104DB000BDF80010A0F85C100D49E06910F0F4FA9D
:104DC0000121E0690EF01CFE0CA1E0690EF045FE29
:104DD0001E200023009002221946E0690FF000FD1A
:104DE000E069BDE83840012110F03ABA080000201F
:104DF00054320020A4020020708B01083031234679
:104E00004630303030202F233031204D4F4E0000BF
:104E100038B5234C002160680EF062F8E06110F0B4
:104E2000C9F801463C221F48FBF7CBFD1D491E482F
:104E300048621E488068009001F10800BDF800102B
:104E400001831849E06910F0AFFA19A1E0690EF08A
:104E5000EAFD6FF00400009000230A226169E06916
:104E60000FF0BEFC0121E06910F017FA0021E069A3
:104E700010F00FFAE16960680EF032F8094920621B
:104E800010F092FA0EA1206A0EF0CDFD0A200090DB
:104E900000230D22A169206A0FF0A2FC38BD00009A
:104EA000AC010020243B00204C0200206C8C010847
:104EB0002D20444556454C4F504552202D000000B2
:104EC0005761746368582076302E340A4D61722021
:104ED000313420323032300038B5224C0021E068C5
:104EE0000DF0BEF9204960620DF06FFE6FF0130007
:104EF0000090142304220021606A0FF071FC00214D
:104F0000E0680DF0EDFFA06210F054F801463C227D
:104F10001648FBF756FD1549154848621548C06804
:104F20000090A1F13400BDF80010A0F854100F4912
:104F3000A06A10F039FA0121A06A0EF061FD0EA1FD
:104F4000A06A0EF08AFD002003460090D4E9091003
:104F500013220FF045FCA06ABDE83840012110F093
:104F60007FB9000008000020240E0308CC32002086
:104F7000F4010020708B0108234646303030302089
:104F80002F2320313235350038B5FFF7FBFE1E4C9C
:104F90000021E0680DF0A4FF206210F00BF801463C
:104FA0003C221A48FBF70DFD184919484862194878
:104FB0008068009001F10800BDF8001001831349DA
:104FC000206A10F0F1F90121206A0EF019FD12A1FA
:104FD000206A0EF042FD0020034602460146009082
:104FE000206A0FF0FDFB0121206A10F039F900233F
:104FF00003224FF4FA710A4810F002FFE062BDE8A4
:10500000384000F0CDB900000800002090320020A8
:1050100078020020708B010830303A3030000000F8
:10502000A153000838B53D4C002160690DF058FFD0
:10503000E0610FF0BFFF01463C223948FBF7C1FC9D
:105040003749394D3748486268690090A1F134000A
:10505000BDF80010A0F854103149E06910F0A4F92F
:105060000121E0690EF0CCFC30A1E0690EF0F5FC06
:1050700000200346024601460090E0690FF0B0FBB5
:105080000121E06910F0ECF8002160690DF028FFC3
:10509000A0610FF08FFF014621483C223C30FBF716
:1050A00090FC1F4925483C314862A869009001F1F5
:1050B0001000BDF8001001821949A0693C3110F0C0
:1050C00073F91DA1A0690EF0C8FC6FF002000090FA
:1050D000D4E9060100230A220FF082FB0121A06916
:1050E00010F0BEF8002160690DF0FAFE0C49206254
:1050F0003C3110F059F912A1206A0EF0AEFC0320E9
:105100000090D4E9071000230D220FF069FB206AFC
:10511000BDE83840012110F0A3B8000034010020A0
:1051200064370020F4010020248C0108303023462D
:105130004630303030203A2330300000200200204A
:105140002E3030300000000038B53C22254926487A
:10515000FBF737FC25480A25254C81680091224938
:10516000BDF80020783921F87A2FC2680092BDF886
:1051700000204A801C4901224D83CA8600690090A4
:1051800001F10800BDF8001081850021A0680FF032
:105190007FF83B22002160610FF002FAB4216069C0
:1051A0000FF0EFF91F224FF4B47160690FF023FA8A
:1051B0000D49606910F0F8F878221146606910F026
:1051C000B3F80121606910F068F80021606910F0FF
:1051D00060F80095D4E9041000230D220FF000FBC5
:1051E00038BD0000183E002028370020248C01081C
:1051F000340100200EB5022800D90020084B0ECB48
:105200008DE80E0007498B784A785DF82010054834
:105210000C38C06A0EF05AFC00F024F80EBD0000F5
:10522000048C0108BC00002010B586B0032800D90A
:1052300000200A4C0DF1040C1ECC8CE81E0008491D
:105240008A7800924B780A7801A951F82010044816
:105250000838006A0EF03AFC06B010BDF48B010865
:10526000B800002010B50C48FDF7A0FE0A480078F1
:10527000401E40B2002801DA002002E0062800DDCE
:1052800006200549383151F8201003480C38006BCE
:10529000BDE810400EF0C7BBBC00002010B508B13F
:1052A00006A100E009A10B48C2780C38806A0EF014
:1052B0000DFCBDE81040FFF7D5BF00002346463087
:1052C0003030302032302530326423003230253007
:1052D00032640000BC0000202DE9FC411A4E00247D
:1052E000A6F10C0556F8240020B318496422B0FB3F
:1052F000F1F1B1FBF2F302FB13124EF66021B0FBA9
:10530000F1F13C27B1FBF7F307FB13134FF47A716C
:10531000B0FBF1FCBCFBF7FE07FB1EC7B0FBF1FCCA
:1053200001FB1C00CDE9007055F8240008A10EF027
:10533000CDFB04E055F824000AA10EF08EFB641C9E
:10534000032CCFDBBDE8FC81CC38002080EE36009A
:10535000253032643A253032643A253032642E25C5
:10536000303364002D2D3A2D2D3A2D2D2E2D2D2D3F
:105370000000000010B5084C207838B90321074818
:1053800002F04AF80028F9D001202070BDE8104052
:10539000024802F0FFB8000006000020EC040020E4
:1053A00010B588B01A490020FDF7CCFC1848841EBF
:1053B00043780278607808B116A100E01AA1206A4B
:1053C0000EF084FB6078124980F001006070091DC6
:1053D0000020FDF785FC1C22164901A8FBF7F1FA15
:1053E0000B48001D0178491E49B2002901DA00214D
:1053F00002E0062900DD062101AA52F821100091E1
:10540000837842780CA1E0690EF060FB08B010BD13
:105410000A000020253032642346463030303020E8
:105420003A23253032640000253032643A25303288
:1054300064000000948B0108253032642346463016
:10544000303030202F2325303264202573000000B7
:105450002DE9F0478AB01C46DDE9127ADDE914989F
:105460001546064619B9684606F0E0FD6946081D6E
:105470000E60C1E9044780E82003A1F818A008469F
:1054800006F07EFD0AB0BDE8F087000038B51B4C81
:105490000021A06808F020FB3C22802160620FF010
:1054A00043FFA0680FF062FD0A3001B2606A0FF09E
:1054B00091FF3C2212491348FBF783FA114800215F
:1054C0000172FF21C173012181810F49C9690091D6
:1054D000A0F12C01BDF80020CA860A21C18009492B
:1054E000606A0FF061FF0121606A0FF0D6FE606A0A
:1054F000BDE8384000210FF0CCBE00003401002090
:10550000643D0020DC370020248C01080248816AB9
:10551000491C816270470000340100202DE9F047EA
:1055200081460E469046002400222146641C1D48F8
:105530004254002009E048FA00F101F0010321463D
:10554000621CD4B2174A5354401C0828F3DB0122D2
:105550002046611CCCB213490A54002007E006FB28
:1055600000F1B1FBF4F1104A42F82010401CA042B7
:10557000F5DB6FF060400C4941F82400002500275E
:105580000CE0094850F82500B84206D80548415DAE
:10559000484605F00DFA681CC5B27F1CB742F0D32F
:1055A000BDE8F087243C0020343C002070B52DED90
:1055B000028BFFF7DFFE224D9FED221A95ED010AC7
:1055C000F8EEC00A80EE810A10EE100A12F0FCFD1F
:1055D00041EC100B1E4C53EC102B1BA160690EF01C
:1055E00075FA286812F0F0FD41EC100B19A153EC8C
:1055F000102BA0690EF06AFA95ED038A18EE100AD6
:1056000012F0E2FD41EC100BB5EEC08AF1EE10FA9B
:1056100001DD13A100E014A153EC102B606A0EF021
:1056200055FA95ED030ABDEEC00A10EE100A02B25B
:10563000D4E90701BDEC028BBDE8704007F013BF51
:10564000EC04002000007A4425302E326600000071
:105650007801002025302E316643C2B000000000E2
:10566000252B302E31666D0025302E31666D000001
:10567000082804D2034901EB80100068704700201D
:1056800070470000CC05002038B51B4C0021606835
:1056900008F022FA3A22822120610FF045FE142000
:1056A0000090D4E9031000230D220FF099F8012196
:1056B00020690FF0F2FD002120690FF0EAFD3C2285
:1056C0000E490F48FBF77DF90D4800210172FF21BB
:1056D000C173012181810B498968009100F10801A2
:1056E000BDF800204A800A21C1802069BDE8384009
:1056F00003490FF059BE000078010020643D0020EE
:1057000050390020508C01082DE9FE433C222349EA
:105710002348FBF756F92249002068390090BDF86C
:10572000002021F86A2FBDF8000048801C491D4860
:10573000DFF86C8048621C481C4F01AE016A009182
:105740001749BDF80020183100240A81D0E909105A
:10575000CDE9011008F1A8080021786A0DF0C0FB1E
:10576000054613A10EF079F936F814000F23801CBA
:1057700000B200900722002128460FF031F80121E5
:1057800028460FF06DFD284605490FF00DFE48F83C
:105790002450641C032CDFDBBDE8FE83A03D002009
:1057A000183800204C020020248C0108340100200D
:1057B0002D2D3A2D2D3A2D2D2E2D2D2D00000000B2
:1057C00038B5264C0021E0680DF08AFB60610FF0CF
:1057D000F1FB01463C222248FBF7F3F8204821491F
:1057E0004162214909680091BDF8001001841C49FB
:1057F00060690FF0D9FD1DA160690EF02EF900253A
:1058000000952B460122294660690EF0E9FF01212F
:1058100060690FF025FD0021E0680DF061FB0121BA
:10582000A0610EF0EDF814A1A0690EF016F90023A6
:10583000009503221946A0690EF0D2FF0121A0694C
:105840000FF00EFD002303224FF4FA610E4810F012
:10585000D7FA2063BDE8384000F06AB8080000209D
:10586000183200204C020020708B01082D2D20439F
:10587000202D2D206B50610023464646464646208B
:10588000EF898423000000003159000810B50FA2F1
:1058900013A115A004F0F6FE0121154801F02CFA21
:1058A0000121134801F024FA00221146104802F0A9
:1058B0007BF900210E4801F0D4FABDE810401F2208
:1058C0004FF6FF710A4801F01CBA000076302E3402
:1058D000204D61722031342032303230000000001F
:1058E00076322E3000000000576174636858000063
:1058F0006C0500201CB50446FFF7BAFE0649094BAB
:10590000094AC86005490648CDE900012146074813
:1059100001F005F91CBD000008000020B964000872
:10592000BD630008B564000841670008B8050020A1
:1059300030B585B0FFF71EFD2348274C23A190ED1D
:10594000030ABDEEC00A10EE103A90ED000A60693D
:10595000BDEEC00A10EE102A0EF0B8F80F2005F0C8
:1059600017F808B1012500E0002514221B496846FC
:10597000FBF727F89FED1A0B9FED1B4B9FED1C3B90
:105980009FED1D2B9FED1E1B05F0D4F951EC100B64
:1059900012F02CF9002801DA002002E0042800D9D6
:1059A00004204DB12178491CC9B2401C91FBF0F292
:1059B00000FB1210C0B220705DF8202012A1A06977
:1059C0000EF084F805B030BDEC04002025203264D0
:1059D00043C2B02025646D0008000020808B0108C0
:1059E000000000A099990D40000000000000144044
:1059F0000000000000000000000000C0CCCC1040FF
:105A0000000000606666064023464646464646203D
:105A10002573230000B589B00DF0E2F90D4941F27C
:105A200018530022A1F11C0008F052FD684608F04E
:105A30005FFD8720ADF80000F020ADF802000648B9
:105A4000039004481C380190684608F06DFD09B0C9
:105A500000BD0000E80700208D3E000810B5FEF7ED
:105A600031FABDE810400FF0D3BA00002DE9F84339
:105A7000464C0021206908F02FF82A228021E0619D
:105A80000FF052FC14250095D4E9061000230D22D6
:105A90000EF0A6FE0021206908F01EF87822802171
:105AA00060620FF041FC009500230D22E169606AFD
:105AB0000EF096FE3C2236493648FAF782FF35480A
:105AC000002578380095BDF8001020F87A1FBDF841
:105AD000001041802F49314F2F484862B86801F1CA
