:020000040800F2
:10000000E0DE0020550300085D03000845030008FA
:100010006103000863030008650300080000000096
:10002000000000000000000000000000670300085E
:1000300069030008000000006B030008113100088C
:100040006F0300086F0300086F030008CD2E00083F
:100050006F0300086F03000831260008F52600082A
:10006000192700083D270008612700086F030008D2
:100070006F0300086F0300086F0300086F03000898
:100080006F0300086F0300086F0300080000000002
:1000900000000000000000000000000085270008AC
:1000A0006F030008F13100086F0300086F030008B8
:1000B0003D32000869320008993200086F030008D9
:1000C0006F0300086F0300086F0300086F03000848
:1000D0006F030008D5380008E13800080000000070
:1000E00055260008CD2B00086F0300080000000013
:1000F0000000000000000000000000006F03000886
:10010000000000006F030008C93200086F030008F8
:1001100000000000000000000000000000000000DF
:100120006F0300086F0300086F0300086F030008E7
:100130006F03000800000000000000000000000045
:100140000000000000000000000000006F03000835
:100150006F0300086F0300086F0300086F030008B7
:100160006F0300086F03000800000000000000009B
:10017000000000000000000000000000000000007F
:10018000000000006F0300080000000000000000F5
:100190006F0300086F03000800F002F800F0BBF8DE
:1001A0000AA090E8000C82448344AAF10107DA45D2
:1001B00001D100F0B0F8AFF2090EBAE80F0013F069
:1001C000010F18BFFB1A43F0010318471CF204008B
:1001D0003CF204000A444FF0000C10F8013B13F00D
:1001E000070408BF10F8014B1D1108BF10F8015B90
:1001F000641E05D010F8016B641E01F8016BF9D183
:1002000013F0080F1EBF10F8014BAD1C0C1B09D1D9
:100210006D1E58BF01F801CBFAD505E014F8016B4B
:1002200001F8016B6D1EF9D59142D6D370470000DD
:100230000023002400250026103A28BF78C1FBD8EF
:10024000520728BF30C148BF0B6070476E2900F0CD
:10025000B285702900F04782662913F04E87652920
:1002600013F04B87672913F048876129AFF30080AB
:1002700003681B0A28BF41F08001692900F0B8819A
:10028000642900F0B581752900F0B2816F2901F071
:100290009880782900F01382E92901F03380E4295D
:1002A00001F03080F52901F02D80EF2901F09580D3
:1002B000F82900F012820368DB0928BF41F08001B1
:1002C000632901F06F81732901F07481E32901F042
:1002D0007F81F32901F08481002070471FB513F05E
:1002E00007FF9DE8030000F091FC00F06BFC0400A8
:1002F0000020002113F08EF9401C606000200021D6
:1003000013F09EF9E06000F047FC1FBD10B500201F
:1003100001F06EF810BD01F05CFA1146FFF7DEFF48
:1003200012F0CEFC01F07EFA03B4FFF7EFFF03BC3E
:1003300001F048FAEFF308807047EFF30980704747
:10034000684670477046694608F00CFB13F0A0F849
:10035000FEE700000948804709480047FEE7FEE73E
:10036000FEE7FEE7FEE7FEE7FEE7FEE7FEE7FEE765
:1003700004480549054A064B7047000095310008BE
:1003800099010008E0CE0020E0DE0020E0D6002049
:10039000E0D6002010B500F015FC001D10BD00BF18
:1003A0007532010070B5064600F008FC056806F1DC
:1003B0000B0020F00704B4429CBF002070BD2B4608
:1003C0006A68BAB11068A04210D304F108018842EB
:1003D0003CBF5068586007D35168101941601168DC
:1003E000091B016058601460101D70BD13465268EF
:1003F000002AE7D12146284600F0F4FB0028DED190
:1004000070BD70B50446051F00F0D8FB0068002CD5
:1004100014BF446870BD002C18BFAC423CBF2046DE
:100420006468F8D301680A18AA4218BF456003D16E
:100430002A6805461144016028684119A1421CBF81
:100440006C6070BD6168696021680844286070BD97
:1004500053EA020C00F069802DE9F04B4FF00006E2
:10046000002B1FBFB3FA83F503FA05F424FA05F64F
:100470005E4012BF1643B2FA82F502FA05F4C5F1E6
:1004800020051EBF22FA05FC44EA0C04203556EA7A
:10049000044C4FEA144418BF641C4FF000084FF09E
:1004A0000009904271EB030C39D3002919BFB1FA4E
:1004B00081F701FA07F6B0FA80F700FA07F6C7F1FC
:1004C00020071EBF20FA07FC46EA0C062037B6FBC1
:1004D000F4FCA7EB0507103F07F01F0BCBF120063C
:1004E0000CFA0BFB2CFA06F644BFB3460026202F6D
:1004F000A4BF5E464FF0000B5BEA060C08BF4FF04E
:10050000010B19EB0B09ABFB027C48EB0608C01B87
:1005100006FB02CC0BFB03CC71EB0C01C1E70B46D5
:10052000024641464846BDE8F08B13B54FF0000047
:100530004FF00001AFF30080BDE81C4070470000A1
:100540007CB51D4616460C00009001D02044401E8C
:10055000074B7B442A4669460190304600F053FE23
:1005600005461CB10020694600F060FE28467CBDAF
:10057000E10C00000FB41CB5084B06AA7B44694689
:100580000090059800F03FFE04460020694600F008
:100590004DFE20461CBC5DF814FB0000AD0C0000B5
:1005A00070B5044685690068C10601D5302600E0B3
:1005B0002026C00707D070BDD4E9012130469047FE
:1005C000206A401C20626D1EF6D570BD70B50446D1
:1005D00085690078C00707D170BDD4E901212020CA
:1005E0009047206A401C20626D1EF6D570BD000049
:1005F0002DE9F0410646002410687529314616A5FC
:1006000010D000F044FB002802DA404213A507E0B6
:1006100031688A0701D512A502E0490704D511A562
:10062000012401E000F03CFB00210A2206F124072E
:1006300009E0B0FBF2FCB0FBF2F302FB1C0030302F
:1006400078541846491C0028F3D123462A463046E0
:10065000BDE8F04100F056BB000000002D00000096
:100660002B00000020000000F0B40D4601880905B1
:1006700002D5214C7C4402E01F4C7C440E34002106
:1006800000F1240608E002F00F071209E75D42EAD4
:1006900003721B097754491C52EA0307F3D102780D
:1006A0000023120704D5702D06D009B1022311349E
:1006B0002246F0BC00F026BB01231034F8E770B5E9
:1006C00004460D462146106800F0EAFA0246294623
:1006D0002046BDE870400023C6E7D21D22F0070384
:1006E000D3E90023C0E70368126843F020030360E6
:1006F0000823C3610023B7E71CE304002DE9F05F82
:10070000894604464FF0000ADFF874B1FB44C0F894
:1007100020A02046E1688847002874D0252806D00C
:10072000D4E901219047206A401C2062F1E70026AD
:100730005F462046E16888472028054607DB312DC3
:1007400005D2781910F8200C08B10643F1E7B0077C
:1007500001D526F00406C4F81CA00027C4F818A090
:100760002A2D09D0284607F00AF838B304EB870889
:10077000303DC8F8185019E059F8041B204604EB26
:1007800087029161E1688847012F054618D1E06929
:10079000002820DA26F020061DE0D8F8180000EB2B
:1007A000800005EB40003038C8F818002046E168AA
:1007B0008847054606F0E3FF0028EED1012F0AD056
:1007C0002E2D08D12046E16888477F1C0546022F60
:1007D00046F02006C4DBA069002803DA404246F058
:1007E0000106A061F00701D026F010066C2D0BD099
:1007F000682D09D04C2D39D06A2D35D0742D35D0C7
:100800007A2D33D016E038E0E1682F46204688473D
:10081000B842054609D16C2F26D04FF48060E168BC
:10082000064320468847054604E06C2F1AD04FF453
:10083000807006430DB3A5F14100192802D8203578
:1008400046F400664A462946204626604E46FFF793
:10085000FDFC80B101280BD0F61D26F0070000F149
:10086000080956E74020E4E78020D8E70020D6E7D3
:1008700006F104094DE7284652E7206ABDE8F09FDB
:10088000ACE204002DE9F041074615460E46102063
:10089000FFF788FD04000AD06760C4E9026500F034
:1008A00095F90168216004600020BDE8F081012015
:1008B000FBE740EA0103024630B59B0710D14FF039
:1008C000013400E008C208C91D1B9D4315EAC41F7E
:1008D000F8D013F0FF0102F8011B0DD01B0AF8E756
:1008E00011F8013B002B02F8013B05D011F8013B48
:1008F000002B02F8013BF3D130BD10B5431C02E0E0
:1009000010F8011B71B18107FAD14FF0013202C812
:100910008C1A8C4314EAC211F9D0C01A0A0603D00B
:10092000C01E10BDC01A10BD0A0401D0801E10BD2B
:100930000902FCD0401E10BD032A40F2308010F0A6
:10094000030C00F0158011F8013BBCF1020F62446A
:1009500098BF11F801CB00F8013B38BF11F8013BFB
:10096000A2F1040298BF00F801CB38BF00F8013BA8
:1009700011F0030300F02580083AC0F0088051F818
:10098000043B083A51F804CBA0E80810F5E7121D23
:100990005CBF51F8043B40F8043BAFF30080D20742
:1009A00024BF11F8013B11F801CB48BF11F8012B0E
:1009B00024BF00F8013B00F801CB48BF00F8012B31
:1009C000704710B5203AC0F00B80B1E81850203ABB
:1009D000A0E81850B1E81850A0E81850BFF4F5AFDF
:1009E0005FEA027C24BFB1E81850A0E8185044BF69
:1009F00018C918C0BDE810405FEA827C24BF51F8D6
:100A0000043B40F8043B08BF7047D20728BF31F8C9
:100A1000023B48BF11F8012B28BF20F8023B48BF1A
:100A200000F8012B70474FF000020429C0F012803B
:100A300010F0030C00F01B80CCF1040CBCF1020F91
:100A400018BF00F8012BA8BF20F8022BA1EB0C0166
:100A500000F00DB85FEAC17C24BF00F8012B00F85C
:100A6000012B48BF00F8012B70474FF0000200B582
:100A7000134694469646203922BFA0E80C50A0E8C1
:100A80000C50B1F12001BFF4F7AF090728BFA0E86F
:100A90000C5048BF0CC05DF804EB890028BF40F83B
:100AA000042B08BF704748BF20F8022B11F0804F7D
:100AB00018BF00F8012B704710B5044610F0030F63
:100AC00008BF11F0030F40F015804FF0013E121FD8
:100AD000C0F20E8051F8043BA3EB0E0C2CEA030C81
:100AE0001CEACE1C08BF40F8043BF0D0A1F1040181
:100AF00002F10402521E08DB11F8013B002B00F842
:100B0000013BF7D11146FFF78EFF204610BD0000D4
:100B10004FF0013C50F8042B51F8043B9A4221D18C
:100B2000A2EB0C03934313EACC1317D150F8042B18
:100B300051F8043B9A4215D1A2EB0C03934313EAFC
:100B4000CC130BD150F8042B51F8043B9A4209D135
:100B5000A2EB0C03934313EACC13DBD04FF000005D
:100B6000704700BFD01A01BAB1FA81F101F0180143
:100B700022FA01F0CB40C1F12001DBB2C0B2C01AB1
:100B80002CFA01F3D11A914311EAC311E6D170474F
:100B9000704770477047000070B5064C7C44064DA6
:100BA0007D4403E0206820448047241DAC42F9D1F5
:100BB00070BD000094E90400ACE9040000487047EF
:100BC00084CE0020004870479CCE0020004870472B
:100BD000B4CE0020004870477CCE0020704770479C
:100BE0007047704738B504460A4600206946AFF39F
:100BF0000080002808BF38BD02460099204600F05A
:100C000027FC012038BD012000F085BDF8B5AFF309
:100C10000080054600200C46102000BF0646A8199B
:100C2000A0420DD9324669460020AFF3008007008C
:100C300008BF00F070FD0098A04218BF0546C41917
:100C4000FFF7BCFF05600746F01D20F007004619BE
:100C5000284600F00AF8B44208BFF8BDA21B31468E
:100C60003868BDE8F84000F0F3BB00210160C0E93E
:100C7000011070471020704710B5FFF7ABFF0068F8
:100C800010BD10B50446FFF7A5FF046010BD09684C
:100C90004A0501D540B27047C905FCD500B270477E
:100CA00009684A0501D5C0B27047C905FCD580B2B4
:100CB000704770B50C460546012A05D02878800695
:100CC00000D5EA69002302E0012305E05B1C9342A2
:100CD00002D2E05C0028F9D1A869E618C01AA86120
:100CE000286A184428622846FFF75AFC04E0D5E930
:100CF000012114F8010B9047B442F8D32846FFF7BE
:100D000065FC70BD2DE9F0470D46994692460446B4
:100D100000F124080168880604D5E06921F010017B
:100D2000216000E00120A84201DD471B00E0002710
:100D3000A1697A1902EB0900081AA0612078C0069F
:100D400002D42046FFF72CFC002608E0D4E901215C
:100D50001AF806009047206A401C761C20624E4517
:100D6000F4DB2078C0060AD52046FFF719FC06E020
:100D7000D4E9012130209047206A401C2062381EAF
:100D8000A7F10107F4DC07E0D4E9012118F8050018
:100D90009047206A401C2062281EA5F10105F3DC63
:100DA0002046FFF713FC2078000602D50220BDE89C
:100DB000F0870120FBE711680268006A530501D53E
:100DC00008700AE0D30501D5088006E0130603D5B4
:100DD000C217C1E9000200E00860012070477047B7
:100DE0002DE9FF4F0C461E464FF0FF378BB0D2E97E
:100DF0000001DDF860800A908A46C1F30A5505B902
:100E00003D46002108464FF00000BAF1000F00F403
:100E1000400005DA00EB80004FF4400101EA500089
:100E20004FEA9059B9F1010F00DDB9460A9850EA2E
:100E30004A000ED044F61050A5F2FF3545432F145A
:100E4000B8F1000F1ED07542291E1EDDC9F1000247
:100E50001CE0B8F1010F4FF0000001D0302103E099
:100E6000F24305E02154401CB042FBDB3046002237
:100E7000002121540B99C1F80880C1E900200FB06E
:100E8000BDE8F08FBD1B6D1CDEE74A4600DA694203
:100E900006A800F0A9FB06AB93E8070003AB83E8C4
:100EA000070050460A9900F057FD8DE80700A0F5AD
:100EB00000501F3800900398002D0ADD42F21F01F8
:100EC0004A460844002303A90390684600F0C0FF87
:100ED00009E0A0F500504A461F38002303A90390FB
:100EE000684600F0CAFF8DE807000004000C03D03C
:100EF0004FF0FF30410800E01046B8F1000F03D07A
:100F00000022009215461EE0751E05D400F0BAFAC4
:100F1000303262556D1EF9D5B3460122084302D026
:100F200000227F1C04E02078302801D100227F1E9F
:100F3000002A099784D01DE0112D07DA00F0A2FAEB
:100F4000303262556D1C50EA0102F5D1084302D0DF
:100F50000098C8B10EE00021681E05E0235C625CC9
:100F600063542254401E491C8142F7DBAB46A81B48
:100F7000401E0990002004F80B000B98099AC0F855
:100F80000880C0E9002B7AE711264FF0000857E7E8
:100F90002DE9F04F88460446D21D22F0070191B09A
:100FA000D1E90001CDE90A0105F028FC02460B98C1
:100FB000C00F01D02D2007E02068810701D52B202C
:100FC00002E0202101EAC000032A099001D0072A8B
:100FD00005DB03464146204600F09AFA0BE12078F3
:100FE000800601D5E06900E00620B8F1650F814672
:100FF00006D0B8F1660F18D0B8F1670F70D131E0A4
:101000000020B9F1110F009001DB112301E009F17B
:1010100001030AAA01A90CA8FFF7E2FEDDE90C70A2
:10102000002609F10105834647E001204B46009068
:101030004FF000470AAA01A90CA8FFF7D1FEDDE98D
:101040000DB00C995D46002610B909F101000D188C
:10105000B9EB050003D4C0F1FF3609F10105A5EB9A
:1010600009002BE0B9F1010F01DA4FF0010900206E
:10107000B9F1110F0090484601DD112300E003464D
:101080000AAA01A90CA8FFF7ABFEDDE90C704D46DA
:1010900000268346207800070AD4AB4500DA5D4677
:1010A00001A8012D04DD411911F8011C302907D0D8
:1010B0004F4502DA17F1040F04DA012082460FE0EF
:1010C0006D1EEEE7002F02DCED1B3E4403E0781CB2
:1010D000A84200DD7D1CB81B00F1010A4FF000475B
:1010E0002078000703D4AA4501DB4FF0FF3A002126
:1010F000B7F1004F0DF143088DF8431024D00220C2
:101100002B23002F01DA7F422D230A21021EA0F19A
:10111000010000DC5FB197FBF1FC97FBF1F201FBF2
:101120001C7C17460CF1300C08F801CDEEE7A8F155
:10113000010003702188090501D5452100E06521E2
:10114000A0F1010800F8011C09980FA9A1EB0807FC
:10115000FF1D00B10120411901EBEA70A16938447B
:10116000081A401EA0612078C00602D42046FFF76E
:1011700017FA099828B1D4E901219047206A401C48
:1011800020622078C00622D52046FFF709FA1EE02B
:10119000002E04DBB34502DD01A8805D00E03020B5
:1011A000D4E901219047206A401C2062761CAAF1F4
:1011B00001005FEA000A0AD1FFF704FDC068016878
:1011C000405CD4E901219047206A401C2062281E1F
:1011D000A5F10105DCDC07E0D4E9012118F8010BD9
:1011E0009047206A401C2062381EA7F10107F3DCFB
:1011F0002046FFF7EBF9032011B041E601694A1CD4
:1012000002610878704700B58FB0CDE90131002147
:10121000059105497944CDE9031011466846FFF769
:101220006DFA0FB000BD0000E5FFFFFF0A6802F88D
:10123000010B0A607047D1E900239A4202D2531C85
:101240000B601070704700002DE9FF5F15468A465D
:101250000446DFF8AC80F8440027D8E900103E4689
:10126000CDE9001010E03AF816106A4602A800F026
:101270002DFA411C07D02178890603D5E269391877
:1012800091420DD80744761C2078800602D5E0698B
:10129000B84205DDAE42E6DB3AF816000028E2D19E
:1012A000A069C01BA0612046FFF77AF9D8E90010B9
:1012B000CDE90010002017E03AF818106A4602A89D
:1012C00000F004FAB0F1FF3F81460BD000250DF18C
:1012D000080B05E0D4E901211BF8050090476D1CBF
:1012E0004D45F7D308F10100B0428046E4DB206AA7
:1012F000384420622046FFF769F9BDE8FF9F0000EF
:10130000B6D804002DE9F0418046D21D22F0070234
:101310000025D2E90002F52915A614D0011E72F1AC
:10132000000106DA0023D0EB030063EB020211A6F2
:1013300008E0D8F800108B0701D50FA602E0490796
:1013400001D50EA601251146002408F1240704E06A
:1013500000F098F830323A55641C50EA0102F7D197
:101360002B46324621464046BDE8F041FFF7CABC55
:10137000000000002D0000002B00000020000000F5
:1013800030B4002100F1240408E002F00705D2087F
:10139000303542EA4372DB086554491C52EA0305C2
:1013A000F3D10468002310A2250707D5A40600D4B2
:1013B00021B1C46901230DA2641EC46130BCFFF7D2
:1013C000A1BC10B5044621461068FFF769FC02462F
:1013D0002046BDE810400023D2E7D21D22F00701CD
:1013E000D1E90023CCE7000000000000300000003D
:1013F0002DE9F0410646FFF7E9FB8046454613E03C
:1014000016B1E068B0420ED120682860D4E901012D
:10141000D8F8007088472046FEF7F3FFD8F80000A0
:10142000B842EBD100E025462C68002CE8D1BDE89D
:10143000F08110B500F076F9BDE8104000F066B913
:10144000004870477CCE002000487047B0CE002096
:10145000034640688C46002818BF88423CBF0346BC
:101460004068F8D318681844884207D00CF103008C
:1014700020F00700001D411A521A0146081D0A609B
:10148000FEF7BFBF30B5B0F10A024FEA900E71F11E
:1014900000034EEA817EB0EB0E0061EB91014FEA52
:1014A000101E4EEA017E10EB0E0041EB11114FEAC7
:1014B000102E4EEA016E10EB0E0041EB11214FEAA7
:1014C000104E4EEA014E10EB0E0041EB1141401858
:1014D00041F100014FEAD00040EA41704FEAD101EA
:1014E00010EB80054FEA810444EA907444EB010458
:1014F0006D1944EB0404521BA3414FF0000348BF95
:101500000A3200D530BD401C41F1000130BD000061
:101510002DE9F0411F46044603260168072A01F41D
:10152000006004DB08B116A505E016A503E008B1CC
:1015300015A500E015A521F010002060A069C01ECF
:10154000A0610FB1401EA0612046FFF729F84FB1FE
:10155000D4E9012138469047206A401C2062C01C13
:10156000206206E0206AFAE7D4E9012115F8010BB0
:101570009047761EF8D22046FFF728F8BDE8F081A4
:101580004E414E006E616E00494E4600696E660027
:1015900010B5436913B1AFF3008001E0FFF789FB99
:1015A000012010BD127800F124010A7000224A7057
:1015B0000122EDE711684FF0FF32E9E710B543690A
:1015C00013B1AFF3008001E0FFF73EFE012010BD34
:1015D000128800F1240182840022C2840122EDE7F6
:1015E00011684FF0FF32E9E72DE9F04781461646D2
:1015F0008AB0354878440DC88DE80D0032487844EB
:10160000801C03AC0DC884E80D0041F69B300844F3
:10161000372190FBF1F290FBF1F5A5F1800501FB7C
:1016200012041B3C02D56442012000E00020DFF8D8
:1016300098A080460027FA44AAF1BE0A0EE0E0070F
:101640000AD03246684607EB470101230AEB8101C5
:1016500000F013FC8DE8070064107F1C002CEED115
:10166000194F7F44AE3F19E0E80715D007EB04108F
:101670000DF1180A90E80E008AE80E00C068F042EA
:1016800001D1981908903246012306A903A800F059
:10169000F4FB03AB83E807006D10641C002DE3D15D
:1016A0004FF0010332466946B8F1000F03A802D09B
:1016B00000F0CEFB01E000F0E0FBC9E90001C9F851
:1016C00008200AB0BDE8F0879CD5040070B5164626
:1016D0000C460546FEF75EFE036893F801010128FB
:1016E00006D0FF2C0FD8185D68B101202C7070BD9A
:1016F000D3F807013246214603F207130344284674
:10170000BDE8704018474FF0FF3070BD002801D091
:1017100000F058B8704710B500F0B2F8BDE81040BE
:10172000FFF7F4BF10B5002102A000F08FF80120F0
:1017300010BD00005349475056464E3A205075722E
:1017400065207669727475616C20666E2063616CC9
:101750006C656400AFF3008010B500F00EF801690D
:1017600019B100220261884701E08068804700F0DB
:1017700062F8000010B500F05EF870B500F04EF8A9
:1017800004680546A4B92020FEF70CFE040011D021
:10179000094900202C60C4E900010849A1602073B8
:1017A000206160610649A06109B100F091F8E06133
:1017B000204670BD00F03FF80000000075170008DB
:1017C0000000000001491820ABBEFEE72600020021
:1017D00070477546FFF734FEAE460500694653462E
:1017E00020F00700854618B020B5FEF7C1FDBDE822
:1017F00020404FF000064FF000074FF000084FF078
:10180000000B21F00701AC46ACE8C009ACE8C00908
:10181000ACE8C009ACE8C0098D4670470048704785
:10182000B8CE002010B50446AFF300802046BDE8D6
:101830001040FEF779BD10B5002000F06EF8FEF7FD
:1018400065FDBDE810400120FFF7BCBF70B505463F
:101850000C460A2000E06D1C00F058F835B12878DD
:101860000028F8D102E0641C00F050F814B1207890
:101870000028F8D1BDE870400A2000F047B8000009
:1018800010B5012805D0002103A0FFF7DFFF0120DC
:1018900010BD09A1F8E7000053494752544D454D8A
:1018A0003A204F7574206F662068656170206D6501
:1018B0006D6F7279000000003A2048656170206DFC
:1018C000656D6F727920636F7272757074656400F4
:1018D00010B58820FEF766FD002801D000210170B8
:1018E00010BD802902D808B1017809B100207047E5
:1018F000012100F8081B704718B100F1080291425D
:1019000001D00020704700210170704708B569467A
:101910008DF800000320ABBE08BD10B500F004F840
:10192000BDE81040FFF7F2BE10B5002102A0FFF79E
:101930008DFF012010BD0000534947414252543AE7
:101940002041626E6F726D616C207465726D696E9C
:101950006174696F6E0000005FEA400C08BF91F08F
:10196000000F4FEA8C234FEAC12243EA51514FEA5C
:101970001C5018BF00F5F0404FEA300018BF41F08E
:1019800000415FEA6C5C00F02980BCF1FF3F08BFBA
:1019900040F080407047130C06BF12044FF0100C4B
:1019A0004FF0000C130E04BF12020CF1080C130FC1
:1019B00004BF12010CF1040C930F04BF92000CF150
:1019C000020CD30F04BF52000CF1010C11464FF072
:1019D0000002A0F11F00A0EB0C00704711F0004FB7
:1019E00008BF704731F000413FF4D5AF0B0C06BF84
:1019F00009044FF0100C4FF0000C0B0E04BF09024D
:101A00000CF1080C0B0F04BF09010CF1040C8B0F37
:101A100004BF89000CF1020CCB0F04BF49000CF18C
:101A2000010CCCF12003A0EB0C0022FA03F302FA24
:101A30000CF241EA030100F10100704720F07F4CF5
:101A400080EA030023F07F47ACEB070303F57C53E8
:101A500000F0004003F1FF032DE980494FEA154BE8
:101A600009B44FEA144325EA0B4E24EA03480FF267
:101A7000042606EB132749083E785FEA320203FB8F
:101A80000667C7F5000707FB06F64FEA54374FEA2B
:101A9000D64606F1020607FB066CCCF1005C4FEA65
:101AA0001C472CEA074C07FB06F40CFB06F504EB7D
:101AB00015464FEA961634BF00204FF000404FEA1B
:101AC000D13706FB07FC4FEA1C4C0CFB0BF7D21B73
:101AD00003FB0CF761EB07010CFB0EF7B0EB0740C3
:101AE00072EB17420CFB08F734BFA2EB0742B2EBD4
:101AF000074261EB17414FEA0C444FEA910706FB9E
:101B000007FC4FEA1C4C0CFB0BF7B0EBC74072EB29
:101B1000573203FB0CF734BFA2EBC742B2EBC7420C
:101B200061EB57310CFB0EF7B0EBC70072EB57724D
:101B30000CFB08F734BFA2EBC702B2EBC70261EBA4
:101B40005771039F4FEA816141EA921104EBCC0483
:101B50004FEAD1374FEA826206FB07FC42EA901255
:101B60004FEA80604FEA1C4C0CFB0BF7D21B03FBC7
:101B70000CF761EB07010CFB0EF7B0EB074072EBC3
:101B800017420CFB08F734BFA2EB0742B2EB074247
:101B900061EB17414FEA8C554FEA910704EB9C2407
:101BA00006FB07FC4FEA1C4C0CFB0BF7B0EBC740E5
:101BB00072EB573203FB0CF734BFA2EBC742B2EB18
:101BC000C74261EB57310CFB0EF7B0EBC70072EB6D
:101BD00057720CFB08F734BFA2EBC702B2EBC70287
:101BE00061EB577115EB4C254FEA816141EA921187
:101BF0004FEA82624FEAD13742EA901206FB07FCB5
:101C000044F100044FEA80604FEA1C4C0CFB0BF7D8
:101C1000D21B03FB0CF761EB07010CFB0EF7B0EBDB
:101C2000074072EB17420CFB08F734BFA2EB0742E8
:101C3000B2EB074261EB174115EB1C154FEA8131FE
:101C400041EA92414FEA823242EA90424FEA8030C2
:101C50004FEA0C7644F1000448EA03434EEA0B488D
:101C60004FF0000EB2EB080C71EB030724BF624685
:101C700039464EEB0E0E4FF0000B00185241494111
:101C80004BEB0B0BB2EB080C71EB03077BF1000B7A
:101C900024BF624639464EEB0E0E4FF0000B001883
:101CA000524149414BEB0B0BB2EB080C71EB0307B4
:101CB0007BF1000B24BF624639464EEB0E0E51EA13
:101CC000020718BF46F0010616EB0E7655F100022A
:101CD00054F1000103D5BDE88901BDE80088BDE8E5
:101CE0008901BDE80048B619524141EB0101A3F159
:101CF0000103704780807F7E7D7C7B7A7978777660
:101D000076757473727171706F6E6E6D6C6C6B6AD8
:101D10006A69686867666665646463636261616076
:101D2000605F5F5E5E5D5D5C5C5B5B5A5A595958F3
:101D3000585757565655555554545353525252515D
:101D4000515050504F4F4F4E4E4D4D4D4C4C4C4BB3
:101D50004B4B4A4A4A4949494848484747474746FA
:101D60004646454545444444444343434342424236
:101D700042414141002B9C4630D477002BD01CB50A
:101D80004FEA370703B44FF010004FF01001BAF1DB
:101D9000000F06D0BCF1000FDCBF40F0080040F09F
:101DA00008014FF000000FBCBDE810400BF1010B23
:101DB000BBF1010F08BF5FEA170722BF12F1010252
:101DC00011F101014FF0004143F1000300F0004028
:101DD00043EA00007047F9D35708D0E746EA0646C1
:101DE00013F1400F4FEA16461FDD13F1200FDFBF3E
:101DF00016430A46002120335B42BED0C3F12007C0
:101E000046EA064602FA07F74FEA164646EA07068A
:101E1000C3F1200722FA03F201FA07F721FA03F1CE
:101E20004FF0000342EA0702A7E746EA020646EA45
:101E300006464FEA164646EA0106BCBF46EA064693
:101E4000360C4FF000034FF000024FF0000194E712
:101E50002DE9804C9A46934670B491E8380007C843
:101E600031EA400C48BF34EA430C03D5FFF7E6FDE6
:101E7000FFF780FFF0BCBDE8008C2DE9804C9A464E
:101E8000934670B491E8380007C810F0804F08BF3F
:101E900013F0804F03D100F005F8FFF76BFFF0BCA3
:101EA000BDE8008C20F07F4780EA030023F07F4CE0
:101EB00007EB0C03A3F57C5300F00040A3F1FE03F5
:101EC00092F0000F00F0B38095F0000F00F07780E3
:101ED0002DE901494FEA11404FEA144621EA004832
:101EE00000FB06FC24EA064708FB06F607FB08F899
:101EF00000FB07F718EB06484CEB164C4FEA124B69
:101F000018EB07484FEA15464CEB174022EA0B4EF8
:101F10000BFB06FC25EA06470EFB06F607FB0EFE4A
:101F20000BFB07F71EEB064E4CEB164C4FF0000672
:101F30001EEB074E4CEB174B18EB0B0840F1000063
:101F400018EB0E0B58EB000840F100008F1A4FF011
:101F500000013CBFC943661B14BFB5EB040C002154
:101F60003CBFC943F61B4FEA17444EEA8E0E27EAE0
:101F700004454FEA1C4704FB07622CEA074C05FBAB
:101F800007F70CFB05F604FB0CFC16EB074642EBCF
:101F9000174216EB0C4642EB1C421BEB060658EBB5
:101FA0000202414146EA9E0601D5BDE80189B61903
:101FB000524141EB0101A3F10103BDE801894FEA60
:101FC00014454FEA114724EA054621EA074C05FB70
:101FD00007F406FB07F70CFB06F105FB0CFC11EB05
:101FE000074144EB17444FEA124711EB0C4144EB15
:101FF0001C4422EA074C05FB07F206FB07F70CFB23
:1020000006F605FB0CFC16EB074642EB174216EBF7
:102010000C4642EB1C456A1854F1000148BF70475A
:10202000B619524141EB0101A3F10103704795F04C
:10203000000F37D04FEA11424FEA144721EA024617
:1020400024EA074C02FB07F106FB07F70CFB06F43A
:1020500002FB0CFC14EB074441EB17414FEA154718
:1020600014EB0C4441EB1C4125EA074C02FB07F53D
:1020700006FB07F70CFB06F602FB0CFC16EB07460B
:1020800045EB174516EB0C4645EB1C42121951F176
:10209000000148BF7047B619524141EB0101A3F15D
:1020A000010370474FEA14454FEA114724EA0546F9
:1020B00021EA074C05FB07F106FB07F70CFB06F2CC
:1020C0004FF0000605FB0CFC12EB074241EB1741F9
:1020D00012EB0C4251EB1C4148BF7047921841EB88
:1020E0000101A3F1010370470029816802D041F08A
:1020F000010101E021F0010181607047084B10B53A
:10210000D3F8042307490A40D0E900142143D0E959
:102110000240044321431143C3F8041310BD0000DF
:1021200000200140E030FCFF0029816802D041F42A
:10213000807101E021F4807181607047002981681D
:1021400002D041F4007101E021F400718160704718
:1021500010B5194C90B0204600F084F90121880593
:1021600000F0B2FC204600F00FFA0028FAD1134824
:102170000021CDE900101248CDE902011148007894
:10218000CDE904014FF48060069040000790800084
:10219000089000010A90401209900120CDE90B102F
:1021A0000D910E916946204600F0F6F90121204676
:1021B00000F04EF910B010BD106402404C200140F8
:1021C000ACCC0020E40200202DE9F04101218AB0CE
:1021D000080200F09DFCFFF7BBFF00F0B7F80024F9
:1021E0004FF40030CDE906404FF470600990089438
:1021F00006A8FFF783FF01201C4E8DF80400009411
:102200008DF80500029404943078194D8DF814006F
:102210006946284600F0A6F801212846FFF764FF2A
:10222000A846144F0FE0651CEAB217F814100723F4
:10223000404600F0BDF837F81400122802D1012002
:1022400000F0F6F8ACB230788442ECD30121444679
:102250004046FFF773FF01212046FFF765FF204648
:1022600000F0E0F80AB0BDE8F0810000E4020020D0
:102270000020014088CC002070B5264D0446264E33
:10228000687848B90020FF2126F81010401CC0B221
:102290001228F9D30120687034B3012C24D0022C09
:1022A00022D0032C20D0042C1ED0052C1CD0062CB0
:1022B0001AD0072C18D0082C16D0092C14D00A2CB0
:1022C00012D00B2C10D00C2C0ED00D2C0CD00E2CB0
:1022D0000AD00F2C08D0102C06D0112C04D0122CB0
:1022E00002D04FF0FF3070BD204600F017F8401CC0
:1022F00002D06FF0010070BD2878122802D36FF071
:10230000020070BD26F81040401CC0B22870401E6C
:1023100070BD0000E402002088CC00200A4910B5FE
:1023200002460020074B097806E000BF33F8104052
:10233000944205D0401CC0B28842F7D34FF0FF3022
:1023400010BD000088CC0020E402002010B501215F
:102350000C02204600F0E8FB2046BDE810400021BA
:1023600000F0E2BB30B542680F4B0C791A400B68A5
:1023700042EA04221343436082680C4B4D791A40B1
:10238000D1E9034323438C6844EA450423431343C0
:102390008360C26A097D22F47002491EC9B242EA12
:1023A0000151C16230BD0000FFFEFFFCFDF7FFC020
:1023B00070B5072409290AD9C568A1F10A0606EBF8
:1023C0004606B440A543B3401D43C56007E0056918
:1023D00001EB4106B440A543B3401D4305611F23F3
:1023E000072A09D2446B521E02EB820293409C439F
:1023F00091400C43446370BD0D2A09D2046BD21F77
:1024000002EB820293409C4391400C43046370BDF5
:10241000C46A0D3A02EB820293409C4391400C4304
:10242000C46270BD816841F08041816070470000E6
:1024300006490028D1F8040302D040F4000001E06E
:1024400020F40000C1F804037047000000200140A0
:102450000029016802D041F0010101E021F00101F1
:10246000016070472DE9F043016821F0010101602E
:102470000021016041608160C160016121214161F1
:102480003C493C4A3D251039904202D18D60BDE85F
:10249000F083384A4FF474661832904201D18E604E
:1024A000F5E7344A4FF474173032904201D18F600F
:1024B000EDE7304A4FF0746C4832904202D1C1F8D7
:1024C00008C0E4E72B4B2C4A6033984201D1CA6024
:1024D000DDE7284C294B7834A04201D1CB60D6E708
:1024E000DFF89080264C08F19008404501D1CC607F
:1024F000CDE7DFF880804FF03D5908F1A80840454E
:1025000002D1C1F80C90C2E71E49DFF87880083983
:10251000404501D10D60BAE71A4D1835A84201D1E6
:102520000E60B4E7174D3035A84201D10F60AEE719
:10253000144D4835A84202D1C1F800C0A7E7114D9B
:1025400010496035091FA84201D10A609FE70D4A72
:102550007832904201D10B6099E70A4A903290425A
:1025600001D10C6093E7074AA83290428FD1C1F89D
:1025700000908CE7106002403D000020400F0020DA
:1025800000003D2010640240014600200968C90790
:1025900000D001207047000030B50368124ACC68B3
:1025A00013400A682243D1E905452C432243CC69F4
:1025B00022430C6A22434C6A22438C6A22434C6BAE
:1025C00022438C6B22431A430260426922F00703C4
:1025D000D1E90B2422431A4342610A6942604A68E6
:1025E00082608968C16030BD3F801CF070B500F02A
:1025F00097FD0E484FF47A714FF0FF350068B0FB3D
:10260000F1F1491EB1F1807F0AD24FF0E0246161FF
:102610000F21284604F01DF90020A0610720206149
:102620002846BDE87040002104F013B904030020DF
:1026300010B5012000F0EAF8002808D0044800682E
:1026400000B18047BDE81040012000F0D9B810BDAE
:10265000D0CC002070B54FF48065284600F0D6F845
:10266000234C28B1A16A01B18847284600F0C8F878
:102670004FF40065284600F0C9F828B1E16A01B1BD
:102680008847284600F0BCF84FF48055284600F0F3
:10269000BDF828B1216B01B18847284600F0B0F899
:1026A0004FF40055284600F0B1F828B1616B01B134
:1026B0008847284600F0A4F84FF48045284600F0EB
:1026C000A5F828B1A16B01B18847284600F098F819
:1026D0004FF40045284600F099F8002807D0E16B38
:1026E00001B188472846BDE8704000F089B870BD48
:1026F000D0CC002010B5022000F088F8002808D0C7
:102700000448406800B18047BDE81040022000F056
:1027100077B810BDD0CC002010B5042000F076F8BA
:10272000002808D00448806800B18047BDE8104008
:10273000042000F065B810BDD0CC002010B50820F2
:1027400000F064F8002808D00448C06800B1804751
:10275000BDE81040082000F053B810BDD0CC0020D8
:1027600010B5102000F052F8002808D00448006985
:1027700000B18047BDE81040102000F041B810BD06
:10278000D0CC002070B5202000F040F81B4C28B1C0
:10279000606900B18047202000F032F8402000F04E
:1027A00035F828B1A06900B18047402000F028F832
:1027B000802000F02BF828B1E06900B1804780202C
:1027C00000F01EF84FF48075284600F01FF828B17D
:1027D000216A01B18847284600F012F84FF40075CD
:1027E000284600F013F8002807D0616A01B1884735
:1027F0002846BDE8704000F003B870BDD0CC002082
:102800000149086070470000143C0140034A01463A
:10281000002012680A4200D001207047143C014099
:10282000024901EB0010808900F002B8B4DD040811
:10283000002102E04008491C89B20128FAD8C8B238
:102840007047F0B50023012403270D6804FA03F252
:102850001540954242D1D0F800C05E0007FA06F557
:102860002CEA050CC0F800C091F804C0D0F800E0D4
:102870000CFA06FC4CEA0E0CC0F800C091F804C03B
:10288000BCF1010F02D0BCF1020F1FD1D0F808C07B
:102890002CEA050CC0F808C091F805C0D0F808E093
:1028A0000CFA06FC4CEA0E0CC0F808C0D0F804C0C4
:1028B0002CEA020CC0F804C0426891F806C00CFA79
:1028C00003FC1FFA8CFC42EA0C024260C268AA4375
:1028D000C260CA79C568B2402A43C2605B1C102B33
:1028E000B3D3F0BD4B07DB0E9A40C90810B500EB1F
:1028F0008100016A0F249C40A1430162016A1143D7
:10290000016210BD7CB504463248844201D10120E9
:1029100030E03148844201D102202BE02F4884422C
:1029200001D1042026E02E48844201D1082021E074
:102930002C48844201D110201CE02B48844201D154
:10294000202017E02948844201D1402012E0284885
:10295000844201D180200DE02648844201D18015B7
:1029600008E02548844201D1401503E02348844211
:1029700020D10015FAB1012A1FD0022A20D0032A43
:1029800021D0052A21D0062A21D0072A12D10225DA
:10299000002600228DF804508DF8053000918DF846
:1029A00006608DF80720012100F08EF86946204668
:1029B000FFF747FF7CBD0025EBE700250122E9E793
:1029C00000250222E6E70325E3E70125E0E70125EC
:1029D0002E46DEE7000002400004024000080240EC
:1029E000000C024000100240001402400018024097
:1029F000001C024000200240002402400028024047
:102A00002DE9F04717460C460646B02810D2244858
:102A100000EB0615686858B1A87B48B144B13FB1D6
:102A2000DFF8808004FB07F0D8F80010884202D954
:102A30000020BDE8F0870721304610F037FA304615
:102A400000F072FC81463046FFF7EAFE01464A4636
:102A50002868FFF747FFD8F800002646B0FBF6F0DD
:102A6000B0FBF7F41049686888420CD00F498842DF
:102A700009D00F49884206D00E49884203D00E493A
:102A8000884200D06408002100F039FC641E761EE4
:102A9000AB7BA2B2B1B2686800F00EFEA87BC8E7BB
:102AA000B4DD0408040300200000014000040140DC
:102AB00000400140004401400048014001490862D3
:102AC0007047000000000E42044A0029116801D03E
:102AD000014300E08143116070470000303802403C
:102AE000044A0029116801D0014300E081431160CC
:102AF0007047000040380240044A0029116801D0A4
:102B0000014300E08143116070470000203802401B
:102B1000044A0029116801D0014300E0814311609B
:102B20007047000044380240044A0029116801D06F
:102B3000014300E0814311607047000024380240E7
:102B400002460020510901290BD002290CD0084966
:102B5000096802F01F02012393400B4200D00120BC
:102B6000704703497439F3E70149091FF0E7000092
:102B700074380240054900220A700A70012802D008
:102B8000042801D105200870704700007038024009
:102B900001490860704700003C0E4742C0F3012124
:102BA000032907D1074A116821F4F81306490140A7
:102BB00019431160034968310A68C0F30B000243EE
:102BC0000A60704708380240FFFCFF0F10B54FF451
:102BD0008074204600F076F8012804D12046BDE834
:102BE000104000F017B810BD010901EB810100F0A1
:102BF0000F0000EB4100C0B27047002103E0491C08
:102C00000A38C9B2C0B20A28F9D2090740EA1160ED
:102C10007047000080B240F08000C1430348026862
:102C200002F0800211430160704700000C28004050
:102C300008B5002000900C480168490612D44FF0F6
:102C4000FF31016083130168009A01F04001521CBA
:102C500000929A4201D00029F5D00068400601D4C4
:102C6000002008BD012008BD0C2800400248016872
:102C700021F08001016070470C28004010B50C461F
:102C80000E4909680E4A11400A0CE270C1F3042390
:102C9000637001F03F03A370C1F34231217000283B
:102CA0000BD11046FFF7A0FFE0706078FFF79CFFA4
:102CB0006070A078FFF798FFA07010BD0428004056
:102CC0003FFFFF000449024600200968034B1940FA
:102CD000114200D0012070470C2800407F7F010086
:102CE00010B50C460F4909680F4A1140C1F305425F
:102CF0002270C1F30623637001F07F03A3704023A9
:102D000003EA1141E17000280BD11046FFF76CFF78
:102D100020706078FFF768FF6070A078FFF764FFAD
:102D2000A07010BD002800407F7F7F0070B5124D5D
:102D300004460026CA20286053202860FFF778FF49
:102D4000A8B10D481C38016821F0400101600168FC
:102D50002268114301600848A168143801600168C5
:102D6000A28841EA02410160FFF780FF0126FF20AF
:102D70002860304670BD00002428004008B5034993
:102D800001EB80000090006808BD00005028004062
:102D900070B50C46010060784FF000062AD0FFF7AE
:102DA00023FFA078FFF720FFA078E17840EA0145F3
:102DB00060782178000240EA41300543194CCA206E
:102DC000206053202060FFF733FF78B1164805409C
:102DD000144820380560FFF749FF12481C38006886
:102DE000800602D400F080F800B10126FF202060A8
:102DF000304670BDC10603D520F010000A30607067
:102E0000E078FFF7FAFE05046078FFF7F6FE45EA82
:102E10000025A078FFF7F1FE0543207845EA40350C
:102E2000CCE70000242800403FFFFF002DE9F041DF
:102E3000244F0C4602004FF0000620783A683146D5
:102E40004FEA426204D0002A15DAFFF7CDFE13E004
:102E5000002A00DBE170FFF7D0FE05046078FFF781
:102E6000CCFE45EA0025A078FFF7C7FE0543E078D1
:102E700045EA00450AE0E170A078217840EA014582
:102E80006078E178000240EA014005430D4CCA2019
:102E90001C34206053202060FFF7CAFE68B10A4846
:102EA0000540084808380560FFF7E0FE38688006EE
:102EB00002D400F019F800B10126FF20206030464E
:102EC000BDE8F081082800407F7F7F0010B54FF4F7
:102ED00080642046FFF7F6FE012804D12046BDE8B5
:102EE0001040FFF797BE10BD18B5002010490090A4
:102EF000CA200860532008600D481838026822F084
:102F0000A00202604FF400340268009B02F020022D
:102F10005B1C0093A34201D0002AF5D00068800614
:102F200001D5012000E00020FF220A6018BD00004A
:102F30002428004008B5034A02EB8000009001609D
:102F400008BD00005028004030B5C1784278837831
:102F500001F5FA61012A02D0022A02D003E00D2213
:102F600000E00E22491E541C04EB4404052594FB8A
:102F7000F5F403EB42022244CB170A4401EB9373AE
:102F800002EBA302642391FBF3F3D21A4FF4C8734C
:102F900091FBF3F11144072291FBF2F302FB1311B1
:102FA000491C017030BD3EB501210807FFF798FDAF
:102FB0000120FFF783FD0020FFF7E0FE45F25004FB
:102FC000A04227D00120FFF7D5FD4120FFF7B8FD33
:102FD0000028FAD04FF48070FFF7E0FD0120FFF7E2
:102FE000D7FD7F200190FF200290002000906846CE
:102FF000FFF79CFE00231A461946184600F019F800
:1030000001231A461946002000F005F82146002049
:10301000FFF790FF3EBD08B58DF802208DF8011036
:103020008DF800308DF8030069460020FFF7B0FEF0
:1030300008BD08B58DF800008DF801108DF802204C
:103040008DF8033069460020FFF7F0FE08BD002927
:10305000018802D041F0400101E021F040010180EF
:10306000704730B502884C8802F441530A88CD88F5
:1030700022438C882C4322430C8922434C892243CF
:103080008C892243CC8922431A430280828B22F40A
:1030900000628283098A018230BD000018480168FD
:1030A00041F0805101601748016841F440410160DE
:1030B000134838380168016001680160016841F413
:1030C00080510160021F10491160111F0A6842F00F
:1030D00080720A600A689201FCD50C4A40F20271C3
:1030E0001160016821F003010160016841F00201F3
:1030F00001600168C1F381010229FAD17047000023
:10310000403802400070004010640107003C02405B
:1031100002480168491C016070470000E802002075
:1031200070B5184D00212868174A10F00C03174895
:1031300003D0042B03D0082B03D0026018E01449FD
:1031400015E0104B1B1F1C681E68C4F3805406F06A
:103150003F062CB9B2FBF6F11A68C2F3881251434C
:103160001A68C2F30142521C5200B1FBF2F1016035
:103170002968064AC1F30311121D515C0268CA4056
:10318000026070BD083802400024F40004030020EF
:1031900040787D01124810B5016841F4700101606A
:1031A0001048016841F0010101600E4A0021083217
:1031B000116002680C4B1A400260031D0B4A1A6032
:1031C000026822F48022026006480C300160FFF79A
:1031D00065FF03494FF000608039086010BD0000B2
:1031E00088ED00E000380240FFFFF6FE10300024BA
:1031F00070B50F4D0121284600F016F90D4C30B185
:10320000216801B188470121284600F075F80A4D70
:103210000121284600F008F9002808D0616A01B1B0
:1032200088472846BDE87040012100F065B870BDB0
:103230000000014010CD00200044014010B50121E4
:103240008C07204600F0F0F8002809D005484168B6
:1032500001B188472046BDE81040012100F04CB87C
:1032600010BD000010CD002010B5094C01212046F2
:1032700000F0DAF8002809D00648816801B18847D3
:103280002046BDE81040012100F036B810BD000016
:103290000004004010CD002010B5094C012120464B
:1032A00000F0C2F8002809D00648C16801B188477B
:1032B0002046BDE81040012100F01EB810BD0000FE
:1032C0000008004010CD002010B5094C0121204617
:1032D00000F0AAF8002809D00648016901B1884722
:1032E0002046BDE81040012100F006B810BD0000E6
:1032F000000C004010CD0020C94301827047002916
:10330000018802D041F0010101E021F001010180BA
:103310007047002930F8441F02D041F4004101E019
:10332000C1F30E01018070472DE9F04F314A01468B
:1033300002EB0111DFF8C08049680020DFF8BCC053
:103340002F4A304B304CDFF8C4A0DFF8C4B0314D09
:10335000314E324FDFF8C890414522D0B1F1804F55
:103360001DD061451FD091421DD099421BD04FEA1C
:10337000B848414517D0DFF8AC80414513D0A14291
:1033800011D051450FD059450DD0A9420BD0B142B3
:1033900009D0B94207D0494529D0BDE8F08F0120B6
:1033A000FBE7012003E0614501D1022003E09142E7
:1033B00001D1022003E0994201D1022003E0A142A1
:1033C00001D1032003E0514501D1032003E0594519
:1033D00001D1032003E0A94201D1032003E0B1425F
:1033E00001D1092001E0B94201D04945D5D10920D8
:1033F000D3E70000B4DD04080000014000040040F1
:1034000000080040000C0040000401400040014062
:10341000004401400048014000180040001C0040EA
:10342000002000400014004002460020138A9289C8
:103430000B4202EA010202D0002A00D001207047AC
:1034400030B5028C22F001020284028C8388048B46
:1034500022F0020224F073050C882C438D89154359
:103460004A882A430C4DA84202D00C4DA8420DD1E7
:1034700022F00805CA8923F440732A4322F0040588
:103480008A882A430D8A1D434B8A2B4383800483F9
:1034900089684163028430BD00000140000401409E
:1034A000028B22F008020A430283704770B5028C37
:1034B00022F010020284028C8488038B0D8823F48E
:1034C000E6464FF6FF7303EA052535438E8922F061
:1034D000200203EA061616434A8803EA0212324320
:1034E000104EB04202D0104EB04215D122F08006EC
:1034F000CA8924F4406403EA0212324322F04006EF
:103500008A8803EA021232430E8A03EA86062643B9
:103510004C8A03EA84043443848005838968816388
:10352000028470BD0000014000040140028B4FF690
:10353000FF7322F4006203EA012111430183704703
:1035400070B5028C22F480720284028C8488838B92
:103550000D8823F073031D4322F400738E894FF608
:10356000FF7202EA06261E434B8802EA0323334316
:10357000104EB04202D0104EB04215D123F4006676
:10358000CB8924F4405402EA0323334323F48066B6
:103590008B8802EA032333430E8A02EA0616264387
:1035A0004C8A02EA04143443848085838968C163A9
:1035B000038470BD0000014000040140828B22F0B2
:1035C00008020A438283704770B5028C22F480524D
:1035D0000284048C8288838B0D8823F4E6464FF6A0
:1035E000FF7303EA0525354324F400568C8903EA6A
:1035F000043434434E8803EA06362643084CA0427E
:1036000002D0084CA04205D122F480440A8A03EA81
:10361000821222438280858389680164068470BD9A
:103620000000014000040140828B4FF6FF7322F43A
:10363000006203EA012111438183704730B502889B
:10364000164B174C98420DD0A0420BD0B0F1804FD2
:1036500008D0144DA84205D0134DA84202D0134DF6
:10366000A84203D122F070054A882A43104DA8428F
:1036700006D0104DA84203D022F440750A892A438F
:1036800002804A68C2620A880285984201D0A0423C
:1036900001D1897A01860121818230BD000001407B
:1036A000000401400004004000080040000C0040FD
:1036B00000100040001400402DE9FF4F464D474EDA
:1036C000474FDFF82081DFF8209189B092468B4682
:1036D0000446A84223D0B4F1804F20D0434884420E
:1036E0001DD0434884421AD04248844217D04FEA42
:1036F000B540844213D04048844210D0B4420ED02A
:10370000BC420CD044450AD04C4508D03B488442CA
:1037100005D03B48844202D03A48844258D1012126
:10372000204600F071F80020ADF814A0ADF81C00A0
:10373000ADF81600CDF818B005A92046FFF77EFFBA
:103740007020ADF800000120ADF802000220ADF8B5
:103750000C000C98012806D002280DD0032814D0A4
:10376000042823D11AE069462046FFF769FE0821A4
:103770002046FFF795FE19E069462046FFF796FEC2
:1037800008212046FFF7D2FE10E069462046FFF7E9
:10379000D7FE08212046FFF711FF07E069462046C3
:1037A000FFF712FF08212046FFF73EFF01212046C8
:1037B000FFF7A5FDAC4207D0B44205D0BC4203D010
:1037C000444501D04C4503D101212046FFF7A1FD1E
:1037D0000DB0BDE8F08F0000000001400004014082
:1037E0000040014000440140004801400004004006
:1037F00000080040000C0040001400400018004089
:10380000001C004000200040254A904201D10120C8
:1038100033E0B0F1804F04D0224A904203D102201D
:103820003BE0012039E0204A904201D1042034E0FD
:103830001E4A904201D108202FE01D4A904201D13A
:1038400010202AE01B4A904201D1202025E01A4A8C
:10385000904201D1022010E0184A904202D14FF468
:1038600080300AE0164A904202D14FF4003004E062
:10387000144A904203D14FF48020FFF749B9124A0D
:10388000904201D1402008E0104A904201D18020AE
:1038900003E00F4A904202D18015FFF721B970472B
:1038A000000001400004004000080040000C0040FF
:1038B000001000400014004000040140004001409E
:1038C000004401400048014000180040001C004036
:1038D00000200040014801F01BBF000060CA00202A
:1038E000014801F015BF0000FCCA00200A0A0121AE
:1038F0009140C943018070470246002012880A4265
:1039000000D00120704730B501F01F0201240025CE
:10391000C1F3421304FA02F2012B0FD0022B0FD095
:10392000838A4FEA11210088134204FA01F400EA65
:10393000040001D000B10125284630BD8389F0E79D
:10394000038AEEE78088C0F308007047C1F30801DE
:10395000818070477CB513460446C888B1F90220BF
:103960008D88B1F90010801A6D1A401C6D1C00B2D0
:103970002DB2CDE90050044802F018FA2046BDE807
:103980007C4007F0C5BD00007404002010B507F0AE
:10399000D3FDBDE8104007F001BE0000F8B5344C7F
:1039A0000021A0680BF06EFFE0600DF09BFD01466A
:1039B0003C223048FDF705F82E4D304E2E48686207
:1039C00030680090BDF8000028842946E0680DF0BA
:1039D00079FF04F124004169E0680CF0F6FC002056
:1039E0000346014600900222E0680DF093F90121A0
:1039F000E0680DF0CDFE0021A0680CF0E5FD20612F
:103A00002079C0070BD1201D02F033FF38B100F040
:103A1000CBFD04F11C018880201DAFF30080144908
:103A200002221C3120690CF033FF20690DF05AFD91
:103A3000014610483C223C30FCF7C3FF7068009000
:103A4000BDF80000A5F870000A4802253C300121AD
:103A5000C58680F83910074920693C310DF032FFE6
:103A60000095D4E9031000230D220DF053F9F8BDA1
:103A70003C000020F81B002068010020F8490108E4
:103A8000F8B5334C002120690BF0FCFE60610DF0AD
:103A900029FD01463C222F48FCF793FF2D4D2F4E68
:103AA0002D48686230680090BDF8000028842946DF
:103AB00060690DF007FF2AA160690CF086FC002008
:103AC000034601460090022260690DF023F90121AE
:103AD00060690DF05DFE002120690CF075FDA061AC
:103AE0002079C0070BD1201D02F0C3FE38B100F0D1
:103AF0005BFD04F13C018880201DAFF30080144978
:103B000002223C31A0690CF0C3FEA0690DF0EAFC72
:103B1000014610483C223C30FCF753FF706800908F
:103B2000BDF80000A5F870000A4802253C300121CC
:103B3000C58680F839100749A0693C310DF0C2FEF6
:103B40000095D4E9051000230D220DF0E3F8F8BD2F
:103B5000C0000020B81C002068010020004A0108B5
:103B600054696D65436667002DE9FF471C4C0600EC
:103B700004D0E0690DF092FC054600E00025606B82
:103B80000DF0FBFC174F4FF000084FF0C809CDE9CE
:103B90000059CDE902870346134A1449606B00F0CF
:103BA00047FBC82001F0BCF91EB1606A0DF076FC3D
:103BB00000E000200546A06B0DF0DFFCCDE90059C8
:103BC000CDE9028709490346074A2431A06B00F07A
:103BD0002FFB04B0C820BDE8F04701F0A1B90000F8
:103BE000C000002051A50008F1180108E41D0020C4
:103BF00010B5002000F00AFE154802F017F9002168
:103C0000134801F0CDFF0021114801F085FF00F0BD
:103C1000E7FB00F0A5FC0021C8200EF0A3FC0EF08D
:103C20004FFD00F0F9F8012000F00AFC022000F03E
:103C300081FF032000F04AFF054801214C3001F0CC
:103C400092FA4FF4FA71BDE81040480000F05ABFF4
:103C50007404002010B50EF0D7FBBDE810400148F9
:103C600001F050BAC0040020064991F90020101854
:103C700001D5052002E0052800D900200870C0B257
:103C800000F03EBD3C000020F8B52A4CE169084632
:103C900006F0C0FE6063E0690DF000FC0546E069D7
:103CA0000DF04EFC01462A46606B0DF0CBFD002660
:103CB0000096334632463146606B0DF02BF8616A50
:103CC000084606F0A7FEA063606A0DF0E7FB054614
:103CD000606A0DF035FC01462A46A06B0DF0B2FD7E
:103CE000002300961A461946A06B0DF013F8606B7E
:103CF0000DF0F8FB01463C220F48FCF762FE0F482E
:103D0000416900910C49BDF80020743921F8762FE3
:103D100080690090BDF8000048800749FF200872C4
:103D2000606B0DF0CFFDA06BBDE8F84002490DF0CF
:103D3000C9BD0000C00000202C1E0020004A010860
:103D40002DE9F843324C0021A06806F063FE3149AA
:103D500060610DF0B7FD00F047FD054620690DF0EC
:103D60000CFC281A143802B2462160690DF06AFD75
:103D70000A200090D4E9041000230D220CF0CAFFA1
:103D80000021606906F046FE2249A0610DF09AFD0F
:103D900060690DF0D5FB01464FF4D272A0690DF0B9
:103DA00051FD60690DF07AFB0146A0690DF0A0FDA0
:103DB0000025A84604F124070021A0690AF022FF8B
:103DC000064607EB05108660016830460BF0CFFB16
:103DD0000023022219463046CDF800800CF09AFFED
:103DE00030460DF05BFBC0F1320000EBD070C5EB4C
:103DF000C501401001EB810100EB410001B23046EA
:103E00000DF076FD6D1C062DD6D3BDE8F8830000BD
:103E10003C000020041F00202DE9F84300252E4619
:103E2000DFF86C80FFF7B2FD002106F0F3FD08EB30
:103E30008514206000F0D8FC074600F0B5FB014671
:103E40003A4620680DF0FEFC002300961A461946FB
:103E500020680CF05FFF20683346324631460096FA
:103E600007F061FA201D3C220A49FCF7AAFD0096E2
:103E7000BDF80000E0800096BDF800002081211D03
:103E800020680DF01FFD6D1C042DCBDBBDE8F88311
:103E9000D4040020B81F002038B5194C0021E06878
:103EA0000BF0F0FCE0610DF01DFB01463C221548D3
:103EB000FCF787FD13491448486214484068009095
:103EC000A1F13C00BDF80010A0F85C100D49E069BC
:103ED0000DF0F8FC0121E0690CF064FA0CA1E06936
:103EE0000CF08DFA1E200023009002221946E06992
:103EF0000CF010FFE069BDE8384001210DF048BC2E
:103F000008000020441B0020EC010020B8490108F3
:103F1000303123464630303030202F233031204D91
:103F20004F4E000038B5224C0021E0680AF06AFECE
:103F3000204960620BF01BFB6FF01300009014230C
:103F400004220021606A0CF0E5FE0021E0680BF01D
:103F500099FCA0620DF0C6FA01463C221648FCF717
:103F600030FD1549154848621548C0680090A1F118
:103F70003400BDF80010A0F854100F49A06A0DF0ED
:103F8000A1FC0121A06A0CF00DFA0EA1A06A0CF0B0
:103F900036FA002003460090D4E9091013220CF0F1
:103FA000B9FEA06ABDE8384001210DF0F1BB000068
:103FB0000800002004CC0208BC1B00203C010020AB
:103FC000B849010823464630303030202F232031B5
:103FD0003235350038B5FFF75FFF1E4C0021E06831
:103FE0000BF050FC20620DF07DFA01463C221A488D
:103FF000FCF7E7FC184919484862194880680090A6
:1040000001F10800BDF8001001831349206A0DF08A
:1040100059FC0121206A0CF0C5F912A1206A0CF0AC
:10402000EEF900200346024601460090206A0CF09B
:1040300071FE0121206A0DF0ABFB002303224FF437
:10404000FA710A480EF056F9E062BDE8384000F017
:1040500097B8000008000020801B0020C00100204D
:10406000B849010830303A30300000008141000882
:104070000EB5022800D90020084B0ECB8DE80E00AB
:1040800007498B784A785DF8201005480C38C06ADB
:104090000CF0EEF900F024F80EBD00004C4A0108C7
:1040A000CC00002010B586B0032800D900200A4CAF
:1040B0000DF1040C1ECC8CE81E0008498A78009291
:1040C0004B780A7801A951F8201004480838006A92
:1040D0000CF0CEF906B010BD3C4A0108C800002023
:1040E00010B50C48FEF730FF0A480078401E40B279
:1040F000002801DA002002E0062800DD062005493C
:10410000383151F8201003480C38006BBDE81040DE
:104110000CF05BB9CC00002010B508B106A100E09E
:1041200009A10B48C2780C38806A0CF0A1F9BDE8EF
:104130001040FFF7D5BF0000234646303030302016
:1041400032302530326423003230253032640000B2
:10415000CC00002010B5084C207838B9032107485E
:1041600001F0FEFB0028F9D001202070BDE81040CE
:10417000024801F0B3BC000006000020F403002058
:1041800010B588B01A490020FEF7AAFD1848841E11
:1041900043780278607808B116A100E01AA1206A7D
:1041A0000CF066F96078124980F001006070091D1A
:1041B0000020FEF763FD1C22164901A8FCF701FC54
:1041C0000B48001D0178491E49B2002901DA00217F
:1041D00002E0062900DD062101AA52F82110009113
:1041E000837842780CA1E0690CF042F908B010BD68
:1041F0000A0000202530326423464630303030201B
:104200003A23253032640000253032643A253032BA
:1042100064000000DC490108253032642346463042
:10422000303030202F2325303264202573000000E9
:104230002DE9F0478AB01C46DDE9127ADDE91498D1
:104240001546064619B9684606F070F96946081D14
:104250000E60C1E9044780E82003A1F818A00846D1
:1042600006F00EF90AB0BDE8F08700002DE9F0472E
:1042700081460E469046002400222146641C1D48BB
:104280004254002009E048FA00F101F00103214600
:10429000621CD4B2174A5354401C0828F3DB012295
:1042A0002046611CCCB213490A54002007E006FBEB
:1042B00000F1B1FBF4F1104A42F82010401CA0427A
:1042C000F5DB6FF060400C4941F824000025002721
:1042D0000CE0094850F82500B84206D80548415D71
:1042E000484604F0F9FD681CC5B27F1CB742F0D304
:1042F000BDE8F087781E0020881E0020042804D224
:10430000034901EB801000687047002070470000EF
:10431000D404002038B5264C0021E0680BF0B2FA36
:1043200060610DF0DFF801463C222248FCF749FBB2
:10433000204821494162214909680091BDF80010D7
:1043400001841C4960690DF0BDFA1DA160690CF083
:1043500056F8002500952B460122294660690CF08D
:10436000D9FC012160690DF013FA0021E0680BF01F
:1043700089FA0121A0610CF015F814A1A0690CF0D4
:104380003EF80023009503221946A0690CF0C2FCF8
:104390000121A0690DF0FCF9002303224FF4FA611A
:1043A0000E480DF0A7FF2063BDE8384000F066B866
:1043B00008000020081B002094010020B8490108D3
:1043C0002D2D2043202D2D206B5061002346464685
:1043D00046464620EF898423000000007D44000803
:1043E00010B50FA211A113A004F0F0FB0121134896
:1043F00000F026FF0121114800F01EFF00221146A7
:104400000E4801F075FE00210C4800F0CEFFBDE81B
:1044100010401F224FF6FF71084800F016BF000041
:104420004D617220313120323032300076322E3000
:104430000000000057617463685800007404002095
:104440001CB50446FFF75AFF0649094B094AC860E4
:1044500005490648CDE900012146074800F003FE62
:104460001CBD000008000020214D0008954C0008EC
:104470001D4D0008454E0008C004002030B585B031
:10448000FFF768FE2348274C23A190ED030ABDEEF9
:10449000C00A10EE103A90ED000A6069BDEEC00A45
:1044A00010EE102A0BF0E4FF0F2004F005FD08B118
:1044B000012500E0002514221B496846FCF781FA1B
:1044C0009FED1A0B9FED1B4B9FED1C3B9FED1D2B92
:1044D0009FED1E1B04F0C2FE51EC100B0FF01AFBF7
:1044E000002801DA002002E0042800D904204DB1A0
:1044F0002178491CC9B2401C91FBF0F200FB12105C
:10450000C0B220705DF8202012A1A0690BF0B0FFAE
:1045100005B030BDF403002025203264432025641B
:104520006D00000008000020C8490108000000A03C
:1045300099990D40000000000000144000000000A8
:1045400000000000000000C0CCCC10400000006063
:1045500066660640234646464646462025732300A7
:1045600000B589B00BF00EF90D4940F68C230022FE
:10457000A1F11C0006F04AFF684606F057FF8720AD
:10458000ADF80000F020ADF80200064803900448A2
:104590001C380190684606F065FF09B000BD0000B8
:1045A000F00500205539000810B5FFF7EFF9BDE818
:1045B00010400CF0C5BF00002DE9F843464C002127
:1045C000206906F027FA2A228021E0610DF03AF9ED
:1045D00014250095D4E9061000230D220CF09AFB57
:1045E0000021206906F016FA7822802160620DF021
:1045F00029F9009500230D22E169606A0CF08AFB1D
:104600003C2236493648FCF7DCF935480025783835
:104610000095BDF8001020F87A1FBDF80010418009
:104620002F49314F2F484862B86801F108080090BF
:10463000BDF80010A8F81810294620690BF022F9DF
:10464000814601210BF011FE28A148460BF0BDFE6A
:104650000A260096002332464846E1690CF05AFBD0
:1046600048461F490DF02EF9002120690BF00AF988
:10467000814601210BF0F9FD1EA148460BF0A5FE75
:10468000009600230A224846616A0CF043FB484624
:1046900013490DF017F93C22184908F13400FCF7D2
:1046A00090F908F13400FF210572C1730121818165
:1046B000F9680091BDF80020A8F83E20C68008F1F6
:1046C0003401E0690DF0FEF808F13401606ABDE8DC
:1046D000F8430DF0F7B80000C0000020F41F0020E0
:1046E000301D002094010020004A01082054494D4B
:1046F000452000002044415445200000B81F002000
:104700007FB5044605281DD80F480F4D00EB041057
:10471000243D4168E8680BF058FE4FF6BA70641EFD
:10472000444324B2A8690CF028FF0346074800213F
:10473000C82200940390CDE90121054A0549A869E2
:10474000FFF776FD7FBD00006000002051A5000846
:10475000F1180108701C002010B5204C2078D8B941
:10476000012110200EF0A2FB012111200EF09EFB72
:10477000012112200EF09AFB19491A4800F0DEFBC5
:1047800018481749203000F0D9FB1648144940302A
:1047900000F0D4FB01202070102004F08DFBB8B194
:1047A0000021104800F0CCFB112004F085FB88B1FB
:1047B00000210C48203000F0C3FB122004F07CFBE9
:1047C00050B100210748BDE81040403000F0B8BBB0
:1047D0000121E6E70121ECE70121F3E704000020D5
:1047E0004D4800081803002010B5FFF7CFF8BDE8CA
:1047F00010400CF053BE0000034890F8AE10D0F803
:10480000A4000EF02EBE0000B4DD040870B50E4DFD
:1048100004464FF47A76287838B944F62062314657
:104820000A20FEF7EDF801202870002C01DA0020A4
:1048300003E03046844200DC2046BDE8704081B28F
:104840000A2003F01BBB00000500002002460148BF
:1048500000F034BCC004002038B547490020FEF702
:104860003FFA454C0021083CE0690BF00BF8206250
:104870000CF038FE01463C224048FCF7A2F83F49C4
:104880003F4848623F480069009001F11000BDF8C0
:10489000001001823949206A0DF014F80121206AC4
:1048A0000BF080FD0020FFF7FDFB002500952B4657
:1048B0002A462946206A0CF02DFA0121206A0CF0C4
:1048C00067FF04F10C010020FEF7D8F904F10C0099
:1048D000FEF73AFB0021606A0AF0D4FF2749206303
:1048E0000CF0F0FF0121206B0BF05CFDFFF7F8FBF3
:1048F0006FF009000023009005221946206B0CF090
:1049000009FA0121206B0CF043FF0021606A0AF0D4
:10491000B9FF1A49A0620CF0D5FF0121A06A0BF083
:1049200041FD0A200023009002221946A06A0CF0E3
:10493000F1F90121A06A0CF02BFF0020FFF7ECFB3E
:104940000021606A0AF09EFF0C49E0620CF0BAFF99
:104950000121E06A0BF026FD0020FFF789FB002310
:1049600000951A461946E06A0CF0D4F9E06ABDE8F1
:10497000384001210CF00CBFC8000020A81D002009
:104980003C010020004A010810B504461F213248AE
:1049900001F0C2F84FF6FF712F4800F053FC2F4989
:1049A0002D4800F002FD01212B4800F045FC1122AA
:1049B0000021294801F09CFB29A1274801F020FC97
:1049C0000021254800F0F1FC234801F0E2FE00EB55
:1049D000D0706FF00C0101EB600002B200211E48A4
:1049E00001F086FB21461C4801F00AFC1DA11A4873
:1049F00001F0DCFB184801F0CCFE303802B2002197
:104A0000154801F075FB1DA1134801F0F9FB1E4884
:104A100002681EA1104801F0DFFB1B48001D026860
:104A20001EA10D4801F0D8FB17480C3802681EA1E2
:104A3000094801F0D1FB1448083802681DA1064856
:104A400001F0CAFB1048001F0268BDE810401CA11D
:104A5000014801F0C1BB000074040020AC4901080A
:104A60003A28000053796574656D2077696C6C2075
:104A70007265626F6F742E2E2E0000004572726F89
:104A80007220636F64653A0034ED00E04D4D46419D
:104A9000523D307825780D0A000000004246415210
:104AA0003D307825780D0A00434653523D30782535
:104AB000780D0A00484653523D307825780D0A009B
:104AC000444653523D307825780D0A001CB5044603
:104AD000FFF714FC06490023084A08610549064807
:104AE000CDE900012146064800F0BDFA1CBD0000DA
:104AF000C0000020AD4D0008054D0008F14E000833
:104B0000C00400207FB50D460446FFF775FE03463E
:104B100005480021CDE90210044A05490020CDE9ED
:104B20000045FFF785FB7FBD51A500088D4C0008AF
:104B3000780300201CB50446FFF7E0FB064900237C
:104B4000084A886005490648CDE900012146064823
:104B500000F089FA1CBD00003C000020354D000823
:104B6000B54C0008894E0008C004002070B588B01C
:104B70000646202241496846FBF723FF404C694620
:104B800094F90000B0B151F8201060690BF01DFCE1
:104B900094F9000010B10EB101216170411E02298B
:104BA00035D83749083101280AD0022812D0032805
:104BB0001AD022E0607808B132A1E6E70099E4E774
:104BC0000A78921901D5172202E0172A00DD002287
:104BD0000A7012E04A78921901D53B2202E03B2A82
:104BE00000DD00224A7008E08A78921901D53B2244
:104BF00002E03B2A00DD00228A70C0B2FFF752FAC1
:104C00001F4D20780C35042803D000200BE0002035
:104C1000F4E7E878801901D5632002E0632800DD1D
:104C20000020E8700120FFF777FA94F90010481F80
:104C3000012820D8052902D006290BD014E0687875
:104C40003044012801DA0C2002E00C2800DD0120AC
:104C5000687009E0A8783044012801DA1F2002E0DA
:104C60001F2800DD0120A870091FC8B208B0BDE8E8
:104C70007040FFF7FDB90020F8E700001C4A01086A
:104C8000C0000020536176653F0000000846FFF732
:104C9000BDBD000010B5064CE0680CF0D4F9E06A28
:104CA0000DF078FB206BBDE810400DF073BB0000E9
:104CB000080000207FB50F4C60690CF0EFFB00F19D
:104CC0003205A0690CF059FC03460B480021C822AC
:104CD00000950390CDE90121084A0949A069FFF731
:104CE000A7FAC82000F01CF9A06804B0BDE8704025
:104CF0000CF0A9B93C00002051A50008F1180108EA
:104D0000941C002010B50020FEF72EFF0248006919
:104D1000BDE810400CF097B9C000002070470000BB
:104D2000062803D10221024800F01DBA7047000096
:104D3000C004002010B50C4617498C4203D102284C
:104D400014D0062817D0012801D0032822D11348F7
:104D5000844203D14FF0FF30FEF786FF10488442B3
:104D600018D1BDE810400120FEF77EBFBDE810401D
:104D70000C4800F0B3B90C48A0F1240191F90010DF
:104D800000EB0110017B002904D0BDE8104005486C
:104D900000F0E9B910BD000038030020180300201E
:104DA00058030020C00400206000002010B50C460D
:104DB0001F498C4206D11F4B022893F9002014D0C2
:104DC00006282AD0012801D0032830D11A4884426D
:104DD00002D10120FFF7CAFE1848844227D14FF0C4
:104DE000FF30BDE81040FFF7C1BE8AB9587878B1EE
:104DF00010480830C378827841780078FEF719F9B6
:104E00000C480C30037882784178C078FEF703F9BB
:104E1000BDE810400A4800F061B9521C01D50622D5
:104E200002E0062A00DD00221A700020D9E710BD3A
:104E300038030020C0000020180300205803002081
:104E4000C004002038B50E4CE0680CF032FC0021A4
:104E5000E06809F0D7FE0B4920610AF088FB0020CA
:104E6000034602460146009020690BF053FFFFF70E
:104E700051FAFFF7AFF8BDE83840FFF753B800002C
:104E80000800002008C60208F8B5164CA0680CF00F
:104E900010FCFEF783FDFEF753FF0021606909F067
:104EA000B1FE064610490AF062FB00252B4602229D
:104EB0002946304600950BF02DFF0021606909F06E
:104EC000A1FE064609490AF052FB002305221946B5
:104ED000304600950BF01EFF2078BDE8F840FFF744
:104EE0000FBC00003C000020D8A20308B4C3030894
:104EF00010B50A4C20690CF0DCFB002020706070BB
:104F0000FEF7BEFDFFF758FBFFF7A6FCFEF7BCFE61
:104F1000BDE810400120FEF727BE0000C0000020C1
:104F200070B505460DF04EFF044601E00DF06CFA39
:104F30000DF048FF001BA842F8D970BDC161704751
:104F400070B50446C0690D46002866D0607E012613
:104F5000D0B10DF037FF2169401AE188884229D38A
:104F6000E078A84226D002202071A07EC0B10DF0CA
:104F700029FFE168401A218988423CD30DF022FFC5
:104F8000E0600321E26934E0E078884245D066764B
:104F9000267026710DF016FF20610121E26924E0E0
:104FA000E2690221204690470DF00CFFE060A676F2
:104FB000A67020E0607E00282FD0E078A8421DD1A6
:104FC00000206076A076667020710DF0FBFE6061B7
:104FD0000DF0F8FE2169401AE188884203D2E269A7
:104FE000062120469047E269042120469047E26965
:104FF000052120469047607E00280ED00DF0E2FE8D
:105000006169401AC82808D2207E401C20762046BC
:10501000E269BDE870400721104770BDC170C280D1
:105020000381002101614161C16041768176C161E6
:105030007047000004490160044941604FF4006179
:10504000816084218181704700F00F0800F80F080B
:10505000827C8A4206D9C27C002A03D1C170817049
:105060000121C174704770B5867CDDE904548E421D
:1050700001D8002070BD866806EB01163260042658
:10508000826806EB011693510823826803EB011333
:10509000D55080680C2202EB01114450012070BDF4
:1050A000C17C002909D10A4603E0C3685A54491C4F
:1050B000C9B2037C8B42F8D84274704730B40C46B6
:1050C000037881680C2000EB03100B58002B03D0F1
:1050D000204630BC1146184730BC704700B5C17C33
:1050E00071B9417C61B1C36800225A54417C491EA8
:1050F000C9B24174C268515CFFF7AAFF012000BD2C
:10510000002000BD10B50446C278017980688A424B
:105110001AD00122E274082202EB0112805818B161
:10512000A27C914200D2804720796070E0782070A4
:10513000A16801EB0011096819B1A27C904200D26C
:105140008847E078207110BD0021E17421780422A5
:1051500002EB011280580028F5D0A27C9142F2D2D5
:10516000BDE81040004710B5827C8A420AD9C27C53
:1051700042B9037C427C5B1E9A4203DAC3689C5CA2
:105180008C4201D1002010BD521CD2B242749954FD
:10519000FFF75EFF012010BD10B5827C8A4201D866
:1051A000002010BD8368002203EB011304241A6061
:1051B000836804EB01141A510824836804EB01147A
:1051C0001A5180680C2303EB01114250012010BDDD
:1051D00070B5044681740020E0702071E0741646BA
:1051E000080101F0F3FA0025A06005E029462046F9
:1051F000FFF7D2FF6D1CEDB2A07CA842F6D8267452
:10520000304601F0E3FAE0602046FFF749FF204610
:1052100070BD10B50446806808B101F0CFFAE068AF
:1052200008B101F0CBFA204610BD704730B40468D5
:10523000E468A44630BC604701B90121017670479B
:1052400081767047C182818270478182C2827047B5
:105250002DE9FC41044600680E461F4601691546CB
:10526000DDF8208020468847E919491E09B2CDE9BA
:105270000018206833462A46476A19462046B84730
:105280002068816A02B02046BDE8F04108477CB53D
:10529000DDE90645CDE900450468E46BA0477CBD27
:1052A00038B5049C00940468646BA04738BDFEB513
:1052B0000446C0690022E8B30A296DD00D2937D011
:1052C000037A994234D3457A8D4231D34568CB1A5B
:1052D00005EBC305AB78EE781BB316B395F90570F3
:1052E000A67E86B1B4F910C0267E3B4416FB03C3EC
:1052F000B4F90C70BB4206DD2282B4F91220807A28
:1053000016FB00206082A08A237EE28A8DE80D00D1
:10531000B4F910000B460146B4F91220204600F003
:1053200051F8B4F910002979227E11FB0200208285
:105330000120FEBDFFE70A2928D00D29F8D0A07E64
:1053400078B1207EB4F9103000EB400503EB450343
:10535000B4F90C50AB4204DD2282628A02EBC00039
:105360006082A08A237EE28A8DE80D00B4F91000E5
:105370000B460146B4F91220204600F023F8217EA6
:10538000208A01EB410100EB4100D0E72282608AD4
:10539000217E00EBC10006E02282B4F91210227EC9
:1053A000807A12FB00106082C2E7C26919B132B97B
:1053B000428A921D02E012B1428A921F4282C1616A
:1053C000704700002DE9F04F91B08946DDE91BA43C
:1053D000C1691F469346054629B3087A4A68181AD8
:1053E000C0B202EBC00009680A910188049181787B
:1053F0000891C178079190F905100D914FF00008C0
:1054000090F90600CDF81480C246CDF818800F90B0
:10541000012C02D90F980691059028680169284649
:1054200088470020C0E0B5F90C1049457ADDB5F990
:105430000E10594576DD04EB440109EB41000128CB
:1054400070D40BEBC40001286CD4E87E18B9B02FDF
:1054500001D35F1CFFB2286801692846884707EB23
:1054600087000026039081195E48002710F801800C
:105470005FEAC87016D0012C09D01A98CDE9004017
:1054800007FB04B002B206FB049001B217E00BEB7D
:10549000070002B209EB060001B228681A9BD0F897
:1054A00014C028E01A9882450FD0012C19D007FBB0
:1054B00004B002B206FB0490CDE9004A01B22868AC
:1054C0002346D0F818C02846E0477F1C7FB24FEA39
:1054D0005808082FCCDB761C76B2052E0EDA03981E
:1054E000C1E70BEB070002B209EB060001B2286826
:1054F0005346D0F814C02846E047E6E71A998A4593
:1055000056D0012C0FD0E100CDE9001A04EB840144
:1055100001EB090001B2286823465A4686692846ED
:10552000B04745E05BE0CDF800A0286808235A4664
:10553000C46909F1050001B22846A04738E00026F9
:105540002CE000BF5FEA4A710AF1010000F0FF0A97
:1055500006D10A99049811F80080401C80B204908A
:105560005FEA086014D5012C29D01A982346CDE9AA
:10557000004005990398014401FB04B002B206986B
:10558000811901FB049001B2286887692846B84751
:105590004FEA4860761C4FEA1068F6B208988642D7
:1055A000D0D30398401CC0B2079903908842C6D359
:1055B0002868816A11B02846BDE8F04F08470F9966
:1055C0000398594408440D9902B209EB0100304494
:1055D00001B228681A9B47692846B847D8E711B036
:1055E000BDE8F08FF8A3040870472DE9F84305469D
:1055F00000680C46DDE9088701691E469146284689
:10560000884726440AE00097286843464A46D0F86F
:105610001CC021462846E047641C24B2A642F2DCA6
:105620002868816A01B02846BDE8F04308470000B9
:105630002DE9FF5F14460E980E461D46021BA3EB94
:10564000060100D55242002900DA49428A4207DDAC
:105650003146264605464FF001080C46184601E043
:105660004FF00008AE4205DD31462E460D4621467C
:1056700004460846A91B0FFA81F9011B00D54942CF
:105680000FFA81FB09EBD9714F10844201DA012036
:1056900001E04FF0FF3082461CE000BF00980F9BF6
:1056A000B8F1000F0068D0F814C002D0324621468D
:1056B00001E0224631460098E047A7EB0B0007B215
:1056C000002F05DA04EB0A0004B207EB090007B269
:1056D000761C36B2AE42E1DDBDE8FF9F10B5002377
:1056E0000A4CC0E900430181428189B2818191B2B3
:1056F000C181437603824382012101764FF6FF7216
:10570000C28282828176C376C36110BDB4EB040885
:1057100070B5044640F2255500692946FEF7F3F8B6
:10572000002818D02069FEF70DF9C2B2208B618BDA
:10573000401C00F07F00814204D0238B04F11C0147
:105740005A542083606900B1804729462069BDE82A
:105750007040FEF7CBB870BD70B50D460446802191
:105760002069FEF7C9F80028F9D029462069FEF71C
:10577000EDF8284670BD000000224FF47A73C0E9AE
:105780000123034B0360C0E9041242830283704784
:1057900008EC040810B52DED028BB0EE408A00F045
:1057A00019F800EE100AF8EEC00A80EE880ADFED64
:1057B000070A01F001F8F7EE000ABDEC028B30EEAB
:1057C000C00ADFED030A20EE200A10BD01DE423ED2
:1057D000002A2D4770B5044600F08EF80546204695
:1057E00000F04EF803462946204600F067F9A0F580
:1057F0007A6000FB00F2B4F91A1015136943B4F98A
:105800001420C912424301EBE221B4F9122001EB4A
:105810008201227C9140891CCE1701EB96718E107B
:10582000B4F9161041434813B4F91810694300EB5A
:105830002140801C8010618C00F500404143C90B61
:10584000981B4CF25033D3405843B0F1004F03D271
:105850004000B0FBF1F002E0B0FBF1F040000112BB
:10586000494340F6DE325143044A0914424301EBF6
:10587000224101F6CF6100EB211070BD43E3FFFF31
:1058800070B50446007C342101EB8010C2B2F421D3
:10589000204600F0FDF8207CA8B1012815D0022890
:1058A00015D01A2003F084FAF621204600F0C8F83B
:1058B0000502F821204600F0A1F8217C2843C1F11F
:1058C0000801C84070BD0520ECE70820EAE70E207B
:1058D000E8E710B5044600F00FF80146204600F056
:1058E000EDF80830001100EE100AB2EE041AF8EEDE
:1058F000C00A80EE810A10BD10B504462E22F421A4
:1059000000F0C6F8052003F053FA2046BDE8104029
:10591000F62100F095B8000010B52DED028BF0EEE9
:10592000408AFFF757FF00EE100ADFED0B0AB8EED2
:10593000C08A88EEA00AF7EE000A30EEC00ADFED5A
:10594000070A00F039FFC8EE000ABDEC028BBDEE7D
:10595000E00A10EE100A10BD002A2D47F628A840D4
:1059600010B50446032900D90321217400212248DF
:1059700000F0D1FCD021204600F040F8552801D09D
:10598000002010BDAA21204600F05AF86082AC2108
:10599000204600F055F8A082AE21204600F050F8D5
:1059A000E082B021204600F04BF86084B22120460E
:1059B00000F046F8A084B421204600F041F8E084CD
:1059C000B621204600F03CF82083B821204600F0A4
:1059D00037F86083BA21204600F032F8A083BC215A
:1059E000204600F02DF8E083BE21204600F028F884
:1059F0002084012010BD00009C03002010B50C463F
:105A000077210E4800F091FE21460C4800F0ADFED3
:105A10000A4800F06FFE7721084800F086FE012258
:105A20007721064800F063FE044800F081FE04463A
:105A3000024800F05FFE204610BD00009C030020DD
:105A400010B50C467721114800F06FFE21460F4833
:105A500000F08BFE0D4800F04DFE77210B4800F062
:105A600064FE02227721094800F041FE074800F059
:105A70005FFE4FF6FF7101EA0024044800F058FE73
:105A80000443024800F036FE204610BD9C0300206F
:105A900070B50C4615467721074800F046FE2146B2
:105AA000054800F062FE2946034800F05EFEBDE8AE
:105AB0007040014800F01EBE9C030020C28C891A71
:105AC000828C5143B0F91E20C913B0F92000D202D4
:105AD000084492FBF0F008447047000010B50446FB
